{"abi":[{"type":"function","name":"computeAddress","inputs":[{"name":"salt","type":"bytes32","internalType":"bytes32"},{"name":"bytecode","type":"bytes","internalType":"bytes"}],"outputs":[{"name":"","type":"address","internalType":"address"}],"stateMutability":"view"},{"type":"function","name":"deploy","inputs":[{"name":"bytecode","type":"bytes","internalType":"bytes"},{"name":"salt","type":"bytes32","internalType":"bytes32"}],"outputs":[{"name":"","type":"address","internalType":"address"}],"stateMutability":"payable"},{"type":"event","name":"Deployed","inputs":[{"name":"addr","type":"address","indexed":false,"internalType":"address"}],"anonymous":false}],"bytecode":{"object":"0x6080604052348015600e575f5ffd5b506104f48061001c5f395ff3fe608060405260043610610028575f3560e01c80634af63f021461002c578063ca9ffe941461005c575b5f5ffd5b610046600480360381019061004191906102b2565b610098565b604051610053919061034b565b60405180910390f35b348015610067575f5ffd5b50610082600480360381019061007d9190610364565b6100f0565b60405161008f919061034b565b60405180910390f35b5f5f8284516020860134f59050803b6100af575f5ffd5b7ff40fcec21964ffb566044d083b4073f29f7f7929110ea19e1b3ebe375d89055e816040516100de919061034b565b60405180910390a18091505092915050565b5f5f8280519060200120905030848260405160200161011193929190610477565b604051602081830303815290604052805190602001205f1c91505092915050565b5f604051905090565b5f5ffd5b5f5ffd5b5f5ffd5b5f5ffd5b5f601f19601f8301169050919050565b7f4e487b71000000000000000000000000000000000000000000000000000000005f52604160045260245ffd5b6101918261014b565b810181811067ffffffffffffffff821117156101b0576101af61015b565b5b80604052505050565b5f6101c2610132565b90506101ce8282610188565b919050565b5f67ffffffffffffffff8211156101ed576101ec61015b565b5b6101f68261014b565b9050602081019050919050565b828183375f83830152505050565b5f61022361021e846101d3565b6101b9565b90508281526020810184848401111561023f5761023e610147565b5b61024a848285610203565b509392505050565b5f82601f83011261026657610265610143565b5b8135610276848260208601610211565b91505092915050565b5f819050919050565b6102918161027f565b811461029b575f5ffd5b50565b5f813590506102ac81610288565b92915050565b5f5f604083850312156102c8576102c761013b565b5b5f83013567ffffffffffffffff8111156102e5576102e461013f565b5b6102f185828601610252565b92505060206103028582860161029e565b9150509250929050565b5f73ffffffffffffffffffffffffffffffffffffffff82169050919050565b5f6103358261030c565b9050919050565b6103458161032b565b82525050565b5f60208201905061035e5f83018461033c565b92915050565b5f5f6040838503121561037a5761037961013b565b5b5f6103878582860161029e565b925050602083013567ffffffffffffffff8111156103a8576103a761013f565b5b6103b485828601610252565b9150509250929050565b5f81905092915050565b7fff000000000000000000000000000000000000000000000000000000000000005f82015250565b5f6103fc6001836103be565b9150610407826103c8565b600182019050919050565b5f8160601b9050919050565b5f61042882610412565b9050919050565b5f6104398261041e565b9050919050565b61045161044c8261032b565b61042f565b82525050565b5f819050919050565b61047161046c8261027f565b610457565b82525050565b5f610481826103f0565b915061048d8286610440565b60148201915061049d8285610460565b6020820191506104ad8284610460565b60208201915081905094935050505056fea2646970667358221220316b48ba62f5abf63064eaefab2ae9516b7015968fb7f8f81f051eec0adfc80164736f6c634300081b0033","linkReferences":{}},"methodIdentifiers":{"computeAddress(bytes32,bytes)":"ca9ffe94","deploy(bytes,bytes32)":"4af63f02"},"id":42}