{"abi":[{"type":"function","name":"divisor","inputs":[],"outputs":[{"name":"","type":"uint256","internalType":"uint256"}],"stateMutability":"view"},{"type":"function","name":"maxSupply","inputs":[],"outputs":[{"name":"","type":"uint256","internalType":"uint256"}],"stateMutability":"view"},{"type":"function","name":"totalSupply","inputs":[],"outputs":[{"name":"","type":"uint256","internalType":"uint256"}],"stateMutability":"view"},{"type":"function","name":"txnCharge","inputs":[],"outputs":[{"name":"","type":"uint256","internalType":"uint256"}],"stateMutability":"view"},{"type":"function","name":"yearInSeconds","inputs":[],"outputs":[{"name":"","type":"uint256","internalType":"uint256"}],"stateMutability":"view"},{"type":"event","name":"JoinedBitsave","inputs":[{"name":"userAddress","type":"address","indexed":true,"internalType":"address"}],"anonymous":false},{"type":"event","name":"Received","inputs":[{"name":"","type":"address","indexed":true,"internalType":"address"},{"name":"","type":"uint256","indexed":false,"internalType":"uint256"}],"anonymous":false},{"type":"event","name":"SavingCreated","inputs":[{"name":"nameOfSaving","type":"string","indexed":true,"internalType":"string"},{"name":"amount","type":"uint256","indexed":false,"internalType":"uint256"},{"name":"token","type":"address","indexed":false,"internalType":"address"}],"anonymous":false},{"type":"event","name":"SavingIncremented","inputs":[{"name":"nameOfSaving","type":"string","indexed":true,"internalType":"string"},{"name":"amountAdded","type":"uint256","indexed":false,"internalType":"uint256"},{"name":"totalAmountNow","type":"uint256","indexed":false,"internalType":"uint256"},{"name":"token","type":"address","indexed":false,"internalType":"address"}],"anonymous":false},{"type":"event","name":"SavingWithdrawn","inputs":[{"name":"nameOfSaving","type":"string","indexed":true,"internalType":"string"}],"anonymous":false},{"type":"event","name":"TokenWithdrawal","inputs":[{"name":"from","type":"address","indexed":true,"internalType":"address"},{"name":"to","type":"address","indexed":true,"internalType":"address"},{"name":"amount","type":"uint256","indexed":false,"internalType":"uint256"}],"anonymous":false},{"type":"error","name":"AmountNotEnough","inputs":[]},{"type":"error","name":"CallNotFromBitsave","inputs":[]},{"type":"error","name":"CanNotWithdrawToken","inputs":[{"name":"","type":"string","internalType":"string"}]},{"type":"error","name":"InvalidSaving","inputs":[]},{"type":"error","name":"InvalidTime","inputs":[]},{"type":"error","name":"MasterCallRequired","inputs":[]},{"type":"error","name":"NotEnoughToPayGasFee","inputs":[]},{"type":"error","name":"NotSupported","inputs":[{"name":"","type":"string","internalType":"string"}]},{"type":"error","name":"UserNotRegistered","inputs":[]},{"type":"error","name":"WrongGasContract","inputs":[]}],"bytecode":{"object":"0x61019061004e600b8282823980515f1a607314610042577f4e487b71000000000000000000000000000000000000000000000000000000005f525f60045260245ffd5b305f52607381538281f3fe7300000000000000000000000000000000000000003014608060405260043610610060575f3560e01c806318160ddd146100645780631f2dc5ef1461008257806335747b0d146100a05780634059d596146100be578063d5abeb01146100dc575b5f80fd5b61006c6100fa565b6040516100799190610141565b60405180910390f35b61008a610101565b6040516100979190610141565b60405180910390f35b6100a861010e565b6040516100b59190610141565b60405180910390f35b6100c6610119565b6040516100d39190610141565b60405180910390f35b6100e4610121565b6040516100f19190610141565b60405180910390f35b62e4e1c081565b683635c9adc5dea0000081565b66470de4df82000081565b6301e1338081565b6305f5e10081565b5f819050919050565b61013b81610129565b82525050565b5f6020820190506101545f830184610132565b9291505056fea2646970667358221220e88fdba5ca7a1d9f4e85eb8b5cbe57f18902a87b1cc8279fb5391bcae645e15864736f6c63430008170033","linkReferences":{}},"methodIdentifiers":{"divisor()":"1f2dc5ef","maxSupply()":"d5abeb01","totalSupply()":"18160ddd","txnCharge()":"35747b0d","yearInSeconds()":"4059d596"},"id":38}