{"abi":[{"type":"constructor","inputs":[{"name":"_ownerAddress","type":"address","internalType":"address"},{"name":"_stableCoin","type":"address","internalType":"address"}],"stateMutability":"payable"},{"type":"function","name":"bitsaveAddress","inputs":[],"outputs":[{"name":"","type":"address","internalType":"address payable"}],"stateMutability":"view"},{"type":"function","name":"createSaving","inputs":[{"name":"name","type":"string","internalType":"string"},{"name":"maturityTime","type":"uint256","internalType":"uint256"},{"name":"startTime","type":"uint256","internalType":"uint256"},{"name":"penaltyPercentage","type":"uint8","internalType":"uint8"},{"name":"tokenId","type":"address","internalType":"address"},{"name":"amountToRetrieve","type":"uint256","internalType":"uint256"},{"name":"isSafeMode","type":"bool","internalType":"bool"},{"name":"currentVaultState","type":"uint256","internalType":"uint256"},{"name":"currentTotalValueLocked","type":"uint256","internalType":"uint256"}],"outputs":[{"name":"","type":"uint256","internalType":"uint256"}],"stateMutability":"payable"},{"type":"function","name":"getSaving","inputs":[{"name":"nameOfSaving","type":"string","internalType":"string"}],"outputs":[{"name":"","type":"tuple","internalType":"struct ChildBitsave.SavingDataStruct","components":[{"name":"isValid","type":"bool","internalType":"bool"},{"name":"amount","type":"uint256","internalType":"uint256"},{"name":"tokenId","type":"address","internalType":"address"},{"name":"interestAccumulated","type":"uint256","internalType":"uint256"},{"name":"startTime","type":"uint256","internalType":"uint256"},{"name":"penaltyPercentage","type":"uint256","internalType":"uint256"},{"name":"maturityTime","type":"uint256","internalType":"uint256"},{"name":"isSafeMode","type":"bool","internalType":"bool"}]}],"stateMutability":"view"},{"type":"function","name":"getSavingBalance","inputs":[{"name":"nameOfSaving","type":"string","internalType":"string"}],"outputs":[{"name":"","type":"uint256","internalType":"uint256"}],"stateMutability":"view"},{"type":"function","name":"getSavingInterest","inputs":[{"name":"nameOfSaving","type":"string","internalType":"string"}],"outputs":[{"name":"","type":"uint256","internalType":"uint256"}],"stateMutability":"view"},{"type":"function","name":"getSavingMode","inputs":[{"name":"nameOfSaving","type":"string","internalType":"string"}],"outputs":[{"name":"","type":"bool","internalType":"bool"}],"stateMutability":"view"},{"type":"function","name":"getSavingTokenId","inputs":[{"name":"nameOfSaving","type":"string","internalType":"string"}],"outputs":[{"name":"","type":"address","internalType":"address"}],"stateMutability":"view"},{"type":"function","name":"getSavingsNames","inputs":[],"outputs":[{"name":"","type":"tuple","internalType":"struct ChildBitsave.SavingsNamesObj","components":[{"name":"savingsNames","type":"string[]","internalType":"string[]"}]}],"stateMutability":"view"},{"type":"function","name":"incrementSaving","inputs":[{"name":"name","type":"string","internalType":"string"},{"name":"savingPlusAmount","type":"uint256","internalType":"uint256"},{"name":"currentVaultState","type":"uint256","internalType":"uint256"},{"name":"currentTotalValueLocked","type":"uint256","internalType":"uint256"}],"outputs":[{"name":"","type":"uint256","internalType":"uint256"}],"stateMutability":"payable"},{"type":"function","name":"ownerAddress","inputs":[],"outputs":[{"name":"","type":"address","internalType":"address"}],"stateMutability":"view"},{"type":"function","name":"savings","inputs":[{"name":"","type":"string","internalType":"string"}],"outputs":[{"name":"isValid","type":"bool","internalType":"bool"},{"name":"amount","type":"uint256","internalType":"uint256"},{"name":"tokenId","type":"address","internalType":"address"},{"name":"interestAccumulated","type":"uint256","internalType":"uint256"},{"name":"startTime","type":"uint256","internalType":"uint256"},{"name":"penaltyPercentage","type":"uint256","internalType":"uint256"},{"name":"maturityTime","type":"uint256","internalType":"uint256"},{"name":"isSafeMode","type":"bool","internalType":"bool"}],"stateMutability":"view"},{"type":"function","name":"stableCoin","inputs":[],"outputs":[{"name":"","type":"address","internalType":"contract IERC20"}],"stateMutability":"view"},{"type":"function","name":"totalPoints","inputs":[],"outputs":[{"name":"","type":"uint256","internalType":"uint256"}],"stateMutability":"view"},{"type":"function","name":"withdrawSaving","inputs":[{"name":"name","type":"string","internalType":"string"}],"outputs":[{"name":"","type":"string","internalType":"string"}],"stateMutability":"payable"},{"type":"event","name":"SavingCreated","inputs":[{"name":"nameOfSaving","type":"string","indexed":true,"internalType":"string"},{"name":"amount","type":"uint256","indexed":false,"internalType":"uint256"},{"name":"token","type":"address","indexed":false,"internalType":"address"}],"anonymous":false},{"type":"event","name":"SavingIncremented","inputs":[{"name":"nameOfSaving","type":"string","indexed":true,"internalType":"string"},{"name":"amountAdded","type":"uint256","indexed":false,"internalType":"uint256"},{"name":"totalAmountNow","type":"uint256","indexed":false,"internalType":"uint256"},{"name":"token","type":"address","indexed":false,"internalType":"address"}],"anonymous":false},{"type":"event","name":"SavingWithdrawn","inputs":[{"name":"nameOfSaving","type":"string","indexed":true,"internalType":"string"}],"anonymous":false},{"type":"event","name":"TokenWithdrawal","inputs":[{"name":"from","type":"address","indexed":true,"internalType":"address"},{"name":"to","type":"address","indexed":true,"internalType":"address"},{"name":"amount","type":"uint256","indexed":false,"internalType":"uint256"}],"anonymous":false},{"type":"error","name":"AddressEmptyCode","inputs":[{"name":"target","type":"address","internalType":"address"}]},{"type":"error","name":"AddressInsufficientBalance","inputs":[{"name":"account","type":"address","internalType":"address"}]},{"type":"error","name":"CallNotFromBitsave","inputs":[]},{"type":"error","name":"CanNotWithdrawToken","inputs":[{"name":"","type":"address","internalType":"address"}]},{"type":"error","name":"FailedInnerCall","inputs":[]},{"type":"error","name":"InvalidSaving","inputs":[]},{"type":"error","name":"InvalidTime","inputs":[]},{"type":"error","name":"PRBMath__MulDivFixedPointOverflow","inputs":[{"name":"prod1","type":"uint256","internalType":"uint256"}]},{"type":"error","name":"PRBMath__MulDivOverflow","inputs":[{"name":"prod1","type":"uint256","internalType":"uint256"},{"name":"denominator","type":"uint256","internalType":"uint256"}]},{"type":"error","name":"ReentrancyGuardReentrantCall","inputs":[]},{"type":"error","name":"SafeERC20FailedOperation","inputs":[{"name":"token","type":"address","internalType":"address"}]}],"bytecode":{"object":"0x608060405260405161324738038061324783398181016040528101906100259190610158565b60015f819055503360015f6101000a81548173ffffffffffffffffffffffffffffffffffffffff021916908373ffffffffffffffffffffffffffffffffffffffff1602179055508160035f6101000a81548173ffffffffffffffffffffffffffffffffffffffff021916908373ffffffffffffffffffffffffffffffffffffffff1602179055508060025f6101000a81548173ffffffffffffffffffffffffffffffffffffffff021916908373ffffffffffffffffffffffffffffffffffffffff1602179055505f6004819055505050610196565b5f5ffd5b5f73ffffffffffffffffffffffffffffffffffffffff82169050919050565b5f610127826100fe565b9050919050565b6101378161011d565b8114610141575f5ffd5b50565b5f815190506101528161012e565b92915050565b5f5f6040838503121561016e5761016d6100fa565b5b5f61017b85828601610144565b925050602061018c85828601610144565b9150509250929050565b6130a4806101a35f395ff3fe6080604052600436106100dc575f3560e01c806384febb691161007e578063d1ece79011610058578063d1ece790146102df578063dc2379b914610309578063e0ea6d4014610339578063e18f5f6514610375576100dc565b806384febb691461024f5780638f84aa091461028b578063992642e5146102b5576100dc565b8063372f9101116100ba578063372f910114610189578063436d4a6d146101b9578063567142be146101e9578063585dbffe14610213576100dc565b806313203929146100e05780631bb862a5146101235780632ae3c90f1461015f575b5f5ffd5b3480156100eb575f5ffd5b5061010660048036038101906101019190612199565b6103b1565b60405161011a989796959493929190612251565b60405180910390f35b34801561012e575f5ffd5b5061014960048036038101906101449190612199565b610444565b60405161015691906122cd565b60405180910390f35b34801561016a575f5ffd5b5061017361047a565b6040516101809190612306565b60405180910390f35b6101a3600480360381019061019e9190612199565b61049f565b6040516101b0919061237f565b60405180910390f35b6101d360048036038101906101ce9190612453565b6109fa565b6040516101e09190612533565b60405180910390f35b3480156101f4575f5ffd5b506101fd610dd8565b60405161020a9190612533565b60405180910390f35b34801561021e575f5ffd5b5061023960048036038101906102349190612199565b610dde565b6040516102469190612619565b60405180910390f35b34801561025a575f5ffd5b5061027560048036038101906102709190612199565b610ed1565b6040516102829190612533565b60405180910390f35b348015610296575f5ffd5b5061029f610efb565b6040516102ac9190612633565b60405180910390f35b3480156102c0575f5ffd5b506102c9610f20565b6040516102d691906126a7565b60405180910390f35b3480156102ea575f5ffd5b506102f3610f45565b60405161030091906127ea565b60405180910390f35b610323600480360381019061031e919061280a565b611032565b6040516103309190612533565b60405180910390f35b348015610344575f5ffd5b5061035f600480360381019061035a9190612199565b6114a9565b60405161036c9190612533565b60405180910390f35b348015610380575f5ffd5b5061039b60048036038101906103969190612199565b6114d3565b6040516103a89190612633565b60405180910390f35b6005818051602081018201805184825260208301602085012081835280955050505050505f91509050805f015f9054906101000a900460ff1690806001015490806002015f9054906101000a900473ffffffffffffffffffffffffffffffffffffffff1690806003015490806004015490806005015490806006015490806007015f9054906101000a900460ff16905088565b5f60058260405161045591906128c4565b90815260200160405180910390206007015f9054906101000a900460ff169050919050565b60015f9054906101000a900473ffffffffffffffffffffffffffffffffffffffff1681565b606060015f9054906101000a900473ffffffffffffffffffffffffffffffffffffffff1673ffffffffffffffffffffffffffffffffffffffff163373ffffffffffffffffffffffffffffffffffffffff1614610527576040517f229e1dbd00000000000000000000000000000000000000000000000000000000815260040160405180910390fd5b61052f61151c565b5f60058360405161054091906128c4565b90815260200160405180910390209050805f015f9054906101000a900460ff16610596576040517fd63d1e4800000000000000000000000000000000000000000000000000000000815260040160405180910390fd5b5f816001015490505f60015f9054906101000a900473ffffffffffffffffffffffffffffffffffffffff1690508260060154421015610661576064836005015460646105e29190612907565b84600101546105f1919061293a565b6105fb91906129a8565b915061065b836002015f9054906101000a900473ffffffffffffffffffffffffffffffffffffffff1660015f9054906101000a900473ffffffffffffffffffffffffffffffffffffffff168486600101546106569190612907565b611560565b50610662565b5b5f60058660405161067391906128c4565b90815260200160405180910390205f015f6101000a81548160ff0219169083151502179055505f836002015f9054906101000a900473ffffffffffffffffffffffffffffffffffffffff1690505f5f9050846007015f9054906101000a900460ff16156107cd5761072760015f9054906101000a900473ffffffffffffffffffffffffffffffffffffffff168560025f9054906101000a900473ffffffffffffffffffffffffffffffffffffffff16611601565b508273ffffffffffffffffffffffffffffffffffffffff1663de35c372838660035f9054906101000a900473ffffffffffffffffffffffffffffffffffffffff166040518463ffffffff1660e01b8152600401610786939291906129d8565b6020604051808303815f875af11580156107a2573d5f5f3e3d5ffd5b505050506040513d601f19601f820116820180604052508101906107c69190612a21565b9050610928565b5f73ffffffffffffffffffffffffffffffffffffffff168273ffffffffffffffffffffffffffffffffffffffff16036108d5575f5f60035f9054906101000a900473ffffffffffffffffffffffffffffffffffffffff1673ffffffffffffffffffffffffffffffffffffffff168660405161084790612a79565b5f6040518083038185875af1925050503d805f8114610881576040519150601f19603f3d011682016040523d82523d5f602084013e610886565b606091505b5091509150816108cb576040517f08c379a00000000000000000000000000000000000000000000000000000000081526004016108c290612ad7565b60405180910390fd5b8192505050610927565b610924856002015f9054906101000a900473ffffffffffffffffffffffffffffffffffffffff1660035f9054906101000a900473ffffffffffffffffffffffffffffffffffffffff1686611560565b90505b5b80156109e9575f60058860405161093f91906128c4565b90815260200160405180910390205f015f6101000a81548160ff0219169083151502179055508660405161097391906128c4565b60405180910390207f5b059b7fe1fea38d4de595079621498a365a8f1fa13e49af9f1e4b7197ab049a60405160405180910390a26040518060400160405280601e81526020017f736176696e67732077697468647261776e207375636365737366756c6c790000815250955050505050506109ed565b5f5ffd5b6109f561163d565b919050565b5f60015f9054906101000a900473ffffffffffffffffffffffffffffffffffffffff1673ffffffffffffffffffffffffffffffffffffffff163373ffffffffffffffffffffffffffffffffffffffff1614610a81576040517f229e1dbd00000000000000000000000000000000000000000000000000000000815260040160405180910390fd5b610a8961151c565b60058a604051610a9991906128c4565b90815260200160405180910390205f015f9054906101000a900460ff1615610aed576040517fd63d1e4800000000000000000000000000000000000000000000000000000000815260040160405180910390fd5b87891015610b27576040517f6f7eac2600000000000000000000000000000000000000000000000000000000815260040160405180910390fd5b42891015610b61576040517f6f7eac2600000000000000000000000000000000000000000000000000000000815260040160405180910390fd5b5f8590508415610bbe57610bb860015f9054906101000a900473ffffffffffffffffffffffffffffffffffffffff1660025f9054906101000a900473ffffffffffffffffffffffffffffffffffffffff1688611646565b50610c28565b5f73ffffffffffffffffffffffffffffffffffffffff168773ffffffffffffffffffffffffffffffffffffffff1614610c2357610c1d60015f9054906101000a900473ffffffffffffffffffffffffffffffffffffffff168888611646565b50610c27565b3490505b5b5f610c36828c8c888861173f565b90506040518061010001604052806001151581526020018381526020018973ffffffffffffffffffffffffffffffffffffffff1681526020018281526020018b81526020018a60ff1681526020018c815260200187151581525060058d604051610ca091906128c4565b90815260200160405180910390205f820151815f015f6101000a81548160ff021916908315150217905550602082015181600101556040820151816002015f6101000a81548173ffffffffffffffffffffffffffffffffffffffff021916908373ffffffffffffffffffffffffffffffffffffffff160217905550606082015181600301556080820151816004015560a0820151816005015560c0820151816006015560e0820151816007015f6101000a81548160ff021916908315150217905550905050610d6e8c61177a565b8b604051610d7c91906128c4565b60405180910390207f4ad85a69286191006ea05981ae1848070dbf232e5e00ffdda4b857c16097f0d7888a604051610db5929190612af5565b60405180910390a2600192505050610dcb61163d565b9998505050505050505050565b60045481565b610de6611fe2565b600582604051610df691906128c4565b9081526020016040518091039020604051806101000160405290815f82015f9054906101000a900460ff1615151515815260200160018201548152602001600282015f9054906101000a900473ffffffffffffffffffffffffffffffffffffffff1673ffffffffffffffffffffffffffffffffffffffff1673ffffffffffffffffffffffffffffffffffffffff16815260200160038201548152602001600482015481526020016005820154815260200160068201548152602001600782015f9054906101000a900460ff1615151515815250509050919050565b5f600582604051610ee291906128c4565b9081526020016040518091039020600301549050919050565b60035f9054906101000a900473ffffffffffffffffffffffffffffffffffffffff1681565b60025f9054906101000a900473ffffffffffffffffffffffffffffffffffffffff1681565b610f4d612039565b60066040518060200160405290815f8201805480602002602001604051908101604052809291908181526020015f905b82821015611025578382905f5260205f20018054610f9a90612b49565b80601f0160208091040260200160405190810160405280929190818152602001828054610fc690612b49565b80156110115780601f10610fe857610100808354040283529160200191611011565b820191905f5260205f20905b815481529060010190602001808311610ff457829003601f168201915b505050505081526020019060010190610f7d565b5050505081525050905090565b5f60015f9054906101000a900473ffffffffffffffffffffffffffffffffffffffff1673ffffffffffffffffffffffffffffffffffffffff163373ffffffffffffffffffffffffffffffffffffffff16146110b9576040517f229e1dbd00000000000000000000000000000000000000000000000000000000815260040160405180910390fd5b6110c161151c565b5f6005866040516110d291906128c4565b90815260200160405180910390209050805f015f9054906101000a900460ff16611128576040517fd63d1e4800000000000000000000000000000000000000000000000000000000815260040160405180910390fd5b8060060154421115611166576040517f6f7eac2600000000000000000000000000000000000000000000000000000000815260040160405180910390fd5b5f5f73ffffffffffffffffffffffffffffffffffffffff16826002015f9054906101000a900473ffffffffffffffffffffffffffffffffffffffff1673ffffffffffffffffffffffffffffffffffffffff16149050816007015f9054906101000a900460ff16156112245761121e60015f9054906101000a900473ffffffffffffffffffffffffffffffffffffffff1660025f9054906101000a900473ffffffffffffffffffffffffffffffffffffffff1688611646565b506112c6565b8061127e5761127860015f9054906101000a900473ffffffffffffffffffffffffffffffffffffffff16836002015f9054906101000a900473ffffffffffffffffffffffffffffffffffffffff1688611646565b506112c5565b853410156112c1576040517f08c379a00000000000000000000000000000000000000000000000000000000081526004016112b890612be9565b60405180910390fd5b3495505b5b5f6112d887846006015442898961173f565b90508083600301546112ea9190612c07565b83600301819055508683600101546113029190612c07565b83600101819055508260058960405161131b91906128c4565b90815260200160405180910390205f82015f9054906101000a900460ff16815f015f6101000a81548160ff02191690831515021790555060018201548160010155600282015f9054906101000a900473ffffffffffffffffffffffffffffffffffffffff16816002015f6101000a81548173ffffffffffffffffffffffffffffffffffffffff021916908373ffffffffffffffffffffffffffffffffffffffff16021790555060038201548160030155600482015481600401556005820154816005015560068201548160060155600782015f9054906101000a900460ff16816007015f6101000a81548160ff0219169083151502179055509050508760405161142591906128c4565b60405180910390207ff6b98d8e0d83f8b1d1ff03a2fa36aba2c77ccf20e4ff035c0cf4aa92762e9eec888560010154866002015f9054906101000a900473ffffffffffffffffffffffffffffffffffffffff1660405161148793929190612c3a565b60405180910390a2826003015493505050506114a161163d565b949350505050565b5f6005826040516114ba91906128c4565b9081526020016040518091039020600101549050919050565b5f6005826040516114e491906128c4565b90815260200160405180910390206002015f9054906101000a900473ffffffffffffffffffffffffffffffffffffffff169050919050565b60025f5403611557576040517f3ee5aeb500000000000000000000000000000000000000000000000000000000815260040160405180910390fd5b60025f81905550565b5f5f84905061159084848373ffffffffffffffffffffffffffffffffffffffff166117b19092919063ffffffff16565b600191508373ffffffffffffffffffffffffffffffffffffffff163073ffffffffffffffffffffffffffffffffffffffff167f42856d0378dde02337bb59ae41747abc77ded8ebdbbc5cbdd1e53693b7554938856040516115f19190612533565b60405180910390a3509392505050565b5f5f82905061163185858373ffffffffffffffffffffffffffffffffffffffff166118309092919063ffffffff16565b60019150509392505050565b60015f81905550565b5f818373ffffffffffffffffffffffffffffffffffffffff1663dd62ed3e86306040518363ffffffff1660e01b8152600401611683929190612c6f565b602060405180830381865afa15801561169e573d5f5f3e3d5ffd5b505050506040513d601f19601f820116820180604052508101906116c29190612caa565b10158390611706576040517fa3adb6570000000000000000000000000000000000000000000000000000000081526004016116fd9190612633565b60405180910390fd5b506117348430848673ffffffffffffffffffffffffffffffffffffffff1661193d909392919063ffffffff16565b600190509392505050565b5f6117578685876117509190612907565b85856119bf565b90508060045f82825461176a9190612c07565b9250508190555095945050505050565b60065f0181908060018154018082558091505060019003905f5260205f20015f9091909190915090816117ad9190612e6c565b5050565b61182b838473ffffffffffffffffffffffffffffffffffffffff1663a9059cbb85856040516024016117e4929190612f3b565b604051602081830303815290604052915060e01b6020820180517bffffffffffffffffffffffffffffffffffffffffffffffffffffffff8381831617835250505050611a89565b505050565b5f8373ffffffffffffffffffffffffffffffffffffffff1663095ea7b38484604051602401611860929190612f3b565b604051602081830303815290604052915060e01b6020820180517bffffffffffffffffffffffffffffffffffffffffffffffffffffffff838183161783525050505090506118ae8482611b1e565b6119375761192c848573ffffffffffffffffffffffffffffffffffffffff1663095ea7b3865f6040516024016118e5929190612f9b565b604051602081830303815290604052915060e01b6020820180517bffffffffffffffffffffffffffffffffffffffffffffffffffffffff8381831617835250505050611a89565b6119368482611a89565b5b50505050565b6119b9848573ffffffffffffffffffffffffffffffffffffffff166323b872dd86868660405160240161197293929190612fc2565b604051602081830303815290604052915060e01b6020820180517bffffffffffffffffffffffffffffffffffffffffffffffffffffffff8381831617835250505050611a89565b50505050565b5f5f6119f560646119e7868762e4e1c06119d99190612907565b611bdd90919063ffffffff16565b611bf990919063ffffffff16565b90505f611a1a8483611a07919061293a565b6305f5e100611bdd90919063ffffffff16565b90505f611a346301e1338088611bdd90919063ffffffff16565b9050611a7c611a77683635c9adc5dea000006064611a52919061293a565b83858c611a5f919061293a565b611a69919061293a565b611bdd90919063ffffffff16565b611c0c565b9350505050949350505050565b5f611ab3828473ffffffffffffffffffffffffffffffffffffffff16611c2d90919063ffffffff16565b90505f815114158015611ad7575080806020019051810190611ad59190612a21565b155b15611b1957826040517f5274afe7000000000000000000000000000000000000000000000000000000008152600401611b109190612633565b60405180910390fd5b505050565b5f5f5f8473ffffffffffffffffffffffffffffffffffffffff1684604051611b469190613031565b5f604051808303815f865af19150503d805f8114611b7f576040519150601f19603f3d011682016040523d82523d5f602084013e611b84565b606091505b5091509150818015611bb157505f81511480611bb0575080806020019051810190611baf9190612a21565b5b5b8015611bd357505f8573ffffffffffffffffffffffffffffffffffffffff163b115b9250505092915050565b5f611bf183670de0b6b3a764000084611c42565b905092915050565b5f611c048383611d50565b905092915050565b5f670de0b6b3a76400008281611c2557611c2461297b565b5b049050919050565b6060611c3a83835f611e48565b905092915050565b5f5f5f5f198587098587029250828110838203039150505f8103611c7a57838281611c7057611c6f61297b565b5b0492505050611d49565b838110611cc05780846040517f773cc18c000000000000000000000000000000000000000000000000000000008152600401611cb7929190613047565b60405180910390fd5b5f8486880990508281118203915080830392505f60018619018616905080860495508084049350600181825f0304019050808302841793505f600287600302189050808702600203810290508087026002038102905080870260020381029050808702600203810290508087026002038102905080870260020381029050808502955050505050505b9392505050565b5f5f5f5f19848609848602925082811083820303915050670de0b6b3a76400008110611db357806040517fd31b3402000000000000000000000000000000000000000000000000000000008152600401611daa9190612533565b60405180910390fd5b5f5f670de0b6b3a764000086880991506706f05b59d3b1ffff821190505f8303611dfd5780670de0b6b3a76400008581611df057611def61297b565b5b0401945050505050611e42565b807faccb18165bd6fe31ae1cf318dc5b51eee0e1ba569b88cd74c1773b91fac10669600162040000805f03040186851186030262040000858803041702019450505050505b92915050565b606081471015611e8f57306040517fcd786059000000000000000000000000000000000000000000000000000000008152600401611e869190612633565b60405180910390fd5b5f5f8573ffffffffffffffffffffffffffffffffffffffff168486604051611eb79190613031565b5f6040518083038185875af1925050503d805f8114611ef1576040519150601f19603f3d011682016040523d82523d5f602084013e611ef6565b606091505b5091509150611f06868383611f11565b925050509392505050565b606082611f2657611f2182611f9e565b611f96565b5f8251148015611f4c57505f8473ffffffffffffffffffffffffffffffffffffffff163b145b15611f8e57836040517f9996b315000000000000000000000000000000000000000000000000000000008152600401611f859190612633565b60405180910390fd5b819050611f97565b5b9392505050565b5f81511115611fb05780518082602001fd5b6040517f1425ea4200000000000000000000000000000000000000000000000000000000815260040160405180910390fd5b6040518061010001604052805f151581526020015f81526020015f73ffffffffffffffffffffffffffffffffffffffff1681526020015f81526020015f81526020015f81526020015f81526020015f151581525090565b6040518060200160405280606081525090565b5f604051905090565b5f5ffd5b5f5ffd5b5f5ffd5b5f5ffd5b5f601f19601f8301169050919050565b7f4e487b71000000000000000000000000000000000000000000000000000000005f52604160045260245ffd5b6120ab82612065565b810181811067ffffffffffffffff821117156120ca576120c9612075565b5b80604052505050565b5f6120dc61204c565b90506120e882826120a2565b919050565b5f67ffffffffffffffff82111561210757612106612075565b5b61211082612065565b9050602081019050919050565b828183375f83830152505050565b5f61213d612138846120ed565b6120d3565b90508281526020810184848401111561215957612158612061565b5b61216484828561211d565b509392505050565b5f82601f8301126121805761217f61205d565b5b813561219084826020860161212b565b91505092915050565b5f602082840312156121ae576121ad612055565b5b5f82013567ffffffffffffffff8111156121cb576121ca612059565b5b6121d78482850161216c565b91505092915050565b5f8115159050919050565b6121f4816121e0565b82525050565b5f819050919050565b61220c816121fa565b82525050565b5f73ffffffffffffffffffffffffffffffffffffffff82169050919050565b5f61223b82612212565b9050919050565b61224b81612231565b82525050565b5f610100820190506122655f83018b6121eb565b612272602083018a612203565b61227f6040830189612242565b61228c6060830188612203565b6122996080830187612203565b6122a660a0830186612203565b6122b360c0830185612203565b6122c060e08301846121eb565b9998505050505050505050565b5f6020820190506122e05f8301846121eb565b92915050565b5f6122f082612212565b9050919050565b612300816122e6565b82525050565b5f6020820190506123195f8301846122f7565b92915050565b5f81519050919050565b5f82825260208201905092915050565b8281835e5f83830152505050565b5f6123518261231f565b61235b8185612329565b935061236b818560208601612339565b61237481612065565b840191505092915050565b5f6020820190508181035f8301526123978184612347565b905092915050565b6123a8816121fa565b81146123b2575f5ffd5b50565b5f813590506123c38161239f565b92915050565b5f60ff82169050919050565b6123de816123c9565b81146123e8575f5ffd5b50565b5f813590506123f9816123d5565b92915050565b61240881612231565b8114612412575f5ffd5b50565b5f81359050612423816123ff565b92915050565b612432816121e0565b811461243c575f5ffd5b50565b5f8135905061244d81612429565b92915050565b5f5f5f5f5f5f5f5f5f6101208a8c03121561247157612470612055565b5b5f8a013567ffffffffffffffff81111561248e5761248d612059565b5b61249a8c828d0161216c565b99505060206124ab8c828d016123b5565b98505060406124bc8c828d016123b5565b97505060606124cd8c828d016123eb565b96505060806124de8c828d01612415565b95505060a06124ef8c828d016123b5565b94505060c06125008c828d0161243f565b93505060e06125118c828d016123b5565b9250506101006125238c828d016123b5565b9150509295985092959850929598565b5f6020820190506125465f830184612203565b92915050565b612555816121e0565b82525050565b612564816121fa565b82525050565b61257381612231565b82525050565b61010082015f82015161258e5f85018261254c565b5060208201516125a1602085018261255b565b5060408201516125b4604085018261256a565b5060608201516125c7606085018261255b565b5060808201516125da608085018261255b565b5060a08201516125ed60a085018261255b565b5060c082015161260060c085018261255b565b5060e082015161261360e085018261254c565b50505050565b5f6101008201905061262d5f830184612579565b92915050565b5f6020820190506126465f830184612242565b92915050565b5f819050919050565b5f61266f61266a61266584612212565b61264c565b612212565b9050919050565b5f61268082612655565b9050919050565b5f61269182612676565b9050919050565b6126a181612687565b82525050565b5f6020820190506126ba5f830184612698565b92915050565b5f81519050919050565b5f82825260208201905092915050565b5f819050602082019050919050565b5f82825260208201905092915050565b5f6127038261231f565b61270d81856126e9565b935061271d818560208601612339565b61272681612065565b840191505092915050565b5f61273c83836126f9565b905092915050565b5f602082019050919050565b5f61275a826126c0565b61276481856126ca565b935083602082028501612776856126da565b805f5b858110156127b157848403895281516127928582612731565b945061279d83612744565b925060208a01995050600181019050612779565b50829750879550505050505092915050565b5f602083015f8301518482035f8601526127dd8282612750565b9150508091505092915050565b5f6020820190508181035f83015261280281846127c3565b905092915050565b5f5f5f5f6080858703121561282257612821612055565b5b5f85013567ffffffffffffffff81111561283f5761283e612059565b5b61284b8782880161216c565b945050602061285c878288016123b5565b935050604061286d878288016123b5565b925050606061287e878288016123b5565b91505092959194509250565b5f81905092915050565b5f61289e8261231f565b6128a8818561288a565b93506128b8818560208601612339565b80840191505092915050565b5f6128cf8284612894565b915081905092915050565b7f4e487b71000000000000000000000000000000000000000000000000000000005f52601160045260245ffd5b5f612911826121fa565b915061291c836121fa565b9250828203905081811115612934576129336128da565b5b92915050565b5f612944826121fa565b915061294f836121fa565b925082820261295d816121fa565b91508282048414831517612974576129736128da565b5b5092915050565b7f4e487b71000000000000000000000000000000000000000000000000000000005f52601260045260245ffd5b5f6129b2826121fa565b91506129bd836121fa565b9250826129cd576129cc61297b565b5b828204905092915050565b5f6060820190506129eb5f830186612242565b6129f86020830185612203565b612a056040830184612242565b949350505050565b5f81519050612a1b81612429565b92915050565b5f60208284031215612a3657612a35612055565b5b5f612a4384828501612a0d565b91505092915050565b5f81905092915050565b50565b5f612a645f83612a4c565b9150612a6f82612a56565b5f82019050919050565b5f612a8382612a59565b9150819050919050565b7f436f756c646e27742073656e642066756e6473000000000000000000000000005f82015250565b5f612ac1601383612329565b9150612acc82612a8d565b602082019050919050565b5f6020820190508181035f830152612aee81612ab5565b9050919050565b5f604082019050612b085f830185612203565b612b156020830184612242565b9392505050565b7f4e487b71000000000000000000000000000000000000000000000000000000005f52602260045260245ffd5b5f6002820490506001821680612b6057607f821691505b602082108103612b7357612b72612b1c565b5b50919050565b7f496e76616c696420736176696e6720696e6372656d656e742076616c756520735f8201527f656e740000000000000000000000000000000000000000000000000000000000602082015250565b5f612bd3602383612329565b9150612bde82612b79565b604082019050919050565b5f6020820190508181035f830152612c0081612bc7565b9050919050565b5f612c11826121fa565b9150612c1c836121fa565b9250828201905080821115612c3457612c336128da565b5b92915050565b5f606082019050612c4d5f830186612203565b612c5a6020830185612203565b612c676040830184612242565b949350505050565b5f604082019050612c825f830185612242565b612c8f6020830184612242565b9392505050565b5f81519050612ca48161239f565b92915050565b5f60208284031215612cbf57612cbe612055565b5b5f612ccc84828501612c96565b91505092915050565b5f819050815f5260205f209050919050565b5f6020601f8301049050919050565b5f82821b905092915050565b5f60088302612d317fffffffffffffffffffffffffffffffffffffffffffffffffffffffffffffffff82612cf6565b612d3b8683612cf6565b95508019841693508086168417925050509392505050565b5f612d6d612d68612d63846121fa565b61264c565b6121fa565b9050919050565b5f819050919050565b612d8683612d53565b612d9a612d9282612d74565b848454612d02565b825550505050565b5f5f905090565b612db1612da2565b612dbc818484612d7d565b505050565b5b81811015612ddf57612dd45f82612da9565b600181019050612dc2565b5050565b601f821115612e2457612df581612cd5565b612dfe84612ce7565b81016020851015612e0d578190505b612e21612e1985612ce7565b830182612dc1565b50505b505050565b5f82821c905092915050565b5f612e445f1984600802612e29565b1980831691505092915050565b5f612e5c8383612e35565b9150826002028217905092915050565b612e758261231f565b67ffffffffffffffff811115612e8e57612e8d612075565b5b612e988254612b49565b612ea3828285612de3565b5f60209050601f831160018114612ed4575f8415612ec2578287015190505b612ecc8582612e51565b865550612f33565b601f198416612ee286612cd5565b5f5b82811015612f0957848901518255600182019150602085019450602081019050612ee4565b86831015612f265784890151612f22601f891682612e35565b8355505b6001600288020188555050505b505050505050565b5f604082019050612f4e5f830185612242565b612f5b6020830184612203565b9392505050565b5f819050919050565b5f612f85612f80612f7b84612f62565b61264c565b6121fa565b9050919050565b612f9581612f6b565b82525050565b5f604082019050612fae5f830185612242565b612fbb6020830184612f8c565b9392505050565b5f606082019050612fd55f830186612242565b612fe26020830185612242565b612fef6040830184612203565b949350505050565b5f81519050919050565b5f61300b82612ff7565b6130158185612a4c565b9350613025818560208601612339565b80840191505092915050565b5f61303c8284613001565b915081905092915050565b5f60408201905061305a5f830185612203565b6130676020830184612203565b939250505056fea2646970667358221220498abdd448fb50491f899b2facfb514f409003d7b82c8917164f39e74cfac1c264736f6c634300081b0033","linkReferences":{}},"methodIdentifiers":{"bitsaveAddress()":"2ae3c90f","createSaving(string,uint256,uint256,uint8,address,uint256,bool,uint256,uint256)":"436d4a6d","getSaving(string)":"585dbffe","getSavingBalance(string)":"e0ea6d40","getSavingInterest(string)":"84febb69","getSavingMode(string)":"1bb862a5","getSavingTokenId(string)":"e18f5f65","getSavingsNames()":"d1ece790","incrementSaving(string,uint256,uint256,uint256)":"dc2379b9","ownerAddress()":"8f84aa09","savings(string)":"13203929","stableCoin()":"992642e5","totalPoints()":"567142be","withdrawSaving(string)":"372f9101"},"id":44}