{"abi":[{"type":"constructor","inputs":[{"name":"_ownerAddress","type":"address","internalType":"address"},{"name":"_stableCoin","type":"address","internalType":"address"}],"stateMutability":"payable"},{"type":"function","name":"bitsaveAddress","inputs":[],"outputs":[{"name":"","type":"address","internalType":"address payable"}],"stateMutability":"view"},{"type":"function","name":"createSaving","inputs":[{"name":"name","type":"string","internalType":"string"},{"name":"maturityTime","type":"uint256","internalType":"uint256"},{"name":"startTime","type":"uint256","internalType":"uint256"},{"name":"penaltyPercentage","type":"uint8","internalType":"uint8"},{"name":"tokenId","type":"address","internalType":"address"},{"name":"amountToRetrieve","type":"uint256","internalType":"uint256"},{"name":"isSafeMode","type":"bool","internalType":"bool"},{"name":"currentVaultState","type":"uint256","internalType":"uint256"},{"name":"currentTotalValueLocked","type":"uint256","internalType":"uint256"}],"outputs":[{"name":"","type":"uint256","internalType":"uint256"}],"stateMutability":"payable"},{"type":"function","name":"getSaving","inputs":[{"name":"nameOfSaving","type":"string","internalType":"string"}],"outputs":[{"name":"","type":"tuple","internalType":"struct ChildBitsave.SavingDataStruct","components":[{"name":"isValid","type":"bool","internalType":"bool"},{"name":"amount","type":"uint256","internalType":"uint256"},{"name":"tokenId","type":"address","internalType":"address"},{"name":"interestAccumulated","type":"uint256","internalType":"uint256"},{"name":"startTime","type":"uint256","internalType":"uint256"},{"name":"penaltyPercentage","type":"uint256","internalType":"uint256"},{"name":"maturityTime","type":"uint256","internalType":"uint256"},{"name":"isSafeMode","type":"bool","internalType":"bool"}]}],"stateMutability":"view"},{"type":"function","name":"getSavingInterest","inputs":[{"name":"nameOfSaving","type":"string","internalType":"string"}],"outputs":[{"name":"","type":"uint256","internalType":"uint256"}],"stateMutability":"view"},{"type":"function","name":"getSavingMode","inputs":[{"name":"nameOfSaving","type":"string","internalType":"string"}],"outputs":[{"name":"","type":"bool","internalType":"bool"}],"stateMutability":"view"},{"type":"function","name":"getSavingTokenId","inputs":[{"name":"nameOfSaving","type":"string","internalType":"string"}],"outputs":[{"name":"","type":"address","internalType":"address"}],"stateMutability":"view"},{"type":"function","name":"getSavingsNames","inputs":[],"outputs":[{"name":"","type":"tuple","internalType":"struct ChildBitsave.SavingsNamesObj","components":[{"name":"savingsNames","type":"string[]","internalType":"string[]"}]}],"stateMutability":"view"},{"type":"function","name":"incrementSaving","inputs":[{"name":"name","type":"string","internalType":"string"},{"name":"savingPlusAmount","type":"uint256","internalType":"uint256"},{"name":"currentVaultState","type":"uint256","internalType":"uint256"},{"name":"currentTotalValueLocked","type":"uint256","internalType":"uint256"}],"outputs":[{"name":"","type":"uint256","internalType":"uint256"}],"stateMutability":"payable"},{"type":"function","name":"ownerAddress","inputs":[],"outputs":[{"name":"","type":"address","internalType":"address"}],"stateMutability":"view"},{"type":"function","name":"savings","inputs":[{"name":"","type":"string","internalType":"string"}],"outputs":[{"name":"isValid","type":"bool","internalType":"bool"},{"name":"amount","type":"uint256","internalType":"uint256"},{"name":"tokenId","type":"address","internalType":"address"},{"name":"interestAccumulated","type":"uint256","internalType":"uint256"},{"name":"startTime","type":"uint256","internalType":"uint256"},{"name":"penaltyPercentage","type":"uint256","internalType":"uint256"},{"name":"maturityTime","type":"uint256","internalType":"uint256"},{"name":"isSafeMode","type":"bool","internalType":"bool"}],"stateMutability":"view"},{"type":"function","name":"stableCoin","inputs":[],"outputs":[{"name":"","type":"address","internalType":"contract IERC20"}],"stateMutability":"view"},{"type":"function","name":"totalPoints","inputs":[],"outputs":[{"name":"","type":"uint256","internalType":"uint256"}],"stateMutability":"view"},{"type":"function","name":"withdrawSaving","inputs":[{"name":"name","type":"string","internalType":"string"}],"outputs":[{"name":"","type":"string","internalType":"string"}],"stateMutability":"payable"},{"type":"event","name":"SavingCreated","inputs":[{"name":"nameOfSaving","type":"string","indexed":true,"internalType":"string"},{"name":"amount","type":"uint256","indexed":false,"internalType":"uint256"},{"name":"token","type":"address","indexed":false,"internalType":"address"}],"anonymous":false},{"type":"event","name":"SavingIncremented","inputs":[{"name":"nameOfSaving","type":"string","indexed":true,"internalType":"string"},{"name":"amountAdded","type":"uint256","indexed":false,"internalType":"uint256"},{"name":"totalAmountNow","type":"uint256","indexed":false,"internalType":"uint256"},{"name":"token","type":"address","indexed":false,"internalType":"address"}],"anonymous":false},{"type":"event","name":"SavingWithdrawn","inputs":[{"name":"nameOfSaving","type":"string","indexed":true,"internalType":"string"}],"anonymous":false},{"type":"event","name":"TokenWithdrawal","inputs":[{"name":"from","type":"address","indexed":true,"internalType":"address"},{"name":"to","type":"address","indexed":true,"internalType":"address"},{"name":"amount","type":"uint256","indexed":false,"internalType":"uint256"}],"anonymous":false},{"type":"error","name":"CallNotFromBitsave","inputs":[]},{"type":"error","name":"InvalidSaving","inputs":[]},{"type":"error","name":"InvalidTime","inputs":[]},{"type":"error","name":"PRBMath__MulDivFixedPointOverflow","inputs":[{"name":"prod1","type":"uint256","internalType":"uint256"}]},{"type":"error","name":"PRBMath__MulDivOverflow","inputs":[{"name":"prod1","type":"uint256","internalType":"uint256"},{"name":"denominator","type":"uint256","internalType":"uint256"}]}],"bytecode":{"object":"0x608060405260405162002c3e38038062002c3e83398181016040528101906200002991906200015c565b335f806101000a81548173ffffffffffffffffffffffffffffffffffffffff021916908373ffffffffffffffffffffffffffffffffffffffff1602179055508160025f6101000a81548173ffffffffffffffffffffffffffffffffffffffff021916908373ffffffffffffffffffffffffffffffffffffffff1602179055508060015f6101000a81548173ffffffffffffffffffffffffffffffffffffffff021916908373ffffffffffffffffffffffffffffffffffffffff1602179055505f6003819055505050620001a1565b5f80fd5b5f73ffffffffffffffffffffffffffffffffffffffff82169050919050565b5f6200012682620000fb565b9050919050565b62000138816200011a565b811462000143575f80fd5b50565b5f8151905062000156816200012d565b92915050565b5f8060408385031215620001755762000174620000f7565b5b5f620001848582860162000146565b9250506020620001978582860162000146565b9150509250929050565b612a8f80620001af5f395ff3fe6080604052600436106100c1575f3560e01c8063585dbffe1161007e578063992642e511610058578063992642e51461029a578063d1ece790146102c4578063dc2379b9146102ee578063e18f5f651461031e576100c1565b8063585dbffe146101f857806384febb69146102345780638f84aa0914610270576100c1565b806313203929146100c55780631bb862a5146101085780632ae3c90f14610144578063372f91011461016e578063436d4a6d1461019e578063567142be146101ce575b5f80fd5b3480156100d0575f80fd5b506100eb60048036038101906100e69190611bb5565b61035a565b6040516100ff989796959493929190611c6d565b60405180910390f35b348015610113575f80fd5b5061012e60048036038101906101299190611bb5565b6103ed565b60405161013b9190611ce9565b60405180910390f35b34801561014f575f80fd5b50610158610423565b6040516101659190611d22565b60405180910390f35b61018860048036038101906101839190611bb5565b610446565b6040516101959190611db5565b60405180910390f35b6101b860048036038101906101b39190611e89565b6108f3565b6040516101c59190611f69565b60405180910390f35b3480156101d9575f80fd5b506101e2610cbc565b6040516101ef9190611f69565b60405180910390f35b348015610203575f80fd5b5061021e60048036038101906102199190611bb5565b610cc2565b60405161022b919061204f565b60405180910390f35b34801561023f575f80fd5b5061025a60048036038101906102559190611bb5565b610db5565b6040516102679190611f69565b60405180910390f35b34801561027b575f80fd5b50610284610ddf565b6040516102919190612069565b60405180910390f35b3480156102a5575f80fd5b506102ae610e04565b6040516102bb91906120dd565b60405180910390f35b3480156102cf575f80fd5b506102d8610e29565b6040516102e59190612220565b60405180910390f35b61030860048036038101906103039190612240565b610f16565b6040516103159190611f69565b60405180910390f35b348015610329575f80fd5b50610344600480360381019061033f9190611bb5565b611378565b6040516103519190612069565b60405180910390f35b6004818051602081018201805184825260208301602085012081835280955050505050505f91509050805f015f9054906101000a900460ff1690806001015490806002015f9054906101000a900473ffffffffffffffffffffffffffffffffffffffff1690806003015490806004015490806005015490806006015490806007015f9054906101000a900460ff16905088565b5f6004826040516103fe91906122fa565b90815260200160405180910390206007015f9054906101000a900460ff169050919050565b5f8054906101000a900473ffffffffffffffffffffffffffffffffffffffff1681565b60605f8054906101000a900473ffffffffffffffffffffffffffffffffffffffff1673ffffffffffffffffffffffffffffffffffffffff163373ffffffffffffffffffffffffffffffffffffffff16146104cc576040517f229e1dbd00000000000000000000000000000000000000000000000000000000815260040160405180910390fd5b5f6004836040516104dd91906122fa565b90815260200160405180910390209050805f015f9054906101000a900460ff16610533576040517fd63d1e4800000000000000000000000000000000000000000000000000000000815260040160405180910390fd5b5f816001015490505f805f9054906101000a900473ffffffffffffffffffffffffffffffffffffffff169050826006015442101561059e5760648360050154606461057e919061233d565b846001015461058d9190612370565b61059791906123de565b915061059f565b5b5f836002015f9054906101000a900473ffffffffffffffffffffffffffffffffffffffff1690505f846007015f9054906101000a900460ff16156106ce576106285f8054906101000a900473ffffffffffffffffffffffffffffffffffffffff168560015f9054906101000a900473ffffffffffffffffffffffffffffffffffffffff166113c1565b508273ffffffffffffffffffffffffffffffffffffffff1663de35c372838660025f9054906101000a900473ffffffffffffffffffffffffffffffffffffffff166040518463ffffffff1660e01b81526004016106879392919061240e565b6020604051808303815f875af11580156106a3573d5f803e3d5ffd5b505050506040513d601f19601f820116820180604052508101906106c79190612457565b9050610829565b5f73ffffffffffffffffffffffffffffffffffffffff168273ffffffffffffffffffffffffffffffffffffffff16036107d6575f8060025f9054906101000a900473ffffffffffffffffffffffffffffffffffffffff1673ffffffffffffffffffffffffffffffffffffffff1686604051610748906124af565b5f6040518083038185875af1925050503d805f8114610782576040519150601f19603f3d011682016040523d82523d5f602084013e610787565b606091505b5091509150816107cc576040517f08c379a00000000000000000000000000000000000000000000000000000000081526004016107c39061250d565b60405180910390fd5b8192505050610828565b610825856002015f9054906101000a900473ffffffffffffffffffffffffffffffffffffffff1660025f9054906101000a900473ffffffffffffffffffffffffffffffffffffffff168661144b565b90505b5b80156108ea575f60048860405161084091906122fa565b90815260200160405180910390205f015f6101000a81548160ff0219169083151502179055508660405161087491906122fa565b60405180910390207f5b059b7fe1fea38d4de595079621498a365a8f1fa13e49af9f1e4b7197ab049a60405160405180910390a26040518060400160405280601e81526020017f736176696e67732077697468647261776e207375636365737366756c6c790000815250955050505050506108ee565b5f80fd5b919050565b5f805f9054906101000a900473ffffffffffffffffffffffffffffffffffffffff1673ffffffffffffffffffffffffffffffffffffffff163373ffffffffffffffffffffffffffffffffffffffff1614610979576040517f229e1dbd00000000000000000000000000000000000000000000000000000000815260040160405180910390fd5b60048a60405161098991906122fa565b90815260200160405180910390205f015f9054906101000a900460ff16156109dd576040517fd63d1e4800000000000000000000000000000000000000000000000000000000815260040160405180910390fd5b87891015610a17576040517f6f7eac2600000000000000000000000000000000000000000000000000000000815260040160405180910390fd5b42891015610a51576040517f6f7eac2600000000000000000000000000000000000000000000000000000000815260040160405180910390fd5b5f8590508415610aac57610aa65f8054906101000a900473ffffffffffffffffffffffffffffffffffffffff1660015f9054906101000a900473ffffffffffffffffffffffffffffffffffffffff168861153a565b50610b14565b5f73ffffffffffffffffffffffffffffffffffffffff168773ffffffffffffffffffffffffffffffffffffffff1614610b0f57610b095f8054906101000a900473ffffffffffffffffffffffffffffffffffffffff16888861153a565b50610b13565b3490505b5b5f610b22828c8c888861167d565b90506040518061010001604052806001151581526020018381526020018973ffffffffffffffffffffffffffffffffffffffff1681526020018281526020018b81526020018a60ff1681526020018c815260200187151581525060048d604051610b8c91906122fa565b90815260200160405180910390205f820151815f015f6101000a81548160ff021916908315150217905550602082015181600101556040820151816002015f6101000a81548173ffffffffffffffffffffffffffffffffffffffff021916908373ffffffffffffffffffffffffffffffffffffffff160217905550606082015181600301556080820151816004015560a0820151816005015560c0820151816006015560e0820151816007015f6101000a81548160ff021916908315150217905550905050610c5a8c6116a7565b8b604051610c6891906122fa565b60405180910390207f4ad85a69286191006ea05981ae1848070dbf232e5e00ffdda4b857c16097f0d7888a604051610ca192919061252b565b60405180910390a26001925050509998505050505050505050565b60035481565b610cca6119fe565b600482604051610cda91906122fa565b9081526020016040518091039020604051806101000160405290815f82015f9054906101000a900460ff1615151515815260200160018201548152602001600282015f9054906101000a900473ffffffffffffffffffffffffffffffffffffffff1673ffffffffffffffffffffffffffffffffffffffff1673ffffffffffffffffffffffffffffffffffffffff16815260200160038201548152602001600482015481526020016005820154815260200160068201548152602001600782015f9054906101000a900460ff1615151515815250509050919050565b5f600482604051610dc691906122fa565b9081526020016040518091039020600301549050919050565b60025f9054906101000a900473ffffffffffffffffffffffffffffffffffffffff1681565b60015f9054906101000a900473ffffffffffffffffffffffffffffffffffffffff1681565b610e31611a55565b60056040518060200160405290815f8201805480602002602001604051908101604052809291908181526020015f905b82821015610f09578382905f5260205f20018054610e7e9061257f565b80601f0160208091040260200160405190810160405280929190818152602001828054610eaa9061257f565b8015610ef55780601f10610ecc57610100808354040283529160200191610ef5565b820191905f5260205f20905b815481529060010190602001808311610ed857829003601f168201915b505050505081526020019060010190610e61565b5050505081525050905090565b5f805f9054906101000a900473ffffffffffffffffffffffffffffffffffffffff1673ffffffffffffffffffffffffffffffffffffffff163373ffffffffffffffffffffffffffffffffffffffff1614610f9c576040517f229e1dbd00000000000000000000000000000000000000000000000000000000815260040160405180910390fd5b5f600486604051610fad91906122fa565b90815260200160405180910390209050805f015f9054906101000a900460ff16611003576040517fd63d1e4800000000000000000000000000000000000000000000000000000000815260040160405180910390fd5b8060060154421115611041576040517f6f7eac2600000000000000000000000000000000000000000000000000000000815260040160405180910390fd5b5f8073ffffffffffffffffffffffffffffffffffffffff16826002015f9054906101000a900473ffffffffffffffffffffffffffffffffffffffff1673ffffffffffffffffffffffffffffffffffffffff16149050816007015f9054906101000a900460ff16156110fd576110f75f8054906101000a900473ffffffffffffffffffffffffffffffffffffffff1660015f9054906101000a900473ffffffffffffffffffffffffffffffffffffffff168861153a565b5061119d565b806111555761114f5f8054906101000a900473ffffffffffffffffffffffffffffffffffffffff16836002015f9054906101000a900473ffffffffffffffffffffffffffffffffffffffff168861153a565b5061119c565b85341015611198576040517f08c379a000000000000000000000000000000000000000000000000000000000815260040161118f9061261f565b60405180910390fd5b3495505b5b5f6111af87846006015442898961167d565b90508083600301546111c1919061263d565b83600301819055508683600101546111d9919061263d565b8360010181905550826004896040516111f291906122fa565b90815260200160405180910390205f82015f9054906101000a900460ff16815f015f6101000a81548160ff02191690831515021790555060018201548160010155600282015f9054906101000a900473ffffffffffffffffffffffffffffffffffffffff16816002015f6101000a81548173ffffffffffffffffffffffffffffffffffffffff021916908373ffffffffffffffffffffffffffffffffffffffff16021790555060038201548160030155600482015481600401556005820154816005015560068201548160060155600782015f9054906101000a900460ff16816007015f6101000a81548160ff021916908315150217905550905050876040516112fc91906122fa565b60405180910390207ff6b98d8e0d83f8b1d1ff03a2fa36aba2c77ccf20e4ff035c0cf4aa92762e9eec888560010154866002015f9054906101000a900473ffffffffffffffffffffffffffffffffffffffff1660405161135e93929190612670565b60405180910390a282600301549350505050949350505050565b5f60048260405161138991906122fa565b90815260200160405180910390206002015f9054906101000a900473ffffffffffffffffffffffffffffffffffffffff169050919050565b5f808290508073ffffffffffffffffffffffffffffffffffffffff1663095ea7b386866040518363ffffffff1660e01b81526004016114019291906126a5565b6020604051808303815f875af115801561141d573d5f803e3d5ffd5b505050506040513d601f19601f820116820180604052508101906114419190612457565b9150509392505050565b5f808490508073ffffffffffffffffffffffffffffffffffffffff1663a9059cbb85856040518363ffffffff1660e01b815260040161148b9291906126a5565b6020604051808303815f875af11580156114a7573d5f803e3d5ffd5b505050506040513d601f19601f820116820180604052508101906114cb9190612457565b91508373ffffffffffffffffffffffffffffffffffffffff163073ffffffffffffffffffffffffffffffffffffffff167f42856d0378dde02337bb59ae41747abc77ded8ebdbbc5cbdd1e53693b75549388560405161152a9190611f69565b60405180910390a3509392505050565b5f818373ffffffffffffffffffffffffffffffffffffffff1663dd62ed3e86306040518363ffffffff1660e01b81526004016115779291906126cc565b602060405180830381865afa158015611592573d5f803e3d5ffd5b505050506040513d601f19601f820116820180604052508101906115b69190612707565b10156115f7576040517f08c379a00000000000000000000000000000000000000000000000000000000081526004016115ee9061277c565b60405180910390fd5b8273ffffffffffffffffffffffffffffffffffffffff166323b872dd8530856040518463ffffffff1660e01b81526004016116349392919061279a565b6020604051808303815f875af1158015611650573d5f803e3d5ffd5b505050506040513d601f19601f820116820180604052508101906116749190612457565b90509392505050565b5f61169586858761168e919061233d565b85856116de565b90508060038190555095945050505050565b60055f0181908060018154018082558091505060019003905f5260205f20015f9091909190915090816116da9190612963565b5050565b5f806117146064611706868762e4e1c06116f8919061233d565b6117a890919063ffffffff16565b6117c490919063ffffffff16565b90505f61173984836117269190612370565b6305f5e1006117a890919063ffffffff16565b90505f6117536301e13380886117a890919063ffffffff16565b905061179b611796683635c9adc5dea0000060646117719190612370565b83858c61177e9190612370565b6117889190612370565b6117a890919063ffffffff16565b6117d7565b9350505050949350505050565b5f6117bc83670de0b6b3a7640000846117f8565b905092915050565b5f6117cf8383611906565b905092915050565b5f670de0b6b3a764000082816117f0576117ef6123b1565b5b049050919050565b5f805f80198587098587029250828110838203039150505f810361183057838281611826576118256123b1565b5b04925050506118ff565b8381106118765780846040517f773cc18c00000000000000000000000000000000000000000000000000000000815260040161186d929190612a32565b60405180910390fd5b5f8486880990508281118203915080830392505f60018619018616905080860495508084049350600181825f0304019050808302841793505f600287600302189050808702600203810290508087026002038102905080870260020381029050808702600203810290508087026002038102905080870260020381029050808502955050505050505b9392505050565b5f805f8019848609848602925082811083820303915050670de0b6b3a7640000811061196957806040517fd31b34020000000000000000000000000000000000000000000000000000000081526004016119609190611f69565b60405180910390fd5b5f80670de0b6b3a764000086880991506706f05b59d3b1ffff821190505f83036119b35780670de0b6b3a764000085816119a6576119a56123b1565b5b04019450505050506119f8565b807faccb18165bd6fe31ae1cf318dc5b51eee0e1ba569b88cd74c1773b91fac10669600162040000805f03040186851186030262040000858803041702019450505050505b92915050565b6040518061010001604052805f151581526020015f81526020015f73ffffffffffffffffffffffffffffffffffffffff1681526020015f81526020015f81526020015f81526020015f81526020015f151581525090565b6040518060200160405280606081525090565b5f604051905090565b5f80fd5b5f80fd5b5f80fd5b5f80fd5b5f601f19601f8301169050919050565b7f4e487b71000000000000000000000000000000000000000000000000000000005f52604160045260245ffd5b611ac782611a81565b810181811067ffffffffffffffff82111715611ae657611ae5611a91565b5b80604052505050565b5f611af8611a68565b9050611b048282611abe565b919050565b5f67ffffffffffffffff821115611b2357611b22611a91565b5b611b2c82611a81565b9050602081019050919050565b828183375f83830152505050565b5f611b59611b5484611b09565b611aef565b905082815260208101848484011115611b7557611b74611a7d565b5b611b80848285611b39565b509392505050565b5f82601f830112611b9c57611b9b611a79565b5b8135611bac848260208601611b47565b91505092915050565b5f60208284031215611bca57611bc9611a71565b5b5f82013567ffffffffffffffff811115611be757611be6611a75565b5b611bf384828501611b88565b91505092915050565b5f8115159050919050565b611c1081611bfc565b82525050565b5f819050919050565b611c2881611c16565b82525050565b5f73ffffffffffffffffffffffffffffffffffffffff82169050919050565b5f611c5782611c2e565b9050919050565b611c6781611c4d565b82525050565b5f61010082019050611c815f83018b611c07565b611c8e602083018a611c1f565b611c9b6040830189611c5e565b611ca86060830188611c1f565b611cb56080830187611c1f565b611cc260a0830186611c1f565b611ccf60c0830185611c1f565b611cdc60e0830184611c07565b9998505050505050505050565b5f602082019050611cfc5f830184611c07565b92915050565b5f611d0c82611c2e565b9050919050565b611d1c81611d02565b82525050565b5f602082019050611d355f830184611d13565b92915050565b5f81519050919050565b5f82825260208201905092915050565b5f5b83811015611d72578082015181840152602081019050611d57565b5f8484015250505050565b5f611d8782611d3b565b611d918185611d45565b9350611da1818560208601611d55565b611daa81611a81565b840191505092915050565b5f6020820190508181035f830152611dcd8184611d7d565b905092915050565b611dde81611c16565b8114611de8575f80fd5b50565b5f81359050611df981611dd5565b92915050565b5f60ff82169050919050565b611e1481611dff565b8114611e1e575f80fd5b50565b5f81359050611e2f81611e0b565b92915050565b611e3e81611c4d565b8114611e48575f80fd5b50565b5f81359050611e5981611e35565b92915050565b611e6881611bfc565b8114611e72575f80fd5b50565b5f81359050611e8381611e5f565b92915050565b5f805f805f805f805f6101208a8c031215611ea757611ea6611a71565b5b5f8a013567ffffffffffffffff811115611ec457611ec3611a75565b5b611ed08c828d01611b88565b9950506020611ee18c828d01611deb565b9850506040611ef28c828d01611deb565b9750506060611f038c828d01611e21565b9650506080611f148c828d01611e4b565b95505060a0611f258c828d01611deb565b94505060c0611f368c828d01611e75565b93505060e0611f478c828d01611deb565b925050610100611f598c828d01611deb565b9150509295985092959850929598565b5f602082019050611f7c5f830184611c1f565b92915050565b611f8b81611bfc565b82525050565b611f9a81611c16565b82525050565b611fa981611c4d565b82525050565b61010082015f820151611fc45f850182611f82565b506020820151611fd76020850182611f91565b506040820151611fea6040850182611fa0565b506060820151611ffd6060850182611f91565b5060808201516120106080850182611f91565b5060a082015161202360a0850182611f91565b5060c082015161203660c0850182611f91565b5060e082015161204960e0850182611f82565b50505050565b5f610100820190506120635f830184611faf565b92915050565b5f60208201905061207c5f830184611c5e565b92915050565b5f819050919050565b5f6120a56120a061209b84611c2e565b612082565b611c2e565b9050919050565b5f6120b68261208b565b9050919050565b5f6120c7826120ac565b9050919050565b6120d7816120bd565b82525050565b5f6020820190506120f05f8301846120ce565b92915050565b5f81519050919050565b5f82825260208201905092915050565b5f819050602082019050919050565b5f82825260208201905092915050565b5f61213982611d3b565b612143818561211f565b9350612153818560208601611d55565b61215c81611a81565b840191505092915050565b5f612172838361212f565b905092915050565b5f602082019050919050565b5f612190826120f6565b61219a8185612100565b9350836020820285016121ac85612110565b805f5b858110156121e757848403895281516121c88582612167565b94506121d38361217a565b925060208a019950506001810190506121af565b50829750879550505050505092915050565b5f602083015f8301518482035f8601526122138282612186565b9150508091505092915050565b5f6020820190508181035f83015261223881846121f9565b905092915050565b5f805f806080858703121561225857612257611a71565b5b5f85013567ffffffffffffffff81111561227557612274611a75565b5b61228187828801611b88565b945050602061229287828801611deb565b93505060406122a387828801611deb565b92505060606122b487828801611deb565b91505092959194509250565b5f81905092915050565b5f6122d482611d3b565b6122de81856122c0565b93506122ee818560208601611d55565b80840191505092915050565b5f61230582846122ca565b915081905092915050565b7f4e487b71000000000000000000000000000000000000000000000000000000005f52601160045260245ffd5b5f61234782611c16565b915061235283611c16565b925082820390508181111561236a57612369612310565b5b92915050565b5f61237a82611c16565b915061238583611c16565b925082820261239381611c16565b915082820484148315176123aa576123a9612310565b5b5092915050565b7f4e487b71000000000000000000000000000000000000000000000000000000005f52601260045260245ffd5b5f6123e882611c16565b91506123f383611c16565b925082612403576124026123b1565b5b828204905092915050565b5f6060820190506124215f830186611c5e565b61242e6020830185611c1f565b61243b6040830184611c5e565b949350505050565b5f8151905061245181611e5f565b92915050565b5f6020828403121561246c5761246b611a71565b5b5f61247984828501612443565b91505092915050565b5f81905092915050565b50565b5f61249a5f83612482565b91506124a58261248c565b5f82019050919050565b5f6124b98261248f565b9150819050919050565b7f436f756c646e27742073656e642066756e6473000000000000000000000000005f82015250565b5f6124f7601383611d45565b9150612502826124c3565b602082019050919050565b5f6020820190508181035f830152612524816124eb565b9050919050565b5f60408201905061253e5f830185611c1f565b61254b6020830184611c5e565b9392505050565b7f4e487b71000000000000000000000000000000000000000000000000000000005f52602260045260245ffd5b5f600282049050600182168061259657607f821691505b6020821081036125a9576125a8612552565b5b50919050565b7f496e76616c696420736176696e6720696e6372656d656e742076616c756520735f8201527f656e740000000000000000000000000000000000000000000000000000000000602082015250565b5f612609602383611d45565b9150612614826125af565b604082019050919050565b5f6020820190508181035f830152612636816125fd565b9050919050565b5f61264782611c16565b915061265283611c16565b925082820190508082111561266a57612669612310565b5b92915050565b5f6060820190506126835f830186611c1f565b6126906020830185611c1f565b61269d6040830184611c5e565b949350505050565b5f6040820190506126b85f830185611c5e565b6126c56020830184611c1f565b9392505050565b5f6040820190506126df5f830185611c5e565b6126ec6020830184611c5e565b9392505050565b5f8151905061270181611dd5565b92915050565b5f6020828403121561271c5761271b611a71565b5b5f612729848285016126f3565b91505092915050565b7f546f6b656e20636f756c64206e6f742062652077697468647261776e000000005f82015250565b5f612766601c83611d45565b915061277182612732565b602082019050919050565b5f6020820190508181035f8301526127938161275a565b9050919050565b5f6060820190506127ad5f830186611c5e565b6127ba6020830185611c5e565b6127c76040830184611c1f565b949350505050565b5f819050815f5260205f209050919050565b5f6020601f8301049050919050565b5f82821b905092915050565b5f6008830261282b7fffffffffffffffffffffffffffffffffffffffffffffffffffffffffffffffff826127f0565b61283586836127f0565b95508019841693508086168417925050509392505050565b5f61286761286261285d84611c16565b612082565b611c16565b9050919050565b5f819050919050565b6128808361284d565b61289461288c8261286e565b8484546127fc565b825550505050565b5f90565b6128a861289c565b6128b3818484612877565b505050565b5b818110156128d6576128cb5f826128a0565b6001810190506128b9565b5050565b601f82111561291b576128ec816127cf565b6128f5846127e1565b81016020851015612904578190505b612918612910856127e1565b8301826128b8565b50505b505050565b5f82821c905092915050565b5f61293b5f1984600802612920565b1980831691505092915050565b5f612953838361292c565b9150826002028217905092915050565b61296c82611d3b565b67ffffffffffffffff81111561298557612984611a91565b5b61298f825461257f565b61299a8282856128da565b5f60209050601f8311600181146129cb575f84156129b9578287015190505b6129c38582612948565b865550612a2a565b601f1984166129d9866127cf565b5f5b82811015612a00578489015182556001820191506020850194506020810190506129db565b86831015612a1d5784890151612a19601f89168261292c565b8355505b6001600288020188555050505b505050505050565b5f604082019050612a455f830185611c1f565b612a526020830184611c1f565b939250505056fea2646970667358221220e0ca9a1679c27488efd2385463b74c225a81814773373ad9221dc077c854ae8b64736f6c63430008170033","linkReferences":{}},"methodIdentifiers":{"bitsaveAddress()":"2ae3c90f","createSaving(string,uint256,uint256,uint8,address,uint256,bool,uint256,uint256)":"436d4a6d","getSaving(string)":"585dbffe","getSavingInterest(string)":"84febb69","getSavingMode(string)":"1bb862a5","getSavingTokenId(string)":"e18f5f65","getSavingsNames()":"d1ece790","incrementSaving(string,uint256,uint256,uint256)":"dc2379b9","ownerAddress()":"8f84aa09","savings(string)":"13203929","stableCoin()":"992642e5","totalPoints()":"567142be","withdrawSaving(string)":"372f9101"},"id":35}