{"abi":[{"type":"constructor","inputs":[{"name":"_ownerAddress","type":"address","internalType":"address"},{"name":"_stableCoin","type":"address","internalType":"address"}],"stateMutability":"payable"},{"type":"function","name":"bitsaveAddress","inputs":[],"outputs":[{"name":"","type":"address","internalType":"address payable"}],"stateMutability":"view"},{"type":"function","name":"createSaving","inputs":[{"name":"name","type":"string","internalType":"string"},{"name":"maturityTime","type":"uint256","internalType":"uint256"},{"name":"startTime","type":"uint256","internalType":"uint256"},{"name":"penaltyPercentage","type":"uint8","internalType":"uint8"},{"name":"tokenId","type":"address","internalType":"address"},{"name":"amountToRetrieve","type":"uint256","internalType":"uint256"},{"name":"isSafeMode","type":"bool","internalType":"bool"},{"name":"currentVaultState","type":"uint256","internalType":"uint256"},{"name":"currentTotalValueLocked","type":"uint256","internalType":"uint256"}],"outputs":[{"name":"","type":"uint256","internalType":"uint256"}],"stateMutability":"payable"},{"type":"function","name":"getSaving","inputs":[{"name":"nameOfSaving","type":"string","internalType":"string"}],"outputs":[{"name":"","type":"tuple","internalType":"struct ChildBitsave.SavingDataStruct","components":[{"name":"isValid","type":"bool","internalType":"bool"},{"name":"amount","type":"uint256","internalType":"uint256"},{"name":"tokenId","type":"address","internalType":"address"},{"name":"interestAccumulated","type":"uint256","internalType":"uint256"},{"name":"startTime","type":"uint256","internalType":"uint256"},{"name":"penaltyPercentage","type":"uint256","internalType":"uint256"},{"name":"maturityTime","type":"uint256","internalType":"uint256"},{"name":"isSafeMode","type":"bool","internalType":"bool"}]}],"stateMutability":"view"},{"type":"function","name":"getSavingBalance","inputs":[{"name":"nameOfSaving","type":"string","internalType":"string"}],"outputs":[{"name":"","type":"uint256","internalType":"uint256"}],"stateMutability":"view"},{"type":"function","name":"getSavingInterest","inputs":[{"name":"nameOfSaving","type":"string","internalType":"string"}],"outputs":[{"name":"","type":"uint256","internalType":"uint256"}],"stateMutability":"view"},{"type":"function","name":"getSavingMode","inputs":[{"name":"nameOfSaving","type":"string","internalType":"string"}],"outputs":[{"name":"","type":"bool","internalType":"bool"}],"stateMutability":"view"},{"type":"function","name":"getSavingTokenId","inputs":[{"name":"nameOfSaving","type":"string","internalType":"string"}],"outputs":[{"name":"","type":"address","internalType":"address"}],"stateMutability":"view"},{"type":"function","name":"getSavingsNames","inputs":[],"outputs":[{"name":"","type":"tuple","internalType":"struct ChildBitsave.SavingsNamesObj","components":[{"name":"savingsNames","type":"string[]","internalType":"string[]"}]}],"stateMutability":"view"},{"type":"function","name":"incrementSaving","inputs":[{"name":"name","type":"string","internalType":"string"},{"name":"savingPlusAmount","type":"uint256","internalType":"uint256"},{"name":"currentVaultState","type":"uint256","internalType":"uint256"},{"name":"currentTotalValueLocked","type":"uint256","internalType":"uint256"}],"outputs":[{"name":"","type":"uint256","internalType":"uint256"}],"stateMutability":"payable"},{"type":"function","name":"ownerAddress","inputs":[],"outputs":[{"name":"","type":"address","internalType":"address"}],"stateMutability":"view"},{"type":"function","name":"savings","inputs":[{"name":"","type":"string","internalType":"string"}],"outputs":[{"name":"isValid","type":"bool","internalType":"bool"},{"name":"amount","type":"uint256","internalType":"uint256"},{"name":"tokenId","type":"address","internalType":"address"},{"name":"interestAccumulated","type":"uint256","internalType":"uint256"},{"name":"startTime","type":"uint256","internalType":"uint256"},{"name":"penaltyPercentage","type":"uint256","internalType":"uint256"},{"name":"maturityTime","type":"uint256","internalType":"uint256"},{"name":"isSafeMode","type":"bool","internalType":"bool"}],"stateMutability":"view"},{"type":"function","name":"stableCoin","inputs":[],"outputs":[{"name":"","type":"address","internalType":"contract IERC20"}],"stateMutability":"view"},{"type":"function","name":"totalPoints","inputs":[],"outputs":[{"name":"","type":"uint256","internalType":"uint256"}],"stateMutability":"view"},{"type":"function","name":"withdrawSaving","inputs":[{"name":"name","type":"string","internalType":"string"}],"outputs":[{"name":"","type":"string","internalType":"string"}],"stateMutability":"payable"},{"type":"event","name":"SavingCreated","inputs":[{"name":"nameOfSaving","type":"string","indexed":true,"internalType":"string"},{"name":"amount","type":"uint256","indexed":false,"internalType":"uint256"},{"name":"token","type":"address","indexed":false,"internalType":"address"}],"anonymous":false},{"type":"event","name":"SavingIncremented","inputs":[{"name":"nameOfSaving","type":"string","indexed":true,"internalType":"string"},{"name":"amountAdded","type":"uint256","indexed":false,"internalType":"uint256"},{"name":"totalAmountNow","type":"uint256","indexed":false,"internalType":"uint256"},{"name":"token","type":"address","indexed":false,"internalType":"address"}],"anonymous":false},{"type":"event","name":"SavingWithdrawn","inputs":[{"name":"nameOfSaving","type":"string","indexed":true,"internalType":"string"}],"anonymous":false},{"type":"event","name":"TokenWithdrawal","inputs":[{"name":"from","type":"address","indexed":true,"internalType":"address"},{"name":"to","type":"address","indexed":true,"internalType":"address"},{"name":"amount","type":"uint256","indexed":false,"internalType":"uint256"}],"anonymous":false},{"type":"error","name":"CallNotFromBitsave","inputs":[]},{"type":"error","name":"CanNotWithdrawToken","inputs":[{"name":"","type":"address","internalType":"address"}]},{"type":"error","name":"InvalidSaving","inputs":[]},{"type":"error","name":"InvalidTime","inputs":[]},{"type":"error","name":"PRBMath__MulDivFixedPointOverflow","inputs":[{"name":"prod1","type":"uint256","internalType":"uint256"}]},{"type":"error","name":"PRBMath__MulDivOverflow","inputs":[{"name":"prod1","type":"uint256","internalType":"uint256"},{"name":"denominator","type":"uint256","internalType":"uint256"}]}],"bytecode":{"object":"0x6080604052604051612ce0380380612ce083398181016040528101906100259190610150565b335f5f6101000a81548173ffffffffffffffffffffffffffffffffffffffff021916908373ffffffffffffffffffffffffffffffffffffffff1602179055508160025f6101000a81548173ffffffffffffffffffffffffffffffffffffffff021916908373ffffffffffffffffffffffffffffffffffffffff1602179055508060015f6101000a81548173ffffffffffffffffffffffffffffffffffffffff021916908373ffffffffffffffffffffffffffffffffffffffff1602179055505f600381905550505061018e565b5f5ffd5b5f73ffffffffffffffffffffffffffffffffffffffff82169050919050565b5f61011f826100f6565b9050919050565b61012f81610115565b8114610139575f5ffd5b50565b5f8151905061014a81610126565b92915050565b5f5f60408385031215610166576101656100f2565b5b5f6101738582860161013c565b92505060206101848582860161013c565b9150509250929050565b612b458061019b5f395ff3fe6080604052600436106100dc575f3560e01c806384febb691161007e578063d1ece79011610058578063d1ece790146102df578063dc2379b914610309578063e0ea6d4014610339578063e18f5f6514610375576100dc565b806384febb691461024f5780638f84aa091461028b578063992642e5146102b5576100dc565b8063372f9101116100ba578063372f910114610189578063436d4a6d146101b9578063567142be146101e9578063585dbffe14610213576100dc565b806313203929146100e05780631bb862a5146101235780632ae3c90f1461015f575b5f5ffd5b3480156100eb575f5ffd5b5061010660048036038101906101019190611cea565b6103b1565b60405161011a989796959493929190611da2565b60405180910390f35b34801561012e575f5ffd5b5061014960048036038101906101449190611cea565b610444565b6040516101569190611e1e565b60405180910390f35b34801561016a575f5ffd5b5061017361047a565b6040516101809190611e57565b60405180910390f35b6101a3600480360381019061019e9190611cea565b61049e565b6040516101b09190611ed0565b60405180910390f35b6101d360048036038101906101ce9190611fa4565b6109e5565b6040516101e09190612084565b60405180910390f35b3480156101f4575f5ffd5b506101fd610db0565b60405161020a9190612084565b60405180910390f35b34801561021e575f5ffd5b5061023960048036038101906102349190611cea565b610db6565b604051610246919061216a565b60405180910390f35b34801561025a575f5ffd5b5061027560048036038101906102709190611cea565b610ea9565b6040516102829190612084565b60405180910390f35b348015610296575f5ffd5b5061029f610ed3565b6040516102ac9190612184565b60405180910390f35b3480156102c0575f5ffd5b506102c9610ef8565b6040516102d691906121f8565b60405180910390f35b3480156102ea575f5ffd5b506102f3610f1d565b604051610300919061233b565b60405180910390f35b610323600480360381019061031e919061235b565b61100a565b6040516103309190612084565b60405180910390f35b348015610344575f5ffd5b5061035f600480360381019061035a9190611cea565b61146e565b60405161036c9190612084565b60405180910390f35b348015610380575f5ffd5b5061039b60048036038101906103969190611cea565b611498565b6040516103a89190612184565b60405180910390f35b6004818051602081018201805184825260208301602085012081835280955050505050505f91509050805f015f9054906101000a900460ff1690806001015490806002015f9054906101000a900473ffffffffffffffffffffffffffffffffffffffff1690806003015490806004015490806005015490806006015490806007015f9054906101000a900460ff16905088565b5f6004826040516104559190612415565b90815260200160405180910390206007015f9054906101000a900460ff169050919050565b5f5f9054906101000a900473ffffffffffffffffffffffffffffffffffffffff1681565b60605f5f9054906101000a900473ffffffffffffffffffffffffffffffffffffffff1673ffffffffffffffffffffffffffffffffffffffff163373ffffffffffffffffffffffffffffffffffffffff1614610525576040517f229e1dbd00000000000000000000000000000000000000000000000000000000815260040160405180910390fd5b5f6004836040516105369190612415565b90815260200160405180910390209050805f015f9054906101000a900460ff1661058c576040517fd63d1e4800000000000000000000000000000000000000000000000000000000815260040160405180910390fd5b5f816001015490505f5f5f9054906101000a900473ffffffffffffffffffffffffffffffffffffffff1690508260060154421015610655576064836005015460646105d79190612458565b84600101546105e6919061248b565b6105f091906124f9565b915061064f836002015f9054906101000a900473ffffffffffffffffffffffffffffffffffffffff165f5f9054906101000a900473ffffffffffffffffffffffffffffffffffffffff1684866001015461064a9190612458565b6114e1565b50610656565b5b5f6004866040516106679190612415565b90815260200160405180910390205f015f6101000a81548160ff0219169083151502179055505f836002015f9054906101000a900473ffffffffffffffffffffffffffffffffffffffff1690505f5f9050846007015f9054906101000a900460ff16156107c05761071a5f5f9054906101000a900473ffffffffffffffffffffffffffffffffffffffff168560015f9054906101000a900473ffffffffffffffffffffffffffffffffffffffff166115d0565b508273ffffffffffffffffffffffffffffffffffffffff1663de35c372838660025f9054906101000a900473ffffffffffffffffffffffffffffffffffffffff166040518463ffffffff1660e01b815260040161077993929190612529565b6020604051808303815f875af1158015610795573d5f5f3e3d5ffd5b505050506040513d601f19601f820116820180604052508101906107b99190612572565b905061091b565b5f73ffffffffffffffffffffffffffffffffffffffff168273ffffffffffffffffffffffffffffffffffffffff16036108c8575f5f60025f9054906101000a900473ffffffffffffffffffffffffffffffffffffffff1673ffffffffffffffffffffffffffffffffffffffff168660405161083a906125ca565b5f6040518083038185875af1925050503d805f8114610874576040519150601f19603f3d011682016040523d82523d5f602084013e610879565b606091505b5091509150816108be576040517f08c379a00000000000000000000000000000000000000000000000000000000081526004016108b590612628565b60405180910390fd5b819250505061091a565b610917856002015f9054906101000a900473ffffffffffffffffffffffffffffffffffffffff1660025f9054906101000a900473ffffffffffffffffffffffffffffffffffffffff16866114e1565b90505b5b80156109dc575f6004886040516109329190612415565b90815260200160405180910390205f015f6101000a81548160ff021916908315150217905550866040516109669190612415565b60405180910390207f5b059b7fe1fea38d4de595079621498a365a8f1fa13e49af9f1e4b7197ab049a60405160405180910390a26040518060400160405280601e81526020017f736176696e67732077697468647261776e207375636365737366756c6c790000815250955050505050506109e0565b5f5ffd5b919050565b5f5f5f9054906101000a900473ffffffffffffffffffffffffffffffffffffffff1673ffffffffffffffffffffffffffffffffffffffff163373ffffffffffffffffffffffffffffffffffffffff1614610a6b576040517f229e1dbd00000000000000000000000000000000000000000000000000000000815260040160405180910390fd5b60048a604051610a7b9190612415565b90815260200160405180910390205f015f9054906101000a900460ff1615610acf576040517fd63d1e4800000000000000000000000000000000000000000000000000000000815260040160405180910390fd5b87891015610b09576040517f6f7eac2600000000000000000000000000000000000000000000000000000000815260040160405180910390fd5b42891015610b43576040517f6f7eac2600000000000000000000000000000000000000000000000000000000815260040160405180910390fd5b5f8590508415610b9f57610b995f5f9054906101000a900473ffffffffffffffffffffffffffffffffffffffff1660015f9054906101000a900473ffffffffffffffffffffffffffffffffffffffff168861165a565b50610c08565b5f73ffffffffffffffffffffffffffffffffffffffff168773ffffffffffffffffffffffffffffffffffffffff1614610c0357610bfd5f5f9054906101000a900473ffffffffffffffffffffffffffffffffffffffff16888861165a565b50610c07565b3490505b5b5f610c16828c8c88886117a1565b90506040518061010001604052806001151581526020018381526020018973ffffffffffffffffffffffffffffffffffffffff1681526020018281526020018b81526020018a60ff1681526020018c815260200187151581525060048d604051610c809190612415565b90815260200160405180910390205f820151815f015f6101000a81548160ff021916908315150217905550602082015181600101556040820151816002015f6101000a81548173ffffffffffffffffffffffffffffffffffffffff021916908373ffffffffffffffffffffffffffffffffffffffff160217905550606082015181600301556080820151816004015560a0820151816005015560c0820151816006015560e0820151816007015f6101000a81548160ff021916908315150217905550905050610d4e8c6117dc565b8b604051610d5c9190612415565b60405180910390207f4ad85a69286191006ea05981ae1848070dbf232e5e00ffdda4b857c16097f0d7888a604051610d95929190612646565b60405180910390a26001925050509998505050505050505050565b60035481565b610dbe611b33565b600482604051610dce9190612415565b9081526020016040518091039020604051806101000160405290815f82015f9054906101000a900460ff1615151515815260200160018201548152602001600282015f9054906101000a900473ffffffffffffffffffffffffffffffffffffffff1673ffffffffffffffffffffffffffffffffffffffff1673ffffffffffffffffffffffffffffffffffffffff16815260200160038201548152602001600482015481526020016005820154815260200160068201548152602001600782015f9054906101000a900460ff1615151515815250509050919050565b5f600482604051610eba9190612415565b9081526020016040518091039020600301549050919050565b60025f9054906101000a900473ffffffffffffffffffffffffffffffffffffffff1681565b60015f9054906101000a900473ffffffffffffffffffffffffffffffffffffffff1681565b610f25611b8a565b60056040518060200160405290815f8201805480602002602001604051908101604052809291908181526020015f905b82821015610ffd578382905f5260205f20018054610f729061269a565b80601f0160208091040260200160405190810160405280929190818152602001828054610f9e9061269a565b8015610fe95780601f10610fc057610100808354040283529160200191610fe9565b820191905f5260205f20905b815481529060010190602001808311610fcc57829003601f168201915b505050505081526020019060010190610f55565b5050505081525050905090565b5f5f5f9054906101000a900473ffffffffffffffffffffffffffffffffffffffff1673ffffffffffffffffffffffffffffffffffffffff163373ffffffffffffffffffffffffffffffffffffffff1614611090576040517f229e1dbd00000000000000000000000000000000000000000000000000000000815260040160405180910390fd5b5f6004866040516110a19190612415565b90815260200160405180910390209050805f015f9054906101000a900460ff166110f7576040517fd63d1e4800000000000000000000000000000000000000000000000000000000815260040160405180910390fd5b8060060154421115611135576040517f6f7eac2600000000000000000000000000000000000000000000000000000000815260040160405180910390fd5b5f5f73ffffffffffffffffffffffffffffffffffffffff16826002015f9054906101000a900473ffffffffffffffffffffffffffffffffffffffff1673ffffffffffffffffffffffffffffffffffffffff16149050816007015f9054906101000a900460ff16156111f2576111ec5f5f9054906101000a900473ffffffffffffffffffffffffffffffffffffffff1660015f9054906101000a900473ffffffffffffffffffffffffffffffffffffffff168861165a565b50611293565b8061124b576112455f5f9054906101000a900473ffffffffffffffffffffffffffffffffffffffff16836002015f9054906101000a900473ffffffffffffffffffffffffffffffffffffffff168861165a565b50611292565b8534101561128e576040517f08c379a00000000000000000000000000000000000000000000000000000000081526004016112859061273a565b60405180910390fd5b3495505b5b5f6112a58784600601544289896117a1565b90508083600301546112b79190612758565b83600301819055508683600101546112cf9190612758565b8360010181905550826004896040516112e89190612415565b90815260200160405180910390205f82015f9054906101000a900460ff16815f015f6101000a81548160ff02191690831515021790555060018201548160010155600282015f9054906101000a900473ffffffffffffffffffffffffffffffffffffffff16816002015f6101000a81548173ffffffffffffffffffffffffffffffffffffffff021916908373ffffffffffffffffffffffffffffffffffffffff16021790555060038201548160030155600482015481600401556005820154816005015560068201548160060155600782015f9054906101000a900460ff16816007015f6101000a81548160ff021916908315150217905550905050876040516113f29190612415565b60405180910390207ff6b98d8e0d83f8b1d1ff03a2fa36aba2c77ccf20e4ff035c0cf4aa92762e9eec888560010154866002015f9054906101000a900473ffffffffffffffffffffffffffffffffffffffff166040516114549392919061278b565b60405180910390a282600301549350505050949350505050565b5f60048260405161147f9190612415565b9081526020016040518091039020600101549050919050565b5f6004826040516114a99190612415565b90815260200160405180910390206002015f9054906101000a900473ffffffffffffffffffffffffffffffffffffffff169050919050565b5f5f8490508073ffffffffffffffffffffffffffffffffffffffff1663a9059cbb85856040518363ffffffff1660e01b81526004016115219291906127c0565b6020604051808303815f875af115801561153d573d5f5f3e3d5ffd5b505050506040513d601f19601f820116820180604052508101906115619190612572565b91508373ffffffffffffffffffffffffffffffffffffffff163073ffffffffffffffffffffffffffffffffffffffff167f42856d0378dde02337bb59ae41747abc77ded8ebdbbc5cbdd1e53693b7554938856040516115c09190612084565b60405180910390a3509392505050565b5f5f8290508073ffffffffffffffffffffffffffffffffffffffff1663095ea7b386866040518363ffffffff1660e01b81526004016116109291906127c0565b6020604051808303815f875af115801561162c573d5f5f3e3d5ffd5b505050506040513d601f19601f820116820180604052508101906116509190612572565b9150509392505050565b5f818373ffffffffffffffffffffffffffffffffffffffff1663dd62ed3e86306040518363ffffffff1660e01b81526004016116979291906127e7565b602060405180830381865afa1580156116b2573d5f5f3e3d5ffd5b505050506040513d601f19601f820116820180604052508101906116d69190612822565b1015839061171a576040517fa3adb6570000000000000000000000000000000000000000000000000000000081526004016117119190612184565b60405180910390fd5b508273ffffffffffffffffffffffffffffffffffffffff166323b872dd8530856040518463ffffffff1660e01b81526004016117589392919061284d565b6020604051808303815f875af1158015611774573d5f5f3e3d5ffd5b505050506040513d601f19601f820116820180604052508101906117989190612572565b90509392505050565b5f6117b98685876117b29190612458565b8585611813565b90508060035f8282546117cc9190612758565b9250508190555095945050505050565b60055f0181908060018154018082558091505060019003905f5260205f20015f90919091909150908161180f9190612a19565b5050565b5f5f611849606461183b868762e4e1c061182d9190612458565b6118dd90919063ffffffff16565b6118f990919063ffffffff16565b90505f61186e848361185b919061248b565b6305f5e1006118dd90919063ffffffff16565b90505f6118886301e13380886118dd90919063ffffffff16565b90506118d06118cb683635c9adc5dea0000060646118a6919061248b565b83858c6118b3919061248b565b6118bd919061248b565b6118dd90919063ffffffff16565b61190c565b9350505050949350505050565b5f6118f183670de0b6b3a76400008461192d565b905092915050565b5f6119048383611a3b565b905092915050565b5f670de0b6b3a76400008281611925576119246124cc565b5b049050919050565b5f5f5f5f198587098587029250828110838203039150505f81036119655783828161195b5761195a6124cc565b5b0492505050611a34565b8381106119ab5780846040517f773cc18c0000000000000000000000000000000000000000000000000000000081526004016119a2929190612ae8565b60405180910390fd5b5f8486880990508281118203915080830392505f60018619018616905080860495508084049350600181825f0304019050808302841793505f600287600302189050808702600203810290508087026002038102905080870260020381029050808702600203810290508087026002038102905080870260020381029050808502955050505050505b9392505050565b5f5f5f5f19848609848602925082811083820303915050670de0b6b3a76400008110611a9e57806040517fd31b3402000000000000000000000000000000000000000000000000000000008152600401611a959190612084565b60405180910390fd5b5f5f670de0b6b3a764000086880991506706f05b59d3b1ffff821190505f8303611ae85780670de0b6b3a76400008581611adb57611ada6124cc565b5b0401945050505050611b2d565b807faccb18165bd6fe31ae1cf318dc5b51eee0e1ba569b88cd74c1773b91fac10669600162040000805f03040186851186030262040000858803041702019450505050505b92915050565b6040518061010001604052805f151581526020015f81526020015f73ffffffffffffffffffffffffffffffffffffffff1681526020015f81526020015f81526020015f81526020015f81526020015f151581525090565b6040518060200160405280606081525090565b5f604051905090565b5f5ffd5b5f5ffd5b5f5ffd5b5f5ffd5b5f601f19601f8301169050919050565b7f4e487b71000000000000000000000000000000000000000000000000000000005f52604160045260245ffd5b611bfc82611bb6565b810181811067ffffffffffffffff82111715611c1b57611c1a611bc6565b5b80604052505050565b5f611c2d611b9d565b9050611c398282611bf3565b919050565b5f67ffffffffffffffff821115611c5857611c57611bc6565b5b611c6182611bb6565b9050602081019050919050565b828183375f83830152505050565b5f611c8e611c8984611c3e565b611c24565b905082815260208101848484011115611caa57611ca9611bb2565b5b611cb5848285611c6e565b509392505050565b5f82601f830112611cd157611cd0611bae565b5b8135611ce1848260208601611c7c565b91505092915050565b5f60208284031215611cff57611cfe611ba6565b5b5f82013567ffffffffffffffff811115611d1c57611d1b611baa565b5b611d2884828501611cbd565b91505092915050565b5f8115159050919050565b611d4581611d31565b82525050565b5f819050919050565b611d5d81611d4b565b82525050565b5f73ffffffffffffffffffffffffffffffffffffffff82169050919050565b5f611d8c82611d63565b9050919050565b611d9c81611d82565b82525050565b5f61010082019050611db65f83018b611d3c565b611dc3602083018a611d54565b611dd06040830189611d93565b611ddd6060830188611d54565b611dea6080830187611d54565b611df760a0830186611d54565b611e0460c0830185611d54565b611e1160e0830184611d3c565b9998505050505050505050565b5f602082019050611e315f830184611d3c565b92915050565b5f611e4182611d63565b9050919050565b611e5181611e37565b82525050565b5f602082019050611e6a5f830184611e48565b92915050565b5f81519050919050565b5f82825260208201905092915050565b8281835e5f83830152505050565b5f611ea282611e70565b611eac8185611e7a565b9350611ebc818560208601611e8a565b611ec581611bb6565b840191505092915050565b5f6020820190508181035f830152611ee88184611e98565b905092915050565b611ef981611d4b565b8114611f03575f5ffd5b50565b5f81359050611f1481611ef0565b92915050565b5f60ff82169050919050565b611f2f81611f1a565b8114611f39575f5ffd5b50565b5f81359050611f4a81611f26565b92915050565b611f5981611d82565b8114611f63575f5ffd5b50565b5f81359050611f7481611f50565b92915050565b611f8381611d31565b8114611f8d575f5ffd5b50565b5f81359050611f9e81611f7a565b92915050565b5f5f5f5f5f5f5f5f5f6101208a8c031215611fc257611fc1611ba6565b5b5f8a013567ffffffffffffffff811115611fdf57611fde611baa565b5b611feb8c828d01611cbd565b9950506020611ffc8c828d01611f06565b985050604061200d8c828d01611f06565b975050606061201e8c828d01611f3c565b965050608061202f8c828d01611f66565b95505060a06120408c828d01611f06565b94505060c06120518c828d01611f90565b93505060e06120628c828d01611f06565b9250506101006120748c828d01611f06565b9150509295985092959850929598565b5f6020820190506120975f830184611d54565b92915050565b6120a681611d31565b82525050565b6120b581611d4b565b82525050565b6120c481611d82565b82525050565b61010082015f8201516120df5f85018261209d565b5060208201516120f260208501826120ac565b50604082015161210560408501826120bb565b50606082015161211860608501826120ac565b50608082015161212b60808501826120ac565b5060a082015161213e60a08501826120ac565b5060c082015161215160c08501826120ac565b5060e082015161216460e085018261209d565b50505050565b5f6101008201905061217e5f8301846120ca565b92915050565b5f6020820190506121975f830184611d93565b92915050565b5f819050919050565b5f6121c06121bb6121b684611d63565b61219d565b611d63565b9050919050565b5f6121d1826121a6565b9050919050565b5f6121e2826121c7565b9050919050565b6121f2816121d8565b82525050565b5f60208201905061220b5f8301846121e9565b92915050565b5f81519050919050565b5f82825260208201905092915050565b5f819050602082019050919050565b5f82825260208201905092915050565b5f61225482611e70565b61225e818561223a565b935061226e818560208601611e8a565b61227781611bb6565b840191505092915050565b5f61228d838361224a565b905092915050565b5f602082019050919050565b5f6122ab82612211565b6122b5818561221b565b9350836020820285016122c78561222b565b805f5b8581101561230257848403895281516122e38582612282565b94506122ee83612295565b925060208a019950506001810190506122ca565b50829750879550505050505092915050565b5f602083015f8301518482035f86015261232e82826122a1565b9150508091505092915050565b5f6020820190508181035f8301526123538184612314565b905092915050565b5f5f5f5f6080858703121561237357612372611ba6565b5b5f85013567ffffffffffffffff8111156123905761238f611baa565b5b61239c87828801611cbd565b94505060206123ad87828801611f06565b93505060406123be87828801611f06565b92505060606123cf87828801611f06565b91505092959194509250565b5f81905092915050565b5f6123ef82611e70565b6123f981856123db565b9350612409818560208601611e8a565b80840191505092915050565b5f61242082846123e5565b915081905092915050565b7f4e487b71000000000000000000000000000000000000000000000000000000005f52601160045260245ffd5b5f61246282611d4b565b915061246d83611d4b565b92508282039050818111156124855761248461242b565b5b92915050565b5f61249582611d4b565b91506124a083611d4b565b92508282026124ae81611d4b565b915082820484148315176124c5576124c461242b565b5b5092915050565b7f4e487b71000000000000000000000000000000000000000000000000000000005f52601260045260245ffd5b5f61250382611d4b565b915061250e83611d4b565b92508261251e5761251d6124cc565b5b828204905092915050565b5f60608201905061253c5f830186611d93565b6125496020830185611d54565b6125566040830184611d93565b949350505050565b5f8151905061256c81611f7a565b92915050565b5f6020828403121561258757612586611ba6565b5b5f6125948482850161255e565b91505092915050565b5f81905092915050565b50565b5f6125b55f8361259d565b91506125c0826125a7565b5f82019050919050565b5f6125d4826125aa565b9150819050919050565b7f436f756c646e27742073656e642066756e6473000000000000000000000000005f82015250565b5f612612601383611e7a565b915061261d826125de565b602082019050919050565b5f6020820190508181035f83015261263f81612606565b9050919050565b5f6040820190506126595f830185611d54565b6126666020830184611d93565b9392505050565b7f4e487b71000000000000000000000000000000000000000000000000000000005f52602260045260245ffd5b5f60028204905060018216806126b157607f821691505b6020821081036126c4576126c361266d565b5b50919050565b7f496e76616c696420736176696e6720696e6372656d656e742076616c756520735f8201527f656e740000000000000000000000000000000000000000000000000000000000602082015250565b5f612724602383611e7a565b915061272f826126ca565b604082019050919050565b5f6020820190508181035f83015261275181612718565b9050919050565b5f61276282611d4b565b915061276d83611d4b565b92508282019050808211156127855761278461242b565b5b92915050565b5f60608201905061279e5f830186611d54565b6127ab6020830185611d54565b6127b86040830184611d93565b949350505050565b5f6040820190506127d35f830185611d93565b6127e06020830184611d54565b9392505050565b5f6040820190506127fa5f830185611d93565b6128076020830184611d93565b9392505050565b5f8151905061281c81611ef0565b92915050565b5f6020828403121561283757612836611ba6565b5b5f6128448482850161280e565b91505092915050565b5f6060820190506128605f830186611d93565b61286d6020830185611d93565b61287a6040830184611d54565b949350505050565b5f819050815f5260205f209050919050565b5f6020601f8301049050919050565b5f82821b905092915050565b5f600883026128de7fffffffffffffffffffffffffffffffffffffffffffffffffffffffffffffffff826128a3565b6128e886836128a3565b95508019841693508086168417925050509392505050565b5f61291a61291561291084611d4b565b61219d565b611d4b565b9050919050565b5f819050919050565b61293383612900565b61294761293f82612921565b8484546128af565b825550505050565b5f5f905090565b61295e61294f565b61296981848461292a565b505050565b5b8181101561298c576129815f82612956565b60018101905061296f565b5050565b601f8211156129d1576129a281612882565b6129ab84612894565b810160208510156129ba578190505b6129ce6129c685612894565b83018261296e565b50505b505050565b5f82821c905092915050565b5f6129f15f19846008026129d6565b1980831691505092915050565b5f612a0983836129e2565b9150826002028217905092915050565b612a2282611e70565b67ffffffffffffffff811115612a3b57612a3a611bc6565b5b612a45825461269a565b612a50828285612990565b5f60209050601f831160018114612a81575f8415612a6f578287015190505b612a7985826129fe565b865550612ae0565b601f198416612a8f86612882565b5f5b82811015612ab657848901518255600182019150602085019450602081019050612a91565b86831015612ad35784890151612acf601f8916826129e2565b8355505b6001600288020188555050505b505050505050565b5f604082019050612afb5f830185611d54565b612b086020830184611d54565b939250505056fea26469706673582212203e5c7add8a6e1bc5078112212083c2f8dbbd3be23665486fff1912f8ce784d8f64736f6c634300081b0033","linkReferences":{}},"methodIdentifiers":{"bitsaveAddress()":"2ae3c90f","createSaving(string,uint256,uint256,uint8,address,uint256,bool,uint256,uint256)":"436d4a6d","getSaving(string)":"585dbffe","getSavingBalance(string)":"e0ea6d40","getSavingInterest(string)":"84febb69","getSavingMode(string)":"1bb862a5","getSavingTokenId(string)":"e18f5f65","getSavingsNames()":"d1ece790","incrementSaving(string,uint256,uint256,uint256)":"dc2379b9","ownerAddress()":"8f84aa09","savings(string)":"13203929","stableCoin()":"992642e5","totalPoints()":"567142be","withdrawSaving(string)":"372f9101"},"id":40}