{"abi":[{"type":"constructor","inputs":[{"name":"_stableCoin","type":"address","internalType":"address"},{"name":"_csToken","type":"address","internalType":"address"}],"stateMutability":"payable"},{"type":"receive","stateMutability":"payable"},{"type":"function","name":"ChildContractGasFee","inputs":[],"outputs":[{"name":"","type":"uint256","internalType":"uint256"}],"stateMutability":"view"},{"type":"function","name":"ChildCutPerFee","inputs":[],"outputs":[{"name":"","type":"uint256","internalType":"uint256"}],"stateMutability":"view"},{"type":"function","name":"JoinLimitFee","inputs":[],"outputs":[{"name":"","type":"uint256","internalType":"uint256"}],"stateMutability":"view"},{"type":"function","name":"SavingFee","inputs":[],"outputs":[{"name":"","type":"uint256","internalType":"uint256"}],"stateMutability":"view"},{"type":"function","name":"createSaving","inputs":[{"name":"nameOfSaving","type":"string","internalType":"string"},{"name":"maturityTime","type":"uint256","internalType":"uint256"},{"name":"penaltyPercentage","type":"uint8","internalType":"uint8"},{"name":"safeMode","type":"bool","internalType":"bool"},{"name":"tokenToSave","type":"address","internalType":"address"},{"name":"amount","type":"uint256","internalType":"uint256"}],"outputs":[],"stateMutability":"payable"},{"type":"function","name":"csToken","inputs":[],"outputs":[{"name":"","type":"address","internalType":"contract IERC20"}],"stateMutability":"view"},{"type":"function","name":"currentTotalValueLocked","inputs":[],"outputs":[{"name":"","type":"uint256","internalType":"uint256"}],"stateMutability":"view"},{"type":"function","name":"currentVaultState","inputs":[],"outputs":[{"name":"","type":"uint256","internalType":"uint256"}],"stateMutability":"view"},{"type":"function","name":"dripFountain","inputs":[],"outputs":[],"stateMutability":"nonpayable"},{"type":"function","name":"editFees","inputs":[{"name":"_joinFee","type":"uint256","internalType":"uint256"},{"name":"_savingFee","type":"uint256","internalType":"uint256"},{"name":"_childCutPerFee","type":"uint256","internalType":"uint256"}],"outputs":[],"stateMutability":"nonpayable"},{"type":"function","name":"editInternalData","inputs":[{"name":"_newCurrentVaultState","type":"uint256","internalType":"uint256"},{"name":"_newTotalValueLocked","type":"uint256","internalType":"uint256"},{"name":"_newCsToken","type":"address","internalType":"address"}],"outputs":[],"stateMutability":"nonpayable"},{"type":"function","name":"editStableCoin","inputs":[{"name":"_newStableCoin","type":"address","internalType":"address"}],"outputs":[],"stateMutability":"nonpayable"},{"type":"function","name":"fountain","inputs":[],"outputs":[{"name":"","type":"uint256","internalType":"uint256"}],"stateMutability":"view"},{"type":"function","name":"getUserChildContractAddress","inputs":[],"outputs":[{"name":"","type":"address","internalType":"address"}],"stateMutability":"view"},{"type":"function","name":"incrementSaving","inputs":[{"name":"nameOfSavings","type":"string","internalType":"string"},{"name":"tokenToRetrieve","type":"address","internalType":"address"},{"name":"amount","type":"uint256","internalType":"uint256"}],"outputs":[],"stateMutability":"payable"},{"type":"function","name":"joinBitsave","inputs":[],"outputs":[{"name":"","type":"address","internalType":"address"}],"stateMutability":"payable"},{"type":"function","name":"masterAddress","inputs":[],"outputs":[{"name":"","type":"address","internalType":"address"}],"stateMutability":"view"},{"type":"function","name":"rewardPool","inputs":[],"outputs":[{"name":"","type":"uint256","internalType":"uint256"}],"stateMutability":"view"},{"type":"function","name":"sendAsOriginalToken","inputs":[{"name":"originalToken","type":"address","internalType":"address"},{"name":"amount","type":"uint256","internalType":"uint256"},{"name":"ownerAddress","type":"address","internalType":"address"}],"outputs":[{"name":"","type":"bool","internalType":"bool"}],"stateMutability":"payable"},{"type":"function","name":"stableCoin","inputs":[],"outputs":[{"name":"","type":"address","internalType":"contract IERC20"}],"stateMutability":"view"},{"type":"function","name":"userCount","inputs":[],"outputs":[{"name":"","type":"uint256","internalType":"uint256"}],"stateMutability":"view"},{"type":"function","name":"withdrawSaving","inputs":[{"name":"nameOfSavings","type":"string","internalType":"string"}],"outputs":[{"name":"","type":"bool","internalType":"bool"}],"stateMutability":"nonpayable"},{"type":"event","name":"JoinedBitsave","inputs":[{"name":"userAddress","type":"address","indexed":true,"internalType":"address"}],"anonymous":false},{"type":"event","name":"SavingCreated","inputs":[{"name":"nameOfSaving","type":"string","indexed":true,"internalType":"string"},{"name":"amount","type":"uint256","indexed":false,"internalType":"uint256"},{"name":"token","type":"address","indexed":false,"internalType":"address"}],"anonymous":false},{"type":"event","name":"TokenWithdrawal","inputs":[{"name":"from","type":"address","indexed":true,"internalType":"address"},{"name":"to","type":"address","indexed":true,"internalType":"address"},{"name":"amount","type":"uint256","indexed":false,"internalType":"uint256"}],"anonymous":false},{"type":"error","name":"AmountNotEnough","inputs":[]},{"type":"error","name":"CallNotFromBitsave","inputs":[]},{"type":"error","name":"CanNotWithdrawToken","inputs":[{"name":"","type":"string","internalType":"string"}]},{"type":"error","name":"InvalidTime","inputs":[]},{"type":"error","name":"MasterCallRequired","inputs":[]},{"type":"error","name":"NotEnoughToPayGasFee","inputs":[]},{"type":"error","name":"NotSupported","inputs":[{"name":"","type":"string","internalType":"string"}]},{"type":"error","name":"UserNotRegistered","inputs":[]}],"bytecode":{"object":"0x60806040525f600955655af3107a4000600a556032600b55600b54600a5462000029919062000177565b600c55604051620056bc380380620056bc833981810160405281019062000051919062000213565b815f806101000a81548173ffffffffffffffffffffffffffffffffffffffff021916908373ffffffffffffffffffffffffffffffffffffffff1602179055508060015f6101000a81548173ffffffffffffffffffffffffffffffffffffffff021916908373ffffffffffffffffffffffffffffffffffffffff1602179055503360025f6101000a81548173ffffffffffffffffffffffffffffffffffffffff021916908373ffffffffffffffffffffffffffffffffffffffff1602179055505f6003819055505f60068190555062d59f80600781905550620186a060088190555034600481905550505062000258565b5f819050919050565b7f4e487b71000000000000000000000000000000000000000000000000000000005f52601260045260245ffd5b5f620001838262000141565b9150620001908362000141565b925082620001a357620001a26200014a565b5b828204905092915050565b5f80fd5b5f73ffffffffffffffffffffffffffffffffffffffff82169050919050565b5f620001dd82620001b2565b9050919050565b620001ef81620001d1565b8114620001fa575f80fd5b50565b5f815190506200020d81620001e4565b92915050565b5f80604083850312156200022c576200022b620001ae565b5b5f6200023b85828601620001fd565b92505060206200024e85828601620001fd565b9150509250929050565b61545680620002665f395ff3fe60806040526004361062000156575f3560e01c8063992642e511620000ba578063d5633e961162000078578063d5633e961462000435578063de35c372146200044e578063e04605fd1462000484578063ea41367214620004b3578063f24053b314620004e2578063fed0b9251462000511576200015e565b8063992642e5146200034e5780639986e0e9146200037d578063a63748e514620003aa578063bf66bfc714620003d7578063d365a08e1462000406576200015e565b8063372f91011162000114578063372f910114620002315780634c3fa30414620002745780636405350a14620002a357806366666aa914620002c35780637679489c14620002f257806384762b0b146200031f576200015e565b806302500739146200016257806307973ccf146200019157806309a5ff8c14620001c057806316f94d5d14620001ef5780631fdc181f1462000211576200015e565b366200015e57005b5f80fd5b3480156200016e575f80fd5b506200017962000540565b604051620001889190620019f6565b60405180910390f35b3480156200019d575f80fd5b50620001a862000546565b604051620001b79190620019f6565b60405180910390f35b348015620001cc575f80fd5b50620001d76200054c565b604051620001e69190620019f6565b60405180910390f35b620001f962000552565b60405162000208919062001a54565b60405180910390f35b6200022f600480360381019062000229919062001c36565b62000770565b005b3480156200023d575f80fd5b506200025c600480360381019062000256919062001cae565b62000b1d565b6040516200026b919062001d19565b60405180910390f35b34801562000280575f80fd5b506200028b62000cce565b6040516200029a9190620019f6565b60405180910390f35b620002c16004803603810190620002bb919062001d9e565b62000cd4565b005b348015620002cf575f80fd5b50620002da62000fb6565b604051620002e99190620019f6565b60405180910390f35b348015620002fe575f80fd5b506200031d600480360381019062000317919062001e55565b62000fbc565b005b3480156200032b575f80fd5b5062000336620010cb565b604051620003459190620019f6565b60405180910390f35b3480156200035a575f80fd5b5062000365620010d1565b60405162000374919062001f15565b60405180910390f35b34801562000389575f80fd5b50620003a86004803603810190620003a2919062001f30565b620010f4565b005b348015620003b6575f80fd5b50620003d56004803603810190620003cf919062001f60565b620011f2565b005b348015620003e3575f80fd5b50620003ee620012b7565b604051620003fd9190620019f6565b60405180910390f35b34801562000412575f80fd5b506200041d620012bd565b6040516200042c919062001a54565b60405180910390f35b34801562000441575f80fd5b506200044c620012e2565b005b6200046c600480360381019062000466919062001fb9565b6200145c565b6040516200047b919062001d19565b60405180910390f35b34801562000490575f80fd5b506200049b62001594565b604051620004aa919062001f15565b60405180910390f35b348015620004bf575f80fd5b50620004ca620015b9565b604051620004d9919062001a54565b60405180910390f35b348015620004ee575f80fd5b50620004f96200161c565b604051620005089190620019f6565b60405180910390f35b3480156200051d575f80fd5b506200052862001622565b604051620005379190620019f6565b60405180910390f35b60085481565b60065481565b600b5481565b5f803390505f60055f8373ffffffffffffffffffffffffffffffffffffffff1673ffffffffffffffffffffffffffffffffffffffff1681526020019081526020015f205f9054906101000a900473ffffffffffffffffffffffffffffffffffffffff1690505f73ffffffffffffffffffffffffffffffffffffffff168173ffffffffffffffffffffffffffffffffffffffff1614620005f65780925050506200076d565b60095434101562000633576040517fcb6e851c00000000000000000000000000000000000000000000000000000000815260040160405180910390fd5b5f335f8054906101000a900473ffffffffffffffffffffffffffffffffffffffff166040516200066390620019ce565b6200067092919062002012565b604051809103905ff0801580156200068a573d5f803e3d5ffd5b5090508060055f8573ffffffffffffffffffffffffffffffffffffffff1673ffffffffffffffffffffffffffffffffffffffff1681526020019081526020015f205f6101000a81548173ffffffffffffffffffffffffffffffffffffffff021916908373ffffffffffffffffffffffffffffffffffffffff160217905550600160065f8282546200071c91906200206a565b925050819055508273ffffffffffffffffffffffffffffffffffffffff167f0c5c0c4d53b63790e32770cf47fd115d706000fd7ab63fbdc8d176c5020d6b4660405160405180910390a28093505050505b90565b335f73ffffffffffffffffffffffffffffffffffffffff1660055f8373ffffffffffffffffffffffffffffffffffffffff1673ffffffffffffffffffffffffffffffffffffffff1681526020019081526020015f205f9054906101000a900473ffffffffffffffffffffffffffffffffffffffff1673ffffffffffffffffffffffffffffffffffffffff160362000833576040517f2163950f00000000000000000000000000000000000000000000000000000000815260040160405180910390fd5b5f60055f3373ffffffffffffffffffffffffffffffffffffffff1673ffffffffffffffffffffffffffffffffffffffff1681526020019081526020015f205f9054906101000a900473ffffffffffffffffffffffffffffffffffffffff1690505f8190505f8173ffffffffffffffffffffffffffffffffffffffff1663e18f5f65886040518263ffffffff1660e01b8152600401620008d3919062002128565b602060405180830381865afa158015620008ef573d5f803e3d5ffd5b505050506040513d601f19601f8201168201806040525081019062000915919062002160565b90505f8073ffffffffffffffffffffffffffffffffffffffff168273ffffffffffffffffffffffffffffffffffffffff161490505f8690505f8473ffffffffffffffffffffffffffffffffffffffff16631bb862a58b6040518263ffffffff1660e01b815260040162000989919062002128565b602060405180830381865afa158015620009a5573d5f803e3d5ffd5b505050506040513d601f19601f82011682018060405250810190620009cb9190620021a6565b90508015620009f7575f8054906101000a900473ffffffffffffffffffffffffffffffffffffffff1698505b8262000a525762000a0a86838b62001628565b62000a4c576040517f08c379a000000000000000000000000000000000000000000000000000000000815260040162000a439062002224565b60405180910390fd5b62000a56565b3491505b5f62000a64898689620016b7565b90508573ffffffffffffffffffffffffffffffffffffffff1663dc2379b98562000a9157600c5462000aa2565b84600c5462000aa191906200206a565b5b8d8c6007546008546040518663ffffffff1660e01b815260040162000acb949392919062002244565b60206040518083038185885af115801562000ae8573d5f803e3d5ffd5b50505050506040513d601f19601f8201168201806040525081019062000b0f9190620022ac565b505050505050505050505050565b5f335f73ffffffffffffffffffffffffffffffffffffffff1660055f8373ffffffffffffffffffffffffffffffffffffffff1673ffffffffffffffffffffffffffffffffffffffff1681526020019081526020015f205f9054906101000a900473ffffffffffffffffffffffffffffffffffffffff1673ffffffffffffffffffffffffffffffffffffffff160362000be1576040517f2163950f00000000000000000000000000000000000000000000000000000000815260040160405180910390fd5b5f60055f3373ffffffffffffffffffffffffffffffffffffffff1673ffffffffffffffffffffffffffffffffffffffff1681526020019081526020015f205f9054906101000a900473ffffffffffffffffffffffffffffffffffffffff1690508073ffffffffffffffffffffffffffffffffffffffff1663372f9101856040518263ffffffff1660e01b815260040162000c7c919062002128565b5f604051808303815f875af115801562000c98573d5f803e3d5ffd5b505050506040513d5f823e3d601f19601f8201168201806040525081019062000cc2919062002358565b50600192505050919050565b60075481565b335f73ffffffffffffffffffffffffffffffffffffffff1660055f8373ffffffffffffffffffffffffffffffffffffffff1673ffffffffffffffffffffffffffffffffffffffff1681526020019081526020015f205f9054906101000a900473ffffffffffffffffffffffffffffffffffffffff1673ffffffffffffffffffffffffffffffffffffffff160362000d97576040517f2163950f00000000000000000000000000000000000000000000000000000000815260040160405180910390fd5b600a5434101562000dd4576040517fd0c279a200000000000000000000000000000000000000000000000000000000815260040160405180910390fd5b8542111562000e0f576040517f6f7eac2600000000000000000000000000000000000000000000000000000000815260040160405180910390fd5b831562000e53576040517f329e2f1500000000000000000000000000000000000000000000000000000000815260040162000e4a90620023f5565b60405180910390fd5b5f62000e5f3362001819565b90505f62000e6f848684620016b7565b90505f8290508073ffffffffffffffffffffffffffffffffffffffff1663436d4a6d5f73ffffffffffffffffffffffffffffffffffffffff168873ffffffffffffffffffffffffffffffffffffffff161462000ece57600c5462000edf565b83600c5462000ede91906200206a565b5b8c8c428d8c898f6007546008546040518b63ffffffff1660e01b815260040162000f129998979695949392919062002426565b60206040518083038185885af115801562000f2f573d5f803e3d5ffd5b50505050506040513d601f19601f8201168201806040525081019062000f569190620022ac565b508960405162000f6791906200250a565b60405180910390207f4ad85a69286191006ea05981ae1848070dbf232e5e00ffdda4b857c16097f0d7838860405162000fa292919062002522565b60405180910390a250505050505050505050565b60035481565b60025f9054906101000a900473ffffffffffffffffffffffffffffffffffffffff1673ffffffffffffffffffffffffffffffffffffffff163373ffffffffffffffffffffffffffffffffffffffff161462001043576040517f33662b3400000000000000000000000000000000000000000000000000000000815260040160405180910390fd5b82600781905550816008819055505f73ffffffffffffffffffffffffffffffffffffffff168173ffffffffffffffffffffffffffffffffffffffff1614620010c6578060015f6101000a81548173ffffffffffffffffffffffffffffffffffffffff021916908373ffffffffffffffffffffffffffffffffffffffff1602179055505b505050565b60095481565b5f8054906101000a900473ffffffffffffffffffffffffffffffffffffffff1681565b60025f9054906101000a900473ffffffffffffffffffffffffffffffffffffffff1673ffffffffffffffffffffffffffffffffffffffff163373ffffffffffffffffffffffffffffffffffffffff16146200117b576040517f33662b3400000000000000000000000000000000000000000000000000000000815260040160405180910390fd5b5f73ffffffffffffffffffffffffffffffffffffffff168173ffffffffffffffffffffffffffffffffffffffff1614620011ef57805f806101000a81548173ffffffffffffffffffffffffffffffffffffffff021916908373ffffffffffffffffffffffffffffffffffffffff1602179055505b50565b60025f9054906101000a900473ffffffffffffffffffffffffffffffffffffffff1673ffffffffffffffffffffffffffffffffffffffff163373ffffffffffffffffffffffffffffffffffffffff161462001279576040517f33662b3400000000000000000000000000000000000000000000000000000000815260040160405180910390fd5b8260098190555081600a8190555080600b819055505f8114620012aa578082620012a491906200257a565b620012ac565b5f5b600c81905550505050565b600c5481565b60025f9054906101000a900473ffffffffffffffffffffffffffffffffffffffff1681565b60025f9054906101000a900473ffffffffffffffffffffffffffffffffffffffff1673ffffffffffffffffffffffffffffffffffffffff163373ffffffffffffffffffffffffffffffffffffffff161462001369576040517f33662b3400000000000000000000000000000000000000000000000000000000815260040160405180910390fd5b5f47905060045481111562001459575f60025f9054906101000a900473ffffffffffffffffffffffffffffffffffffffff1673ffffffffffffffffffffffffffffffffffffffff1660045483620013c19190620025b1565b604051620013cf906200261c565b5f6040518083038185875af1925050503d805f81146200140b576040519150601f19603f3d011682016040523d82523d5f602084013e62001410565b606091505b505090508062001457576040517f08c379a00000000000000000000000000000000000000000000000000000000081526004016200144e9062002680565b60405180910390fd5b505b50565b5f815f60055f8373ffffffffffffffffffffffffffffffffffffffff1673ffffffffffffffffffffffffffffffffffffffff1681526020019081526020015f205f9054906101000a900473ffffffffffffffffffffffffffffffffffffffff1690505f73ffffffffffffffffffffffffffffffffffffffff168173ffffffffffffffffffffffffffffffffffffffff1614806200152557503373ffffffffffffffffffffffffffffffffffffffff168173ffffffffffffffffffffffffffffffffffffffff1614155b156200155d576040517f229e1dbd00000000000000000000000000000000000000000000000000000000815260040160405180910390fd5b62001589335f8054906101000a900473ffffffffffffffffffffffffffffffffffffffff16876200187e565b925050509392505050565b60015f9054906101000a900473ffffffffffffffffffffffffffffffffffffffff1681565b5f60055f3373ffffffffffffffffffffffffffffffffffffffff1673ffffffffffffffffffffffffffffffffffffffff1681526020019081526020015f205f9054906101000a900473ffffffffffffffffffffffffffffffffffffffff16905090565b60045481565b600a5481565b5f808290508073ffffffffffffffffffffffffffffffffffffffff1663095ea7b386866040518363ffffffff1660e01b81526004016200166a929190620026a0565b6020604051808303815f875af115801562001687573d5f803e3d5ffd5b505050506040513d601f19601f82011682018060405250810190620016ad9190620021a6565b9150509392505050565b5f8073ffffffffffffffffffffffffffffffffffffffff168373ffffffffffffffffffffffffffffffffffffffff1614620017fc575f620016fa3385876200187e565b9050806200173f576040517fec866729000000000000000000000000000000000000000000000000000000008152600401620017369062002719565b60405180910390fd5b3073ffffffffffffffffffffffffffffffffffffffff163373ffffffffffffffffffffffffffffffffffffffff167f42856d0378dde02337bb59ae41747abc77ded8ebdbbc5cbdd1e53693b7554938876040516200179e9190620019f6565b60405180910390a3620017b383868662001628565b620017f5576040517f08c379a0000000000000000000000000000000000000000000000000000000008152600401620017ec9062002224565b60405180910390fd5b506200180f565b600a54346200180c9190620025b1565b93505b8390509392505050565b5f60055f8373ffffffffffffffffffffffffffffffffffffffff1673ffffffffffffffffffffffffffffffffffffffff1681526020019081526020015f205f9054906101000a900473ffffffffffffffffffffffffffffffffffffffff169050919050565b5f818373ffffffffffffffffffffffffffffffffffffffff1663dd62ed3e86306040518363ffffffff1660e01b8152600401620018bd92919062002012565b602060405180830381865afa158015620018d9573d5f803e3d5ffd5b505050506040513d601f19601f82011682018060405250810190620018ff9190620022ac565b101562001943576040517f08c379a00000000000000000000000000000000000000000000000000000000081526004016200193a9062002787565b60405180910390fd5b8273ffffffffffffffffffffffffffffffffffffffff166323b872dd8530856040518463ffffffff1660e01b81526004016200198293929190620027a7565b6020604051808303815f875af11580156200199f573d5f803e3d5ffd5b505050506040513d601f19601f82011682018060405250810190620019c59190620021a6565b90509392505050565b612c3e80620027e383390190565b5f819050919050565b620019f081620019dc565b82525050565b5f60208201905062001a0b5f830184620019e5565b92915050565b5f73ffffffffffffffffffffffffffffffffffffffff82169050919050565b5f62001a3c8262001a11565b9050919050565b62001a4e8162001a30565b82525050565b5f60208201905062001a695f83018462001a43565b92915050565b5f604051905090565b5f80fd5b5f80fd5b5f80fd5b5f80fd5b5f601f19601f8301169050919050565b7f4e487b71000000000000000000000000000000000000000000000000000000005f52604160045260245ffd5b62001ad08262001a88565b810181811067ffffffffffffffff8211171562001af25762001af162001a98565b5b80604052505050565b5f62001b0662001a6f565b905062001b14828262001ac5565b919050565b5f67ffffffffffffffff82111562001b365762001b3562001a98565b5b62001b418262001a88565b9050602081019050919050565b828183375f83830152505050565b5f62001b7262001b6c8462001b19565b62001afb565b90508281526020810184848401111562001b915762001b9062001a84565b5b62001b9e84828562001b4e565b509392505050565b5f82601f83011262001bbd5762001bbc62001a80565b5b813562001bcf84826020860162001b5c565b91505092915050565b62001be38162001a30565b811462001bee575f80fd5b50565b5f8135905062001c018162001bd8565b92915050565b62001c1281620019dc565b811462001c1d575f80fd5b50565b5f8135905062001c308162001c07565b92915050565b5f805f6060848603121562001c505762001c4f62001a78565b5b5f84013567ffffffffffffffff81111562001c705762001c6f62001a7c565b5b62001c7e8682870162001ba6565b935050602062001c918682870162001bf1565b925050604062001ca48682870162001c20565b9150509250925092565b5f6020828403121562001cc65762001cc562001a78565b5b5f82013567ffffffffffffffff81111562001ce65762001ce562001a7c565b5b62001cf48482850162001ba6565b91505092915050565b5f8115159050919050565b62001d138162001cfd565b82525050565b5f60208201905062001d2e5f83018462001d08565b92915050565b5f60ff82169050919050565b62001d4b8162001d34565b811462001d56575f80fd5b50565b5f8135905062001d698162001d40565b92915050565b62001d7a8162001cfd565b811462001d85575f80fd5b50565b5f8135905062001d988162001d6f565b92915050565b5f805f805f8060c0878903121562001dbb5762001dba62001a78565b5b5f87013567ffffffffffffffff81111562001ddb5762001dda62001a7c565b5b62001de989828a0162001ba6565b965050602062001dfc89828a0162001c20565b955050604062001e0f89828a0162001d59565b945050606062001e2289828a0162001d88565b935050608062001e3589828a0162001bf1565b92505060a062001e4889828a0162001c20565b9150509295509295509295565b5f805f6060848603121562001e6f5762001e6e62001a78565b5b5f62001e7e8682870162001c20565b935050602062001e918682870162001c20565b925050604062001ea48682870162001bf1565b9150509250925092565b5f819050919050565b5f62001ed762001ed162001ecb8462001a11565b62001eae565b62001a11565b9050919050565b5f62001eea8262001eb7565b9050919050565b5f62001efd8262001ede565b9050919050565b62001f0f8162001ef1565b82525050565b5f60208201905062001f2a5f83018462001f04565b92915050565b5f6020828403121562001f485762001f4762001a78565b5b5f62001f578482850162001bf1565b91505092915050565b5f805f6060848603121562001f7a5762001f7962001a78565b5b5f62001f898682870162001c20565b935050602062001f9c8682870162001c20565b925050604062001faf8682870162001c20565b9150509250925092565b5f805f6060848603121562001fd35762001fd262001a78565b5b5f62001fe28682870162001bf1565b935050602062001ff58682870162001c20565b9250506040620020088682870162001bf1565b9150509250925092565b5f604082019050620020275f83018562001a43565b62002036602083018462001a43565b9392505050565b7f4e487b71000000000000000000000000000000000000000000000000000000005f52601160045260245ffd5b5f6200207682620019dc565b91506200208383620019dc565b92508282019050808211156200209e576200209d6200203d565b5b92915050565b5f81519050919050565b5f82825260208201905092915050565b5f5b83811015620020dd578082015181840152602081019050620020c0565b5f8484015250505050565b5f620020f482620020a4565b620021008185620020ae565b935062002112818560208601620020be565b6200211d8162001a88565b840191505092915050565b5f6020820190508181035f830152620021428184620020e8565b905092915050565b5f815190506200215a8162001bd8565b92915050565b5f6020828403121562002178576200217762001a78565b5b5f62002187848285016200214a565b91505092915050565b5f81519050620021a08162001d6f565b92915050565b5f60208284031215620021be57620021bd62001a78565b5b5f620021cd8482850162002190565b91505092915050565b7f536176696e677320696e76616c696400000000000000000000000000000000005f82015250565b5f6200220c600f83620020ae565b91506200221982620021d6565b602082019050919050565b5f6020820190508181035f8301526200223d81620021fe565b9050919050565b5f6080820190508181035f8301526200225e8187620020e8565b90506200226f6020830186620019e5565b6200227e6040830185620019e5565b6200228d6060830184620019e5565b95945050505050565b5f81519050620022a68162001c07565b92915050565b5f60208284031215620022c457620022c362001a78565b5b5f620022d38482850162002296565b91505092915050565b5f620022f2620022ec8462001b19565b62001afb565b90508281526020810184848401111562002311576200231062001a84565b5b6200231e848285620020be565b509392505050565b5f82601f8301126200233d576200233c62001a80565b5b81516200234f848260208601620022dc565b91505092915050565b5f6020828403121562002370576200236f62001a78565b5b5f82015167ffffffffffffffff81111562002390576200238f62001a7c565b5b6200239e8482850162002326565b91505092915050565b7f4e6f2073616665206d6f646520796574210000000000000000000000000000005f82015250565b5f620023dd601183620020ae565b9150620023ea82620023a7565b602082019050919050565b5f6020820190508181035f8301526200240e81620023cf565b9050919050565b620024208162001d34565b82525050565b5f610120820190508181035f83015262002441818c620020e8565b905062002452602083018b620019e5565b62002461604083018a620019e5565b62002470606083018962002415565b6200247f608083018862001a43565b6200248e60a0830187620019e5565b6200249d60c083018662001d08565b620024ac60e0830185620019e5565b620024bc610100830184620019e5565b9a9950505050505050505050565b5f81905092915050565b5f620024e082620020a4565b620024ec8185620024ca565b9350620024fe818560208601620020be565b80840191505092915050565b5f620025178284620024d4565b915081905092915050565b5f604082019050620025375f830185620019e5565b62002546602083018462001a43565b9392505050565b7f4e487b71000000000000000000000000000000000000000000000000000000005f52601260045260245ffd5b5f6200258682620019dc565b91506200259383620019dc565b925082620025a657620025a56200254d565b5b828204905092915050565b5f620025bd82620019dc565b9150620025ca83620019dc565b9250828203905081811115620025e557620025e46200203d565b5b92915050565b5f81905092915050565b50565b5f620026055f83620025eb565b91506200261282620025f5565b5f82019050919050565b5f6200262882620025f8565b9150819050919050565b7f7472616e73666572206661696c656400000000000000000000000000000000005f82015250565b5f62002668600f83620020ae565b9150620026758262002632565b602082019050919050565b5f6020820190508181035f83015262002699816200265a565b9050919050565b5f604082019050620026b55f83018562001a43565b620026c46020830184620019e5565b9392505050565b7f54786e206661696c6564000000000000000000000000000000000000000000005f82015250565b5f62002701600a83620020ae565b91506200270e82620026cb565b602082019050919050565b5f6020820190508181035f8301526200273281620026f3565b9050919050565b7f546f6b656e20636f756c64206e6f742062652077697468647261776e000000005f82015250565b5f6200276f601c83620020ae565b91506200277c8262002739565b602082019050919050565b5f6020820190508181035f830152620027a08162002761565b9050919050565b5f606082019050620027bc5f83018662001a43565b620027cb602083018562001a43565b620027da6040830184620019e5565b94935050505056fe608060405260405162002c3e38038062002c3e83398181016040528101906200002991906200015c565b335f806101000a81548173ffffffffffffffffffffffffffffffffffffffff021916908373ffffffffffffffffffffffffffffffffffffffff1602179055508160025f6101000a81548173ffffffffffffffffffffffffffffffffffffffff021916908373ffffffffffffffffffffffffffffffffffffffff1602179055508060015f6101000a81548173ffffffffffffffffffffffffffffffffffffffff021916908373ffffffffffffffffffffffffffffffffffffffff1602179055505f6003819055505050620001a1565b5f80fd5b5f73ffffffffffffffffffffffffffffffffffffffff82169050919050565b5f6200012682620000fb565b9050919050565b62000138816200011a565b811462000143575f80fd5b50565b5f8151905062000156816200012d565b92915050565b5f8060408385031215620001755762000174620000f7565b5b5f620001848582860162000146565b9250506020620001978582860162000146565b9150509250929050565b612a8f80620001af5f395ff3fe6080604052600436106100c1575f3560e01c8063585dbffe1161007e578063992642e511610058578063992642e51461029a578063d1ece790146102c4578063dc2379b9146102ee578063e18f5f651461031e576100c1565b8063585dbffe146101f857806384febb69146102345780638f84aa0914610270576100c1565b806313203929146100c55780631bb862a5146101085780632ae3c90f14610144578063372f91011461016e578063436d4a6d1461019e578063567142be146101ce575b5f80fd5b3480156100d0575f80fd5b506100eb60048036038101906100e69190611bb5565b61035a565b6040516100ff989796959493929190611c6d565b60405180910390f35b348015610113575f80fd5b5061012e60048036038101906101299190611bb5565b6103ed565b60405161013b9190611ce9565b60405180910390f35b34801561014f575f80fd5b50610158610423565b6040516101659190611d22565b60405180910390f35b61018860048036038101906101839190611bb5565b610446565b6040516101959190611db5565b60405180910390f35b6101b860048036038101906101b39190611e89565b6108f3565b6040516101c59190611f69565b60405180910390f35b3480156101d9575f80fd5b506101e2610cbc565b6040516101ef9190611f69565b60405180910390f35b348015610203575f80fd5b5061021e60048036038101906102199190611bb5565b610cc2565b60405161022b919061204f565b60405180910390f35b34801561023f575f80fd5b5061025a60048036038101906102559190611bb5565b610db5565b6040516102679190611f69565b60405180910390f35b34801561027b575f80fd5b50610284610ddf565b6040516102919190612069565b60405180910390f35b3480156102a5575f80fd5b506102ae610e04565b6040516102bb91906120dd565b60405180910390f35b3480156102cf575f80fd5b506102d8610e29565b6040516102e59190612220565b60405180910390f35b61030860048036038101906103039190612240565b610f16565b6040516103159190611f69565b60405180910390f35b348015610329575f80fd5b50610344600480360381019061033f9190611bb5565b611378565b6040516103519190612069565b60405180910390f35b6004818051602081018201805184825260208301602085012081835280955050505050505f91509050805f015f9054906101000a900460ff1690806001015490806002015f9054906101000a900473ffffffffffffffffffffffffffffffffffffffff1690806003015490806004015490806005015490806006015490806007015f9054906101000a900460ff16905088565b5f6004826040516103fe91906122fa565b90815260200160405180910390206007015f9054906101000a900460ff169050919050565b5f8054906101000a900473ffffffffffffffffffffffffffffffffffffffff1681565b60605f8054906101000a900473ffffffffffffffffffffffffffffffffffffffff1673ffffffffffffffffffffffffffffffffffffffff163373ffffffffffffffffffffffffffffffffffffffff16146104cc576040517f229e1dbd00000000000000000000000000000000000000000000000000000000815260040160405180910390fd5b5f6004836040516104dd91906122fa565b90815260200160405180910390209050805f015f9054906101000a900460ff16610533576040517fd63d1e4800000000000000000000000000000000000000000000000000000000815260040160405180910390fd5b5f816001015490505f805f9054906101000a900473ffffffffffffffffffffffffffffffffffffffff169050826006015442101561059e5760648360050154606461057e919061233d565b846001015461058d9190612370565b61059791906123de565b915061059f565b5b5f836002015f9054906101000a900473ffffffffffffffffffffffffffffffffffffffff1690505f846007015f9054906101000a900460ff16156106ce576106285f8054906101000a900473ffffffffffffffffffffffffffffffffffffffff168560015f9054906101000a900473ffffffffffffffffffffffffffffffffffffffff166113c1565b508273ffffffffffffffffffffffffffffffffffffffff1663de35c372838660025f9054906101000a900473ffffffffffffffffffffffffffffffffffffffff166040518463ffffffff1660e01b81526004016106879392919061240e565b6020604051808303815f875af11580156106a3573d5f803e3d5ffd5b505050506040513d601f19601f820116820180604052508101906106c79190612457565b9050610829565b5f73ffffffffffffffffffffffffffffffffffffffff168273ffffffffffffffffffffffffffffffffffffffff16036107d6575f8060025f9054906101000a900473ffffffffffffffffffffffffffffffffffffffff1673ffffffffffffffffffffffffffffffffffffffff1686604051610748906124af565b5f6040518083038185875af1925050503d805f8114610782576040519150601f19603f3d011682016040523d82523d5f602084013e610787565b606091505b5091509150816107cc576040517f08c379a00000000000000000000000000000000000000000000000000000000081526004016107c39061250d565b60405180910390fd5b8192505050610828565b610825856002015f9054906101000a900473ffffffffffffffffffffffffffffffffffffffff1660025f9054906101000a900473ffffffffffffffffffffffffffffffffffffffff168661144b565b90505b5b80156108ea575f60048860405161084091906122fa565b90815260200160405180910390205f015f6101000a81548160ff0219169083151502179055508660405161087491906122fa565b60405180910390207f5b059b7fe1fea38d4de595079621498a365a8f1fa13e49af9f1e4b7197ab049a60405160405180910390a26040518060400160405280601e81526020017f736176696e67732077697468647261776e207375636365737366756c6c790000815250955050505050506108ee565b5f80fd5b919050565b5f805f9054906101000a900473ffffffffffffffffffffffffffffffffffffffff1673ffffffffffffffffffffffffffffffffffffffff163373ffffffffffffffffffffffffffffffffffffffff1614610979576040517f229e1dbd00000000000000000000000000000000000000000000000000000000815260040160405180910390fd5b60048a60405161098991906122fa565b90815260200160405180910390205f015f9054906101000a900460ff16156109dd576040517fd63d1e4800000000000000000000000000000000000000000000000000000000815260040160405180910390fd5b87891015610a17576040517f6f7eac2600000000000000000000000000000000000000000000000000000000815260040160405180910390fd5b42891015610a51576040517f6f7eac2600000000000000000000000000000000000000000000000000000000815260040160405180910390fd5b5f8590508415610aac57610aa65f8054906101000a900473ffffffffffffffffffffffffffffffffffffffff1660015f9054906101000a900473ffffffffffffffffffffffffffffffffffffffff168861153a565b50610b14565b5f73ffffffffffffffffffffffffffffffffffffffff168773ffffffffffffffffffffffffffffffffffffffff1614610b0f57610b095f8054906101000a900473ffffffffffffffffffffffffffffffffffffffff16888861153a565b50610b13565b3490505b5b5f610b22828c8c888861167d565b90506040518061010001604052806001151581526020018381526020018973ffffffffffffffffffffffffffffffffffffffff1681526020018281526020018b81526020018a60ff1681526020018c815260200187151581525060048d604051610b8c91906122fa565b90815260200160405180910390205f820151815f015f6101000a81548160ff021916908315150217905550602082015181600101556040820151816002015f6101000a81548173ffffffffffffffffffffffffffffffffffffffff021916908373ffffffffffffffffffffffffffffffffffffffff160217905550606082015181600301556080820151816004015560a0820151816005015560c0820151816006015560e0820151816007015f6101000a81548160ff021916908315150217905550905050610c5a8c6116a7565b8b604051610c6891906122fa565b60405180910390207f4ad85a69286191006ea05981ae1848070dbf232e5e00ffdda4b857c16097f0d7888a604051610ca192919061252b565b60405180910390a26001925050509998505050505050505050565b60035481565b610cca6119fe565b600482604051610cda91906122fa565b9081526020016040518091039020604051806101000160405290815f82015f9054906101000a900460ff1615151515815260200160018201548152602001600282015f9054906101000a900473ffffffffffffffffffffffffffffffffffffffff1673ffffffffffffffffffffffffffffffffffffffff1673ffffffffffffffffffffffffffffffffffffffff16815260200160038201548152602001600482015481526020016005820154815260200160068201548152602001600782015f9054906101000a900460ff1615151515815250509050919050565b5f600482604051610dc691906122fa565b9081526020016040518091039020600301549050919050565b60025f9054906101000a900473ffffffffffffffffffffffffffffffffffffffff1681565b60015f9054906101000a900473ffffffffffffffffffffffffffffffffffffffff1681565b610e31611a55565b60056040518060200160405290815f8201805480602002602001604051908101604052809291908181526020015f905b82821015610f09578382905f5260205f20018054610e7e9061257f565b80601f0160208091040260200160405190810160405280929190818152602001828054610eaa9061257f565b8015610ef55780601f10610ecc57610100808354040283529160200191610ef5565b820191905f5260205f20905b815481529060010190602001808311610ed857829003601f168201915b505050505081526020019060010190610e61565b5050505081525050905090565b5f805f9054906101000a900473ffffffffffffffffffffffffffffffffffffffff1673ffffffffffffffffffffffffffffffffffffffff163373ffffffffffffffffffffffffffffffffffffffff1614610f9c576040517f229e1dbd00000000000000000000000000000000000000000000000000000000815260040160405180910390fd5b5f600486604051610fad91906122fa565b90815260200160405180910390209050805f015f9054906101000a900460ff16611003576040517fd63d1e4800000000000000000000000000000000000000000000000000000000815260040160405180910390fd5b8060060154421115611041576040517f6f7eac2600000000000000000000000000000000000000000000000000000000815260040160405180910390fd5b5f8073ffffffffffffffffffffffffffffffffffffffff16826002015f9054906101000a900473ffffffffffffffffffffffffffffffffffffffff1673ffffffffffffffffffffffffffffffffffffffff16149050816007015f9054906101000a900460ff16156110fd576110f75f8054906101000a900473ffffffffffffffffffffffffffffffffffffffff1660015f9054906101000a900473ffffffffffffffffffffffffffffffffffffffff168861153a565b5061119d565b806111555761114f5f8054906101000a900473ffffffffffffffffffffffffffffffffffffffff16836002015f9054906101000a900473ffffffffffffffffffffffffffffffffffffffff168861153a565b5061119c565b85341015611198576040517f08c379a000000000000000000000000000000000000000000000000000000000815260040161118f9061261f565b60405180910390fd5b3495505b5b5f6111af87846006015442898961167d565b90508083600301546111c1919061263d565b83600301819055508683600101546111d9919061263d565b8360010181905550826004896040516111f291906122fa565b90815260200160405180910390205f82015f9054906101000a900460ff16815f015f6101000a81548160ff02191690831515021790555060018201548160010155600282015f9054906101000a900473ffffffffffffffffffffffffffffffffffffffff16816002015f6101000a81548173ffffffffffffffffffffffffffffffffffffffff021916908373ffffffffffffffffffffffffffffffffffffffff16021790555060038201548160030155600482015481600401556005820154816005015560068201548160060155600782015f9054906101000a900460ff16816007015f6101000a81548160ff021916908315150217905550905050876040516112fc91906122fa565b60405180910390207ff6b98d8e0d83f8b1d1ff03a2fa36aba2c77ccf20e4ff035c0cf4aa92762e9eec888560010154866002015f9054906101000a900473ffffffffffffffffffffffffffffffffffffffff1660405161135e93929190612670565b60405180910390a282600301549350505050949350505050565b5f60048260405161138991906122fa565b90815260200160405180910390206002015f9054906101000a900473ffffffffffffffffffffffffffffffffffffffff169050919050565b5f808290508073ffffffffffffffffffffffffffffffffffffffff1663095ea7b386866040518363ffffffff1660e01b81526004016114019291906126a5565b6020604051808303815f875af115801561141d573d5f803e3d5ffd5b505050506040513d601f19601f820116820180604052508101906114419190612457565b9150509392505050565b5f808490508073ffffffffffffffffffffffffffffffffffffffff1663a9059cbb85856040518363ffffffff1660e01b815260040161148b9291906126a5565b6020604051808303815f875af11580156114a7573d5f803e3d5ffd5b505050506040513d601f19601f820116820180604052508101906114cb9190612457565b91508373ffffffffffffffffffffffffffffffffffffffff163073ffffffffffffffffffffffffffffffffffffffff167f42856d0378dde02337bb59ae41747abc77ded8ebdbbc5cbdd1e53693b75549388560405161152a9190611f69565b60405180910390a3509392505050565b5f818373ffffffffffffffffffffffffffffffffffffffff1663dd62ed3e86306040518363ffffffff1660e01b81526004016115779291906126cc565b602060405180830381865afa158015611592573d5f803e3d5ffd5b505050506040513d601f19601f820116820180604052508101906115b69190612707565b10156115f7576040517f08c379a00000000000000000000000000000000000000000000000000000000081526004016115ee9061277c565b60405180910390fd5b8273ffffffffffffffffffffffffffffffffffffffff166323b872dd8530856040518463ffffffff1660e01b81526004016116349392919061279a565b6020604051808303815f875af1158015611650573d5f803e3d5ffd5b505050506040513d601f19601f820116820180604052508101906116749190612457565b90509392505050565b5f61169586858761168e919061233d565b85856116de565b90508060038190555095945050505050565b60055f0181908060018154018082558091505060019003905f5260205f20015f9091909190915090816116da9190612963565b5050565b5f806117146064611706868762e4e1c06116f8919061233d565b6117a890919063ffffffff16565b6117c490919063ffffffff16565b90505f61173984836117269190612370565b6305f5e1006117a890919063ffffffff16565b90505f6117536301e13380886117a890919063ffffffff16565b905061179b611796683635c9adc5dea0000060646117719190612370565b83858c61177e9190612370565b6117889190612370565b6117a890919063ffffffff16565b6117d7565b9350505050949350505050565b5f6117bc83670de0b6b3a7640000846117f8565b905092915050565b5f6117cf8383611906565b905092915050565b5f670de0b6b3a764000082816117f0576117ef6123b1565b5b049050919050565b5f805f80198587098587029250828110838203039150505f810361183057838281611826576118256123b1565b5b04925050506118ff565b8381106118765780846040517f773cc18c00000000000000000000000000000000000000000000000000000000815260040161186d929190612a32565b60405180910390fd5b5f8486880990508281118203915080830392505f60018619018616905080860495508084049350600181825f0304019050808302841793505f600287600302189050808702600203810290508087026002038102905080870260020381029050808702600203810290508087026002038102905080870260020381029050808502955050505050505b9392505050565b5f805f8019848609848602925082811083820303915050670de0b6b3a7640000811061196957806040517fd31b34020000000000000000000000000000000000000000000000000000000081526004016119609190611f69565b60405180910390fd5b5f80670de0b6b3a764000086880991506706f05b59d3b1ffff821190505f83036119b35780670de0b6b3a764000085816119a6576119a56123b1565b5b04019450505050506119f8565b807faccb18165bd6fe31ae1cf318dc5b51eee0e1ba569b88cd74c1773b91fac10669600162040000805f03040186851186030262040000858803041702019450505050505b92915050565b6040518061010001604052805f151581526020015f81526020015f73ffffffffffffffffffffffffffffffffffffffff1681526020015f81526020015f81526020015f81526020015f81526020015f151581525090565b6040518060200160405280606081525090565b5f604051905090565b5f80fd5b5f80fd5b5f80fd5b5f80fd5b5f601f19601f8301169050919050565b7f4e487b71000000000000000000000000000000000000000000000000000000005f52604160045260245ffd5b611ac782611a81565b810181811067ffffffffffffffff82111715611ae657611ae5611a91565b5b80604052505050565b5f611af8611a68565b9050611b048282611abe565b919050565b5f67ffffffffffffffff821115611b2357611b22611a91565b5b611b2c82611a81565b9050602081019050919050565b828183375f83830152505050565b5f611b59611b5484611b09565b611aef565b905082815260208101848484011115611b7557611b74611a7d565b5b611b80848285611b39565b509392505050565b5f82601f830112611b9c57611b9b611a79565b5b8135611bac848260208601611b47565b91505092915050565b5f60208284031215611bca57611bc9611a71565b5b5f82013567ffffffffffffffff811115611be757611be6611a75565b5b611bf384828501611b88565b91505092915050565b5f8115159050919050565b611c1081611bfc565b82525050565b5f819050919050565b611c2881611c16565b82525050565b5f73ffffffffffffffffffffffffffffffffffffffff82169050919050565b5f611c5782611c2e565b9050919050565b611c6781611c4d565b82525050565b5f61010082019050611c815f83018b611c07565b611c8e602083018a611c1f565b611c9b6040830189611c5e565b611ca86060830188611c1f565b611cb56080830187611c1f565b611cc260a0830186611c1f565b611ccf60c0830185611c1f565b611cdc60e0830184611c07565b9998505050505050505050565b5f602082019050611cfc5f830184611c07565b92915050565b5f611d0c82611c2e565b9050919050565b611d1c81611d02565b82525050565b5f602082019050611d355f830184611d13565b92915050565b5f81519050919050565b5f82825260208201905092915050565b5f5b83811015611d72578082015181840152602081019050611d57565b5f8484015250505050565b5f611d8782611d3b565b611d918185611d45565b9350611da1818560208601611d55565b611daa81611a81565b840191505092915050565b5f6020820190508181035f830152611dcd8184611d7d565b905092915050565b611dde81611c16565b8114611de8575f80fd5b50565b5f81359050611df981611dd5565b92915050565b5f60ff82169050919050565b611e1481611dff565b8114611e1e575f80fd5b50565b5f81359050611e2f81611e0b565b92915050565b611e3e81611c4d565b8114611e48575f80fd5b50565b5f81359050611e5981611e35565b92915050565b611e6881611bfc565b8114611e72575f80fd5b50565b5f81359050611e8381611e5f565b92915050565b5f805f805f805f805f6101208a8c031215611ea757611ea6611a71565b5b5f8a013567ffffffffffffffff811115611ec457611ec3611a75565b5b611ed08c828d01611b88565b9950506020611ee18c828d01611deb565b9850506040611ef28c828d01611deb565b9750506060611f038c828d01611e21565b9650506080611f148c828d01611e4b565b95505060a0611f258c828d01611deb565b94505060c0611f368c828d01611e75565b93505060e0611f478c828d01611deb565b925050610100611f598c828d01611deb565b9150509295985092959850929598565b5f602082019050611f7c5f830184611c1f565b92915050565b611f8b81611bfc565b82525050565b611f9a81611c16565b82525050565b611fa981611c4d565b82525050565b61010082015f820151611fc45f850182611f82565b506020820151611fd76020850182611f91565b506040820151611fea6040850182611fa0565b506060820151611ffd6060850182611f91565b5060808201516120106080850182611f91565b5060a082015161202360a0850182611f91565b5060c082015161203660c0850182611f91565b5060e082015161204960e0850182611f82565b50505050565b5f610100820190506120635f830184611faf565b92915050565b5f60208201905061207c5f830184611c5e565b92915050565b5f819050919050565b5f6120a56120a061209b84611c2e565b612082565b611c2e565b9050919050565b5f6120b68261208b565b9050919050565b5f6120c7826120ac565b9050919050565b6120d7816120bd565b82525050565b5f6020820190506120f05f8301846120ce565b92915050565b5f81519050919050565b5f82825260208201905092915050565b5f819050602082019050919050565b5f82825260208201905092915050565b5f61213982611d3b565b612143818561211f565b9350612153818560208601611d55565b61215c81611a81565b840191505092915050565b5f612172838361212f565b905092915050565b5f602082019050919050565b5f612190826120f6565b61219a8185612100565b9350836020820285016121ac85612110565b805f5b858110156121e757848403895281516121c88582612167565b94506121d38361217a565b925060208a019950506001810190506121af565b50829750879550505050505092915050565b5f602083015f8301518482035f8601526122138282612186565b9150508091505092915050565b5f6020820190508181035f83015261223881846121f9565b905092915050565b5f805f806080858703121561225857612257611a71565b5b5f85013567ffffffffffffffff81111561227557612274611a75565b5b61228187828801611b88565b945050602061229287828801611deb565b93505060406122a387828801611deb565b92505060606122b487828801611deb565b91505092959194509250565b5f81905092915050565b5f6122d482611d3b565b6122de81856122c0565b93506122ee818560208601611d55565b80840191505092915050565b5f61230582846122ca565b915081905092915050565b7f4e487b71000000000000000000000000000000000000000000000000000000005f52601160045260245ffd5b5f61234782611c16565b915061235283611c16565b925082820390508181111561236a57612369612310565b5b92915050565b5f61237a82611c16565b915061238583611c16565b925082820261239381611c16565b915082820484148315176123aa576123a9612310565b5b5092915050565b7f4e487b71000000000000000000000000000000000000000000000000000000005f52601260045260245ffd5b5f6123e882611c16565b91506123f383611c16565b925082612403576124026123b1565b5b828204905092915050565b5f6060820190506124215f830186611c5e565b61242e6020830185611c1f565b61243b6040830184611c5e565b949350505050565b5f8151905061245181611e5f565b92915050565b5f6020828403121561246c5761246b611a71565b5b5f61247984828501612443565b91505092915050565b5f81905092915050565b50565b5f61249a5f83612482565b91506124a58261248c565b5f82019050919050565b5f6124b98261248f565b9150819050919050565b7f436f756c646e27742073656e642066756e6473000000000000000000000000005f82015250565b5f6124f7601383611d45565b9150612502826124c3565b602082019050919050565b5f6020820190508181035f830152612524816124eb565b9050919050565b5f60408201905061253e5f830185611c1f565b61254b6020830184611c5e565b9392505050565b7f4e487b71000000000000000000000000000000000000000000000000000000005f52602260045260245ffd5b5f600282049050600182168061259657607f821691505b6020821081036125a9576125a8612552565b5b50919050565b7f496e76616c696420736176696e6720696e6372656d656e742076616c756520735f8201527f656e740000000000000000000000000000000000000000000000000000000000602082015250565b5f612609602383611d45565b9150612614826125af565b604082019050919050565b5f6020820190508181035f830152612636816125fd565b9050919050565b5f61264782611c16565b915061265283611c16565b925082820190508082111561266a57612669612310565b5b92915050565b5f6060820190506126835f830186611c1f565b6126906020830185611c1f565b61269d6040830184611c5e565b949350505050565b5f6040820190506126b85f830185611c5e565b6126c56020830184611c1f565b9392505050565b5f6040820190506126df5f830185611c5e565b6126ec6020830184611c5e565b9392505050565b5f8151905061270181611dd5565b92915050565b5f6020828403121561271c5761271b611a71565b5b5f612729848285016126f3565b91505092915050565b7f546f6b656e20636f756c64206e6f742062652077697468647261776e000000005f82015250565b5f612766601c83611d45565b915061277182612732565b602082019050919050565b5f6020820190508181035f8301526127938161275a565b9050919050565b5f6060820190506127ad5f830186611c5e565b6127ba6020830185611c5e565b6127c76040830184611c1f565b949350505050565b5f819050815f5260205f209050919050565b5f6020601f8301049050919050565b5f82821b905092915050565b5f6008830261282b7fffffffffffffffffffffffffffffffffffffffffffffffffffffffffffffffff826127f0565b61283586836127f0565b95508019841693508086168417925050509392505050565b5f61286761286261285d84611c16565b612082565b611c16565b9050919050565b5f819050919050565b6128808361284d565b61289461288c8261286e565b8484546127fc565b825550505050565b5f90565b6128a861289c565b6128b3818484612877565b505050565b5b818110156128d6576128cb5f826128a0565b6001810190506128b9565b5050565b601f82111561291b576128ec816127cf565b6128f5846127e1565b81016020851015612904578190505b612918612910856127e1565b8301826128b8565b50505b505050565b5f82821c905092915050565b5f61293b5f1984600802612920565b1980831691505092915050565b5f612953838361292c565b9150826002028217905092915050565b61296c82611d3b565b67ffffffffffffffff81111561298557612984611a91565b5b61298f825461257f565b61299a8282856128da565b5f60209050601f8311600181146129cb575f84156129b9578287015190505b6129c38582612948565b865550612a2a565b601f1984166129d9866127cf565b5f5b82811015612a00578489015182556001820191506020850194506020810190506129db565b86831015612a1d5784890151612a19601f89168261292c565b8355505b6001600288020188555050505b505050505050565b5f604082019050612a455f830185611c1f565b612a526020830184611c1f565b939250505056fea2646970667358221220e0ca9a1679c27488efd2385463b74c225a81814773373ad9221dc077c854ae8b64736f6c63430008170033a2646970667358221220258c381d5d31275b35d6e20629ed99345c9014edda74e75fcc27cd31f06a85e364736f6c63430008170033","linkReferences":{}},"methodIdentifiers":{"ChildContractGasFee()":"bf66bfc7","ChildCutPerFee()":"09a5ff8c","JoinLimitFee()":"84762b0b","SavingFee()":"fed0b925","createSaving(string,uint256,uint8,bool,address,uint256)":"6405350a","csToken()":"e04605fd","currentTotalValueLocked()":"02500739","currentVaultState()":"4c3fa304","dripFountain()":"d5633e96","editFees(uint256,uint256,uint256)":"a63748e5","editInternalData(uint256,uint256,address)":"7679489c","editStableCoin(address)":"9986e0e9","fountain()":"f24053b3","getUserChildContractAddress()":"ea413672","incrementSaving(string,address,uint256)":"1fdc181f","joinBitsave()":"16f94d5d","masterAddress()":"d365a08e","rewardPool()":"66666aa9","sendAsOriginalToken(address,uint256,address)":"de35c372","stableCoin()":"992642e5","userCount()":"07973ccf","withdrawSaving(string)":"372f9101"},"id":34}