{"abi":[{"type":"constructor","inputs":[{"name":"_stableCoin","type":"address","internalType":"address"},{"name":"_csToken","type":"address","internalType":"address"}],"stateMutability":"payable"},{"type":"receive","stateMutability":"payable"},{"type":"function","name":"ChildContractGasFee","inputs":[],"outputs":[{"name":"","type":"uint256","internalType":"uint256"}],"stateMutability":"view"},{"type":"function","name":"ChildCutPerFee","inputs":[],"outputs":[{"name":"","type":"uint256","internalType":"uint256"}],"stateMutability":"view"},{"type":"function","name":"JoinLimitFee","inputs":[],"outputs":[{"name":"","type":"uint256","internalType":"uint256"}],"stateMutability":"view"},{"type":"function","name":"SavingFee","inputs":[],"outputs":[{"name":"","type":"uint256","internalType":"uint256"}],"stateMutability":"view"},{"type":"function","name":"createSaving","inputs":[{"name":"nameOfSaving","type":"string","internalType":"string"},{"name":"maturityTime","type":"uint256","internalType":"uint256"},{"name":"penaltyPercentage","type":"uint8","internalType":"uint8"},{"name":"safeMode","type":"bool","internalType":"bool"},{"name":"tokenToSave","type":"address","internalType":"address"},{"name":"amount","type":"uint256","internalType":"uint256"}],"outputs":[],"stateMutability":"payable"},{"type":"function","name":"csToken","inputs":[],"outputs":[{"name":"","type":"address","internalType":"contract IERC20"}],"stateMutability":"view"},{"type":"function","name":"currentTotalValueLocked","inputs":[],"outputs":[{"name":"","type":"uint256","internalType":"uint256"}],"stateMutability":"view"},{"type":"function","name":"currentVaultState","inputs":[],"outputs":[{"name":"","type":"uint256","internalType":"uint256"}],"stateMutability":"view"},{"type":"function","name":"dripFountain","inputs":[{"name":"token","type":"address","internalType":"address"}],"outputs":[],"stateMutability":"nonpayable"},{"type":"function","name":"editFees","inputs":[{"name":"_joinFee","type":"uint256","internalType":"uint256"},{"name":"_savingFee","type":"uint256","internalType":"uint256"},{"name":"_childCutPerFee","type":"uint256","internalType":"uint256"}],"outputs":[],"stateMutability":"nonpayable"},{"type":"function","name":"editInternalData","inputs":[{"name":"_newCurrentVaultState","type":"uint256","internalType":"uint256"},{"name":"_newTotalValueLocked","type":"uint256","internalType":"uint256"},{"name":"_newCsToken","type":"address","internalType":"address"}],"outputs":[],"stateMutability":"nonpayable"},{"type":"function","name":"editStableCoin","inputs":[{"name":"_newStableCoin","type":"address","internalType":"address"}],"outputs":[],"stateMutability":"nonpayable"},{"type":"function","name":"fountain","inputs":[],"outputs":[{"name":"","type":"uint256","internalType":"uint256"}],"stateMutability":"view"},{"type":"function","name":"getUserChildContractAddress","inputs":[],"outputs":[{"name":"","type":"address","internalType":"address"}],"stateMutability":"view"},{"type":"function","name":"incrementSaving","inputs":[{"name":"nameOfSavings","type":"string","internalType":"string"},{"name":"tokenToRetrieve","type":"address","internalType":"address"},{"name":"amount","type":"uint256","internalType":"uint256"}],"outputs":[],"stateMutability":"payable"},{"type":"function","name":"joinBitsave","inputs":[],"outputs":[{"name":"","type":"address","internalType":"address"}],"stateMutability":"payable"},{"type":"function","name":"masterAddress","inputs":[],"outputs":[{"name":"","type":"address","internalType":"address"}],"stateMutability":"view"},{"type":"function","name":"rewardPool","inputs":[],"outputs":[{"name":"","type":"uint256","internalType":"uint256"}],"stateMutability":"view"},{"type":"function","name":"sendAsOriginalToken","inputs":[{"name":"originalToken","type":"address","internalType":"address"},{"name":"amount","type":"uint256","internalType":"uint256"},{"name":"ownerAddress","type":"address","internalType":"address"}],"outputs":[{"name":"","type":"bool","internalType":"bool"}],"stateMutability":"payable"},{"type":"function","name":"stableCoin","inputs":[],"outputs":[{"name":"","type":"address","internalType":"contract IERC20"}],"stateMutability":"view"},{"type":"function","name":"userCount","inputs":[],"outputs":[{"name":"","type":"uint256","internalType":"uint256"}],"stateMutability":"view"},{"type":"function","name":"withdrawSaving","inputs":[{"name":"nameOfSavings","type":"string","internalType":"string"}],"outputs":[{"name":"","type":"bool","internalType":"bool"}],"stateMutability":"nonpayable"},{"type":"event","name":"JoinedBitsave","inputs":[{"name":"userAddress","type":"address","indexed":true,"internalType":"address"}],"anonymous":false},{"type":"event","name":"SavingCreated","inputs":[{"name":"nameOfSaving","type":"string","indexed":true,"internalType":"string"},{"name":"amount","type":"uint256","indexed":false,"internalType":"uint256"},{"name":"token","type":"address","indexed":false,"internalType":"address"}],"anonymous":false},{"type":"event","name":"SavingIncremented","inputs":[{"name":"nameOfSaving","type":"string","indexed":true,"internalType":"string"},{"name":"amountAdded","type":"uint256","indexed":false,"internalType":"uint256"},{"name":"totalAmountNow","type":"uint256","indexed":false,"internalType":"uint256"},{"name":"token","type":"address","indexed":false,"internalType":"address"}],"anonymous":false},{"type":"event","name":"SavingWithdrawn","inputs":[{"name":"nameOfSaving","type":"string","indexed":true,"internalType":"string"}],"anonymous":false},{"type":"event","name":"SystemFaucetDrip","inputs":[{"name":"token","type":"address","indexed":true,"internalType":"address"},{"name":"value","type":"uint256","indexed":false,"internalType":"uint256"}],"anonymous":false},{"type":"event","name":"TokenWithdrawal","inputs":[{"name":"from","type":"address","indexed":true,"internalType":"address"},{"name":"to","type":"address","indexed":true,"internalType":"address"},{"name":"amount","type":"uint256","indexed":false,"internalType":"uint256"}],"anonymous":false},{"type":"error","name":"AmountNotEnough","inputs":[]},{"type":"error","name":"CallNotFromBitsave","inputs":[]},{"type":"error","name":"CanNotWithdrawToken","inputs":[{"name":"","type":"address","internalType":"address"}]},{"type":"error","name":"InvalidTime","inputs":[]},{"type":"error","name":"MasterCallRequired","inputs":[]},{"type":"error","name":"NotEnoughToPayGasFee","inputs":[]},{"type":"error","name":"NotSupported","inputs":[{"name":"","type":"string","internalType":"string"}]},{"type":"error","name":"UserNotRegistered","inputs":[]}],"bytecode":{"object":"0x60806040525f600955655af3107a4000600a556032600b55600b54600a546100279190610170565b600c556040516157e73803806157e7833981810160405281019061004b91906101fe565b815f5f6101000a81548173ffffffffffffffffffffffffffffffffffffffff021916908373ffffffffffffffffffffffffffffffffffffffff1602179055508060015f6101000a81548173ffffffffffffffffffffffffffffffffffffffff021916908373ffffffffffffffffffffffffffffffffffffffff1602179055503360025f6101000a81548173ffffffffffffffffffffffffffffffffffffffff021916908373ffffffffffffffffffffffffffffffffffffffff1602179055505f6003819055505f60068190555062d59f80600781905550620186a060088190555034600481905550505061023c565b5f819050919050565b7f4e487b71000000000000000000000000000000000000000000000000000000005f52601260045260245ffd5b5f61017a8261013a565b91506101858361013a565b92508261019557610194610143565b5b828204905092915050565b5f5ffd5b5f73ffffffffffffffffffffffffffffffffffffffff82169050919050565b5f6101cd826101a4565b9050919050565b6101dd816101c3565b81146101e7575f5ffd5b50565b5f815190506101f8816101d4565b92915050565b5f5f60408385031215610214576102136101a0565b5b5f610221858286016101ea565b9250506020610232858286016101ea565b9150509250929050565b61559e806102495f395ff3fe608060405260043610610138575f3560e01c806384762b0b116100aa578063d365a08e1161006e578063d365a08e146103c5578063de35c372146103ef578063e04605fd1461041f578063ea41367214610449578063f24053b314610473578063fed0b9251461049d5761013f565b806384762b0b146102f7578063992642e5146103215780639986e0e91461034b578063a63748e514610373578063bf66bfc71461039b5761013f565b8063372f9101116100fc578063372f9101146101fb5780634c3fa3041461023757806352f44e2e146102615780636405350a1461028957806366666aa9146102a55780637679489c146102cf5761013f565b8063025007391461014357806307973ccf1461016d57806309a5ff8c1461019757806316f94d5d146101c15780631fdc181f146101df5761013f565b3661013f57005b5f5ffd5b34801561014e575f5ffd5b506101576104c7565b6040516101649190611c87565b60405180910390f35b348015610178575f5ffd5b506101816104cd565b60405161018e9190611c87565b60405180910390f35b3480156101a2575f5ffd5b506101ab6104d3565b6040516101b89190611c87565b60405180910390f35b6101c96104d9565b6040516101d69190611cdf565b60405180910390f35b6101f960048036038101906101f49190611e99565b6106ee565b005b348015610206575f5ffd5b50610221600480360381019061021c9190611f05565b610b3c565b60405161022e9190611f66565b60405180910390f35b348015610242575f5ffd5b5061024b610d29565b6040516102589190611c87565b60405180910390f35b34801561026c575f5ffd5b5061028760048036038101906102829190611f7f565b610d2f565b005b6102a3600480360381019061029e919061200a565b610fbb565b005b3480156102b0575f5ffd5b506102b9611277565b6040516102c69190611c87565b60405180910390f35b3480156102da575f5ffd5b506102f560048036038101906102f091906120af565b61127d565b005b348015610302575f5ffd5b5061030b61138a565b6040516103189190611c87565b60405180910390f35b34801561032c575f5ffd5b50610335611390565b604051610342919061215a565b60405180910390f35b348015610356575f5ffd5b50610371600480360381019061036c9190611f7f565b6113b4565b005b34801561037e575f5ffd5b5061039960048036038101906103949190612173565b6114b0565b005b3480156103a6575f5ffd5b506103af611570565b6040516103bc9190611c87565b60405180910390f35b3480156103d0575f5ffd5b506103d9611576565b6040516103e69190611cdf565b60405180910390f35b610409600480360381019061040491906121c3565b61159b565b6040516104169190611f66565b60405180910390f35b34801561042a575f5ffd5b506104336116d0565b604051610440919061215a565b60405180910390f35b348015610454575f5ffd5b5061045d6116f5565b60405161046a9190611cdf565b60405180910390f35b34801561047e575f5ffd5b50610487611758565b6040516104949190611c87565b60405180910390f35b3480156104a8575f5ffd5b506104b161175e565b6040516104be9190611c87565b60405180910390f35b60085481565b60065481565b600b5481565b5f5f3390505f60055f8373ffffffffffffffffffffffffffffffffffffffff1673ffffffffffffffffffffffffffffffffffffffff1681526020019081526020015f205f9054906101000a900473ffffffffffffffffffffffffffffffffffffffff1690505f73ffffffffffffffffffffffffffffffffffffffff168173ffffffffffffffffffffffffffffffffffffffff161461057b5780925050506106eb565b6009543410156105b7576040517fcb6e851c00000000000000000000000000000000000000000000000000000000815260040160405180910390fd5b5f335f5f9054906101000a900473ffffffffffffffffffffffffffffffffffffffff166040516105e690611c62565b6105f1929190612213565b604051809103905ff08015801561060a573d5f5f3e3d5ffd5b5090508060055f8573ffffffffffffffffffffffffffffffffffffffff1673ffffffffffffffffffffffffffffffffffffffff1681526020019081526020015f205f6101000a81548173ffffffffffffffffffffffffffffffffffffffff021916908373ffffffffffffffffffffffffffffffffffffffff160217905550600160065f82825461069a9190612267565b925050819055508273ffffffffffffffffffffffffffffffffffffffff167f0c5c0c4d53b63790e32770cf47fd115d706000fd7ab63fbdc8d176c5020d6b4660405160405180910390a28093505050505b90565b335f73ffffffffffffffffffffffffffffffffffffffff1660055f8373ffffffffffffffffffffffffffffffffffffffff1673ffffffffffffffffffffffffffffffffffffffff1681526020019081526020015f205f9054906101000a900473ffffffffffffffffffffffffffffffffffffffff1673ffffffffffffffffffffffffffffffffffffffff16036107b0576040517f2163950f00000000000000000000000000000000000000000000000000000000815260040160405180910390fd5b5f60055f3373ffffffffffffffffffffffffffffffffffffffff1673ffffffffffffffffffffffffffffffffffffffff1681526020019081526020015f205f9054906101000a900473ffffffffffffffffffffffffffffffffffffffff1690505f8190505f8173ffffffffffffffffffffffffffffffffffffffff1663e18f5f65886040518263ffffffff1660e01b815260040161084e91906122fa565b602060405180830381865afa158015610869573d5f5f3e3d5ffd5b505050506040513d601f19601f8201168201806040525081019061088d919061232e565b90505f5f73ffffffffffffffffffffffffffffffffffffffff168273ffffffffffffffffffffffffffffffffffffffff161490505f8690505f8473ffffffffffffffffffffffffffffffffffffffff16631bb862a58b6040518263ffffffff1660e01b81526004016108ff91906122fa565b602060405180830381865afa15801561091a573d5f5f3e3d5ffd5b505050506040513d601f19601f8201168201806040525081019061093e919061236d565b9050801561096a575f5f9054906101000a900473ffffffffffffffffffffffffffffffffffffffff1698505b826109be5761097a86838b611764565b6109b9576040517f08c379a00000000000000000000000000000000000000000000000000000000081526004016109b0906123e2565b60405180910390fd5b6109c2565b3491505b5f6109ce8986896117ee565b90508573ffffffffffffffffffffffffffffffffffffffff1663dc2379b9856109f7575f6109f9565b845b8d8c6007546008546040518663ffffffff1660e01b8152600401610a209493929190612400565b60206040518083038185885af1158015610a3c573d5f5f3e3d5ffd5b50505050506040513d601f19601f82011682018060405250810190610a61919061245e565b505f8673ffffffffffffffffffffffffffffffffffffffff1663e0ea6d408d6040518263ffffffff1660e01b8152600401610a9c91906122fa565b602060405180830381865afa158015610ab7573d5f5f3e3d5ffd5b505050506040513d601f19601f82011682018060405250810190610adb919061245e565b90508b604051610aeb91906124c3565b60405180910390207ff6b98d8e0d83f8b1d1ff03a2fa36aba2c77ccf20e4ff035c0cf4aa92762e9eec8b838e604051610b26939291906124d9565b60405180910390a2505050505050505050505050565b5f335f73ffffffffffffffffffffffffffffffffffffffff1660055f8373ffffffffffffffffffffffffffffffffffffffff1673ffffffffffffffffffffffffffffffffffffffff1681526020019081526020015f205f9054906101000a900473ffffffffffffffffffffffffffffffffffffffff1673ffffffffffffffffffffffffffffffffffffffff1603610bff576040517f2163950f00000000000000000000000000000000000000000000000000000000815260040160405180910390fd5b5f60055f3373ffffffffffffffffffffffffffffffffffffffff1673ffffffffffffffffffffffffffffffffffffffff1681526020019081526020015f205f9054906101000a900473ffffffffffffffffffffffffffffffffffffffff1690508073ffffffffffffffffffffffffffffffffffffffff1663372f9101856040518263ffffffff1660e01b8152600401610c9891906122fa565b5f604051808303815f875af1158015610cb3573d5f5f3e3d5ffd5b505050506040513d5f823e3d601f19601f82011682018060405250810190610cdb919061257c565b5083604051610cea91906124c3565b60405180910390207f5b059b7fe1fea38d4de595079621498a365a8f1fa13e49af9f1e4b7197ab049a60405160405180910390a2600192505050919050565b60075481565b60025f9054906101000a900473ffffffffffffffffffffffffffffffffffffffff1673ffffffffffffffffffffffffffffffffffffffff163373ffffffffffffffffffffffffffffffffffffffff1614610db5576040517f33662b3400000000000000000000000000000000000000000000000000000000815260040160405180910390fd5b5f73ffffffffffffffffffffffffffffffffffffffff168173ffffffffffffffffffffffffffffffffffffffff1603610f2f575f479050600454811115610ece575f60025f9054906101000a900473ffffffffffffffffffffffffffffffffffffffff1673ffffffffffffffffffffffffffffffffffffffff1660045483610e3d91906125c3565b604051610e4990612623565b5f6040518083038185875af1925050503d805f8114610e83576040519150601f19603f3d011682016040523d82523d5f602084013e610e88565b606091505b5050905080610ecc576040517f08c379a0000000000000000000000000000000000000000000000000000000008152600401610ec390612681565b60405180910390fd5b505b8173ffffffffffffffffffffffffffffffffffffffff167fd8f920438b608c18ec52a9849fb52ba6f6bb47bf274f468d46f748340caefdb260045483610f1491906125c3565b604051610f219190611c87565b60405180910390a250610fb8565b5f610f3982611942565b9050610f678260025f9054906101000a900473ffffffffffffffffffffffffffffffffffffffff16836119c7565b508173ffffffffffffffffffffffffffffffffffffffff167fd8f920438b608c18ec52a9849fb52ba6f6bb47bf274f468d46f748340caefdb282604051610fae9190611c87565b60405180910390a2505b50565b335f73ffffffffffffffffffffffffffffffffffffffff1660055f8373ffffffffffffffffffffffffffffffffffffffff1673ffffffffffffffffffffffffffffffffffffffff1681526020019081526020015f205f9054906101000a900473ffffffffffffffffffffffffffffffffffffffff1673ffffffffffffffffffffffffffffffffffffffff160361107d576040517f2163950f00000000000000000000000000000000000000000000000000000000815260040160405180910390fd5b600a543410156110b9576040517fd0c279a200000000000000000000000000000000000000000000000000000000815260040160405180910390fd5b854211156110f3576040517f6f7eac2600000000000000000000000000000000000000000000000000000000815260040160405180910390fd5b8315611134576040517f329e2f1500000000000000000000000000000000000000000000000000000000815260040161112b906126e9565b60405180910390fd5b5f61113e33611ab6565b90505f61114c8486846117ee565b90505f8290508073ffffffffffffffffffffffffffffffffffffffff1663436d4a6d5f73ffffffffffffffffffffffffffffffffffffffff168873ffffffffffffffffffffffffffffffffffffffff16146111a7575f6111a9565b835b8c8c428d8c898f6007546008546040518b63ffffffff1660e01b81526004016111da99989796959493929190612716565b60206040518083038185885af11580156111f6573d5f5f3e3d5ffd5b50505050506040513d601f19601f8201168201806040525081019061121b919061245e565b508960405161122a91906124c3565b60405180910390207f4ad85a69286191006ea05981ae1848070dbf232e5e00ffdda4b857c16097f0d783886040516112639291906127a8565b60405180910390a250505050505050505050565b60035481565b60025f9054906101000a900473ffffffffffffffffffffffffffffffffffffffff1673ffffffffffffffffffffffffffffffffffffffff163373ffffffffffffffffffffffffffffffffffffffff1614611303576040517f33662b3400000000000000000000000000000000000000000000000000000000815260040160405180910390fd5b82600781905550816008819055505f73ffffffffffffffffffffffffffffffffffffffff168173ffffffffffffffffffffffffffffffffffffffff1614611385578060015f6101000a81548173ffffffffffffffffffffffffffffffffffffffff021916908373ffffffffffffffffffffffffffffffffffffffff1602179055505b505050565b60095481565b5f5f9054906101000a900473ffffffffffffffffffffffffffffffffffffffff1681565b60025f9054906101000a900473ffffffffffffffffffffffffffffffffffffffff1673ffffffffffffffffffffffffffffffffffffffff163373ffffffffffffffffffffffffffffffffffffffff161461143a576040517f33662b3400000000000000000000000000000000000000000000000000000000815260040160405180910390fd5b5f73ffffffffffffffffffffffffffffffffffffffff168173ffffffffffffffffffffffffffffffffffffffff16146114ad57805f5f6101000a81548173ffffffffffffffffffffffffffffffffffffffff021916908373ffffffffffffffffffffffffffffffffffffffff1602179055505b50565b60025f9054906101000a900473ffffffffffffffffffffffffffffffffffffffff1673ffffffffffffffffffffffffffffffffffffffff163373ffffffffffffffffffffffffffffffffffffffff1614611536576040517f33662b3400000000000000000000000000000000000000000000000000000000815260040160405180910390fd5b8260098190555081600a8190555080600b819055505f811461156357808261155e91906127fc565b611565565b5f5b600c81905550505050565b600c5481565b60025f9054906101000a900473ffffffffffffffffffffffffffffffffffffffff1681565b5f815f60055f8373ffffffffffffffffffffffffffffffffffffffff1673ffffffffffffffffffffffffffffffffffffffff1681526020019081526020015f205f9054906101000a900473ffffffffffffffffffffffffffffffffffffffff1690505f73ffffffffffffffffffffffffffffffffffffffff168173ffffffffffffffffffffffffffffffffffffffff16148061166357503373ffffffffffffffffffffffffffffffffffffffff168173ffffffffffffffffffffffffffffffffffffffff1614155b1561169a576040517f229e1dbd00000000000000000000000000000000000000000000000000000000815260040160405180910390fd5b6116c5335f5f9054906101000a900473ffffffffffffffffffffffffffffffffffffffff1687611b1b565b925050509392505050565b60015f9054906101000a900473ffffffffffffffffffffffffffffffffffffffff1681565b5f60055f3373ffffffffffffffffffffffffffffffffffffffff1673ffffffffffffffffffffffffffffffffffffffff1681526020019081526020015f205f9054906101000a900473ffffffffffffffffffffffffffffffffffffffff16905090565b60045481565b600a5481565b5f5f8290508073ffffffffffffffffffffffffffffffffffffffff1663095ea7b386866040518363ffffffff1660e01b81526004016117a492919061282c565b6020604051808303815f875af11580156117c0573d5f5f3e3d5ffd5b505050506040513d601f19601f820116820180604052508101906117e4919061236d565b9150509392505050565b5f5f73ffffffffffffffffffffffffffffffffffffffff168373ffffffffffffffffffffffffffffffffffffffff1614611927575f61182e338587611b1b565b90508061187257836040517fa3adb6570000000000000000000000000000000000000000000000000000000081526004016118699190611cdf565b60405180910390fd5b3073ffffffffffffffffffffffffffffffffffffffff163373ffffffffffffffffffffffffffffffffffffffff167f42856d0378dde02337bb59ae41747abc77ded8ebdbbc5cbdd1e53693b7554938876040516118cf9190611c87565b60405180910390a36118e2838686611764565b611921576040517f08c379a0000000000000000000000000000000000000000000000000000000008152600401611918906123e2565b60405180910390fd5b50611938565b600a543461193591906125c3565b93505b8390509392505050565b5f5f8290508073ffffffffffffffffffffffffffffffffffffffff166370a08231306040518263ffffffff1660e01b81526004016119809190611cdf565b602060405180830381865afa15801561199b573d5f5f3e3d5ffd5b505050506040513d601f19601f820116820180604052508101906119bf919061245e565b915050919050565b5f5f8490508073ffffffffffffffffffffffffffffffffffffffff1663a9059cbb85856040518363ffffffff1660e01b8152600401611a0792919061282c565b6020604051808303815f875af1158015611a23573d5f5f3e3d5ffd5b505050506040513d601f19601f82011682018060405250810190611a47919061236d565b91508373ffffffffffffffffffffffffffffffffffffffff163073ffffffffffffffffffffffffffffffffffffffff167f42856d0378dde02337bb59ae41747abc77ded8ebdbbc5cbdd1e53693b755493885604051611aa69190611c87565b60405180910390a3509392505050565b5f60055f8373ffffffffffffffffffffffffffffffffffffffff1673ffffffffffffffffffffffffffffffffffffffff1681526020019081526020015f205f9054906101000a900473ffffffffffffffffffffffffffffffffffffffff169050919050565b5f818373ffffffffffffffffffffffffffffffffffffffff1663dd62ed3e86306040518363ffffffff1660e01b8152600401611b58929190612213565b602060405180830381865afa158015611b73573d5f5f3e3d5ffd5b505050506040513d601f19601f82011682018060405250810190611b97919061245e565b10158390611bdb576040517fa3adb657000000000000000000000000000000000000000000000000000000008152600401611bd29190611cdf565b60405180910390fd5b508273ffffffffffffffffffffffffffffffffffffffff166323b872dd8530856040518463ffffffff1660e01b8152600401611c1993929190612853565b6020604051808303815f875af1158015611c35573d5f5f3e3d5ffd5b505050506040513d601f19601f82011682018060405250810190611c59919061236d565b90509392505050565b612ce08061288983390190565b5f819050919050565b611c8181611c6f565b82525050565b5f602082019050611c9a5f830184611c78565b92915050565b5f73ffffffffffffffffffffffffffffffffffffffff82169050919050565b5f611cc982611ca0565b9050919050565b611cd981611cbf565b82525050565b5f602082019050611cf25f830184611cd0565b92915050565b5f604051905090565b5f5ffd5b5f5ffd5b5f5ffd5b5f5ffd5b5f601f19601f8301169050919050565b7f4e487b71000000000000000000000000000000000000000000000000000000005f52604160045260245ffd5b611d5782611d11565b810181811067ffffffffffffffff82111715611d7657611d75611d21565b5b80604052505050565b5f611d88611cf8565b9050611d948282611d4e565b919050565b5f67ffffffffffffffff821115611db357611db2611d21565b5b611dbc82611d11565b9050602081019050919050565b828183375f83830152505050565b5f611de9611de484611d99565b611d7f565b905082815260208101848484011115611e0557611e04611d0d565b5b611e10848285611dc9565b509392505050565b5f82601f830112611e2c57611e2b611d09565b5b8135611e3c848260208601611dd7565b91505092915050565b611e4e81611cbf565b8114611e58575f5ffd5b50565b5f81359050611e6981611e45565b92915050565b611e7881611c6f565b8114611e82575f5ffd5b50565b5f81359050611e9381611e6f565b92915050565b5f5f5f60608486031215611eb057611eaf611d01565b5b5f84013567ffffffffffffffff811115611ecd57611ecc611d05565b5b611ed986828701611e18565b9350506020611eea86828701611e5b565b9250506040611efb86828701611e85565b9150509250925092565b5f60208284031215611f1a57611f19611d01565b5b5f82013567ffffffffffffffff811115611f3757611f36611d05565b5b611f4384828501611e18565b91505092915050565b5f8115159050919050565b611f6081611f4c565b82525050565b5f602082019050611f795f830184611f57565b92915050565b5f60208284031215611f9457611f93611d01565b5b5f611fa184828501611e5b565b91505092915050565b5f60ff82169050919050565b611fbf81611faa565b8114611fc9575f5ffd5b50565b5f81359050611fda81611fb6565b92915050565b611fe981611f4c565b8114611ff3575f5ffd5b50565b5f8135905061200481611fe0565b92915050565b5f5f5f5f5f5f60c0878903121561202457612023611d01565b5b5f87013567ffffffffffffffff81111561204157612040611d05565b5b61204d89828a01611e18565b965050602061205e89828a01611e85565b955050604061206f89828a01611fcc565b945050606061208089828a01611ff6565b935050608061209189828a01611e5b565b92505060a06120a289828a01611e85565b9150509295509295509295565b5f5f5f606084860312156120c6576120c5611d01565b5b5f6120d386828701611e85565b93505060206120e486828701611e85565b92505060406120f586828701611e5b565b9150509250925092565b5f819050919050565b5f61212261211d61211884611ca0565b6120ff565b611ca0565b9050919050565b5f61213382612108565b9050919050565b5f61214482612129565b9050919050565b6121548161213a565b82525050565b5f60208201905061216d5f83018461214b565b92915050565b5f5f5f6060848603121561218a57612189611d01565b5b5f61219786828701611e85565b93505060206121a886828701611e85565b92505060406121b986828701611e85565b9150509250925092565b5f5f5f606084860312156121da576121d9611d01565b5b5f6121e786828701611e5b565b93505060206121f886828701611e85565b925050604061220986828701611e5b565b9150509250925092565b5f6040820190506122265f830185611cd0565b6122336020830184611cd0565b9392505050565b7f4e487b71000000000000000000000000000000000000000000000000000000005f52601160045260245ffd5b5f61227182611c6f565b915061227c83611c6f565b92508282019050808211156122945761229361223a565b5b92915050565b5f81519050919050565b5f82825260208201905092915050565b8281835e5f83830152505050565b5f6122cc8261229a565b6122d681856122a4565b93506122e68185602086016122b4565b6122ef81611d11565b840191505092915050565b5f6020820190508181035f83015261231281846122c2565b905092915050565b5f8151905061232881611e45565b92915050565b5f6020828403121561234357612342611d01565b5b5f6123508482850161231a565b91505092915050565b5f8151905061236781611fe0565b92915050565b5f6020828403121561238257612381611d01565b5b5f61238f84828501612359565b91505092915050565b7f536176696e677320696e76616c696400000000000000000000000000000000005f82015250565b5f6123cc600f836122a4565b91506123d782612398565b602082019050919050565b5f6020820190508181035f8301526123f9816123c0565b9050919050565b5f6080820190508181035f83015261241881876122c2565b90506124276020830186611c78565b6124346040830185611c78565b6124416060830184611c78565b95945050505050565b5f8151905061245881611e6f565b92915050565b5f6020828403121561247357612472611d01565b5b5f6124808482850161244a565b91505092915050565b5f81905092915050565b5f61249d8261229a565b6124a78185612489565b93506124b78185602086016122b4565b80840191505092915050565b5f6124ce8284612493565b915081905092915050565b5f6060820190506124ec5f830186611c78565b6124f96020830185611c78565b6125066040830184611cd0565b949350505050565b5f61252061251b84611d99565b611d7f565b90508281526020810184848401111561253c5761253b611d0d565b5b6125478482856122b4565b509392505050565b5f82601f83011261256357612562611d09565b5b815161257384826020860161250e565b91505092915050565b5f6020828403121561259157612590611d01565b5b5f82015167ffffffffffffffff8111156125ae576125ad611d05565b5b6125ba8482850161254f565b91505092915050565b5f6125cd82611c6f565b91506125d883611c6f565b92508282039050818111156125f0576125ef61223a565b5b92915050565b5f81905092915050565b50565b5f61260e5f836125f6565b915061261982612600565b5f82019050919050565b5f61262d82612603565b9150819050919050565b7f7472616e73666572206661696c656400000000000000000000000000000000005f82015250565b5f61266b600f836122a4565b915061267682612637565b602082019050919050565b5f6020820190508181035f8301526126988161265f565b9050919050565b7f4e6f2073616665206d6f646520796574210000000000000000000000000000005f82015250565b5f6126d36011836122a4565b91506126de8261269f565b602082019050919050565b5f6020820190508181035f830152612700816126c7565b9050919050565b61271081611faa565b82525050565b5f610120820190508181035f83015261272f818c6122c2565b905061273e602083018b611c78565b61274b604083018a611c78565b6127586060830189612707565b6127656080830188611cd0565b61277260a0830187611c78565b61277f60c0830186611f57565b61278c60e0830185611c78565b61279a610100830184611c78565b9a9950505050505050505050565b5f6040820190506127bb5f830185611c78565b6127c86020830184611cd0565b9392505050565b7f4e487b71000000000000000000000000000000000000000000000000000000005f52601260045260245ffd5b5f61280682611c6f565b915061281183611c6f565b925082612821576128206127cf565b5b828204905092915050565b5f60408201905061283f5f830185611cd0565b61284c6020830184611c78565b9392505050565b5f6060820190506128665f830186611cd0565b6128736020830185611cd0565b6128806040830184611c78565b94935050505056fe6080604052604051612ce0380380612ce083398181016040528101906100259190610150565b335f5f6101000a81548173ffffffffffffffffffffffffffffffffffffffff021916908373ffffffffffffffffffffffffffffffffffffffff1602179055508160025f6101000a81548173ffffffffffffffffffffffffffffffffffffffff021916908373ffffffffffffffffffffffffffffffffffffffff1602179055508060015f6101000a81548173ffffffffffffffffffffffffffffffffffffffff021916908373ffffffffffffffffffffffffffffffffffffffff1602179055505f600381905550505061018e565b5f5ffd5b5f73ffffffffffffffffffffffffffffffffffffffff82169050919050565b5f61011f826100f6565b9050919050565b61012f81610115565b8114610139575f5ffd5b50565b5f8151905061014a81610126565b92915050565b5f5f60408385031215610166576101656100f2565b5b5f6101738582860161013c565b92505060206101848582860161013c565b9150509250929050565b612b458061019b5f395ff3fe6080604052600436106100dc575f3560e01c806384febb691161007e578063d1ece79011610058578063d1ece790146102df578063dc2379b914610309578063e0ea6d4014610339578063e18f5f6514610375576100dc565b806384febb691461024f5780638f84aa091461028b578063992642e5146102b5576100dc565b8063372f9101116100ba578063372f910114610189578063436d4a6d146101b9578063567142be146101e9578063585dbffe14610213576100dc565b806313203929146100e05780631bb862a5146101235780632ae3c90f1461015f575b5f5ffd5b3480156100eb575f5ffd5b5061010660048036038101906101019190611cea565b6103b1565b60405161011a989796959493929190611da2565b60405180910390f35b34801561012e575f5ffd5b5061014960048036038101906101449190611cea565b610444565b6040516101569190611e1e565b60405180910390f35b34801561016a575f5ffd5b5061017361047a565b6040516101809190611e57565b60405180910390f35b6101a3600480360381019061019e9190611cea565b61049e565b6040516101b09190611ed0565b60405180910390f35b6101d360048036038101906101ce9190611fa4565b6109e5565b6040516101e09190612084565b60405180910390f35b3480156101f4575f5ffd5b506101fd610db0565b60405161020a9190612084565b60405180910390f35b34801561021e575f5ffd5b5061023960048036038101906102349190611cea565b610db6565b604051610246919061216a565b60405180910390f35b34801561025a575f5ffd5b5061027560048036038101906102709190611cea565b610ea9565b6040516102829190612084565b60405180910390f35b348015610296575f5ffd5b5061029f610ed3565b6040516102ac9190612184565b60405180910390f35b3480156102c0575f5ffd5b506102c9610ef8565b6040516102d691906121f8565b60405180910390f35b3480156102ea575f5ffd5b506102f3610f1d565b604051610300919061233b565b60405180910390f35b610323600480360381019061031e919061235b565b61100a565b6040516103309190612084565b60405180910390f35b348015610344575f5ffd5b5061035f600480360381019061035a9190611cea565b61146e565b60405161036c9190612084565b60405180910390f35b348015610380575f5ffd5b5061039b60048036038101906103969190611cea565b611498565b6040516103a89190612184565b60405180910390f35b6004818051602081018201805184825260208301602085012081835280955050505050505f91509050805f015f9054906101000a900460ff1690806001015490806002015f9054906101000a900473ffffffffffffffffffffffffffffffffffffffff1690806003015490806004015490806005015490806006015490806007015f9054906101000a900460ff16905088565b5f6004826040516104559190612415565b90815260200160405180910390206007015f9054906101000a900460ff169050919050565b5f5f9054906101000a900473ffffffffffffffffffffffffffffffffffffffff1681565b60605f5f9054906101000a900473ffffffffffffffffffffffffffffffffffffffff1673ffffffffffffffffffffffffffffffffffffffff163373ffffffffffffffffffffffffffffffffffffffff1614610525576040517f229e1dbd00000000000000000000000000000000000000000000000000000000815260040160405180910390fd5b5f6004836040516105369190612415565b90815260200160405180910390209050805f015f9054906101000a900460ff1661058c576040517fd63d1e4800000000000000000000000000000000000000000000000000000000815260040160405180910390fd5b5f816001015490505f5f5f9054906101000a900473ffffffffffffffffffffffffffffffffffffffff1690508260060154421015610655576064836005015460646105d79190612458565b84600101546105e6919061248b565b6105f091906124f9565b915061064f836002015f9054906101000a900473ffffffffffffffffffffffffffffffffffffffff165f5f9054906101000a900473ffffffffffffffffffffffffffffffffffffffff1684866001015461064a9190612458565b6114e1565b50610656565b5b5f6004866040516106679190612415565b90815260200160405180910390205f015f6101000a81548160ff0219169083151502179055505f836002015f9054906101000a900473ffffffffffffffffffffffffffffffffffffffff1690505f5f9050846007015f9054906101000a900460ff16156107c05761071a5f5f9054906101000a900473ffffffffffffffffffffffffffffffffffffffff168560015f9054906101000a900473ffffffffffffffffffffffffffffffffffffffff166115d0565b508273ffffffffffffffffffffffffffffffffffffffff1663de35c372838660025f9054906101000a900473ffffffffffffffffffffffffffffffffffffffff166040518463ffffffff1660e01b815260040161077993929190612529565b6020604051808303815f875af1158015610795573d5f5f3e3d5ffd5b505050506040513d601f19601f820116820180604052508101906107b99190612572565b905061091b565b5f73ffffffffffffffffffffffffffffffffffffffff168273ffffffffffffffffffffffffffffffffffffffff16036108c8575f5f60025f9054906101000a900473ffffffffffffffffffffffffffffffffffffffff1673ffffffffffffffffffffffffffffffffffffffff168660405161083a906125ca565b5f6040518083038185875af1925050503d805f8114610874576040519150601f19603f3d011682016040523d82523d5f602084013e610879565b606091505b5091509150816108be576040517f08c379a00000000000000000000000000000000000000000000000000000000081526004016108b590612628565b60405180910390fd5b819250505061091a565b610917856002015f9054906101000a900473ffffffffffffffffffffffffffffffffffffffff1660025f9054906101000a900473ffffffffffffffffffffffffffffffffffffffff16866114e1565b90505b5b80156109dc575f6004886040516109329190612415565b90815260200160405180910390205f015f6101000a81548160ff021916908315150217905550866040516109669190612415565b60405180910390207f5b059b7fe1fea38d4de595079621498a365a8f1fa13e49af9f1e4b7197ab049a60405160405180910390a26040518060400160405280601e81526020017f736176696e67732077697468647261776e207375636365737366756c6c790000815250955050505050506109e0565b5f5ffd5b919050565b5f5f5f9054906101000a900473ffffffffffffffffffffffffffffffffffffffff1673ffffffffffffffffffffffffffffffffffffffff163373ffffffffffffffffffffffffffffffffffffffff1614610a6b576040517f229e1dbd00000000000000000000000000000000000000000000000000000000815260040160405180910390fd5b60048a604051610a7b9190612415565b90815260200160405180910390205f015f9054906101000a900460ff1615610acf576040517fd63d1e4800000000000000000000000000000000000000000000000000000000815260040160405180910390fd5b87891015610b09576040517f6f7eac2600000000000000000000000000000000000000000000000000000000815260040160405180910390fd5b42891015610b43576040517f6f7eac2600000000000000000000000000000000000000000000000000000000815260040160405180910390fd5b5f8590508415610b9f57610b995f5f9054906101000a900473ffffffffffffffffffffffffffffffffffffffff1660015f9054906101000a900473ffffffffffffffffffffffffffffffffffffffff168861165a565b50610c08565b5f73ffffffffffffffffffffffffffffffffffffffff168773ffffffffffffffffffffffffffffffffffffffff1614610c0357610bfd5f5f9054906101000a900473ffffffffffffffffffffffffffffffffffffffff16888861165a565b50610c07565b3490505b5b5f610c16828c8c88886117a1565b90506040518061010001604052806001151581526020018381526020018973ffffffffffffffffffffffffffffffffffffffff1681526020018281526020018b81526020018a60ff1681526020018c815260200187151581525060048d604051610c809190612415565b90815260200160405180910390205f820151815f015f6101000a81548160ff021916908315150217905550602082015181600101556040820151816002015f6101000a81548173ffffffffffffffffffffffffffffffffffffffff021916908373ffffffffffffffffffffffffffffffffffffffff160217905550606082015181600301556080820151816004015560a0820151816005015560c0820151816006015560e0820151816007015f6101000a81548160ff021916908315150217905550905050610d4e8c6117dc565b8b604051610d5c9190612415565b60405180910390207f4ad85a69286191006ea05981ae1848070dbf232e5e00ffdda4b857c16097f0d7888a604051610d95929190612646565b60405180910390a26001925050509998505050505050505050565b60035481565b610dbe611b33565b600482604051610dce9190612415565b9081526020016040518091039020604051806101000160405290815f82015f9054906101000a900460ff1615151515815260200160018201548152602001600282015f9054906101000a900473ffffffffffffffffffffffffffffffffffffffff1673ffffffffffffffffffffffffffffffffffffffff1673ffffffffffffffffffffffffffffffffffffffff16815260200160038201548152602001600482015481526020016005820154815260200160068201548152602001600782015f9054906101000a900460ff1615151515815250509050919050565b5f600482604051610eba9190612415565b9081526020016040518091039020600301549050919050565b60025f9054906101000a900473ffffffffffffffffffffffffffffffffffffffff1681565b60015f9054906101000a900473ffffffffffffffffffffffffffffffffffffffff1681565b610f25611b8a565b60056040518060200160405290815f8201805480602002602001604051908101604052809291908181526020015f905b82821015610ffd578382905f5260205f20018054610f729061269a565b80601f0160208091040260200160405190810160405280929190818152602001828054610f9e9061269a565b8015610fe95780601f10610fc057610100808354040283529160200191610fe9565b820191905f5260205f20905b815481529060010190602001808311610fcc57829003601f168201915b505050505081526020019060010190610f55565b5050505081525050905090565b5f5f5f9054906101000a900473ffffffffffffffffffffffffffffffffffffffff1673ffffffffffffffffffffffffffffffffffffffff163373ffffffffffffffffffffffffffffffffffffffff1614611090576040517f229e1dbd00000000000000000000000000000000000000000000000000000000815260040160405180910390fd5b5f6004866040516110a19190612415565b90815260200160405180910390209050805f015f9054906101000a900460ff166110f7576040517fd63d1e4800000000000000000000000000000000000000000000000000000000815260040160405180910390fd5b8060060154421115611135576040517f6f7eac2600000000000000000000000000000000000000000000000000000000815260040160405180910390fd5b5f5f73ffffffffffffffffffffffffffffffffffffffff16826002015f9054906101000a900473ffffffffffffffffffffffffffffffffffffffff1673ffffffffffffffffffffffffffffffffffffffff16149050816007015f9054906101000a900460ff16156111f2576111ec5f5f9054906101000a900473ffffffffffffffffffffffffffffffffffffffff1660015f9054906101000a900473ffffffffffffffffffffffffffffffffffffffff168861165a565b50611293565b8061124b576112455f5f9054906101000a900473ffffffffffffffffffffffffffffffffffffffff16836002015f9054906101000a900473ffffffffffffffffffffffffffffffffffffffff168861165a565b50611292565b8534101561128e576040517f08c379a00000000000000000000000000000000000000000000000000000000081526004016112859061273a565b60405180910390fd5b3495505b5b5f6112a58784600601544289896117a1565b90508083600301546112b79190612758565b83600301819055508683600101546112cf9190612758565b8360010181905550826004896040516112e89190612415565b90815260200160405180910390205f82015f9054906101000a900460ff16815f015f6101000a81548160ff02191690831515021790555060018201548160010155600282015f9054906101000a900473ffffffffffffffffffffffffffffffffffffffff16816002015f6101000a81548173ffffffffffffffffffffffffffffffffffffffff021916908373ffffffffffffffffffffffffffffffffffffffff16021790555060038201548160030155600482015481600401556005820154816005015560068201548160060155600782015f9054906101000a900460ff16816007015f6101000a81548160ff021916908315150217905550905050876040516113f29190612415565b60405180910390207ff6b98d8e0d83f8b1d1ff03a2fa36aba2c77ccf20e4ff035c0cf4aa92762e9eec888560010154866002015f9054906101000a900473ffffffffffffffffffffffffffffffffffffffff166040516114549392919061278b565b60405180910390a282600301549350505050949350505050565b5f60048260405161147f9190612415565b9081526020016040518091039020600101549050919050565b5f6004826040516114a99190612415565b90815260200160405180910390206002015f9054906101000a900473ffffffffffffffffffffffffffffffffffffffff169050919050565b5f5f8490508073ffffffffffffffffffffffffffffffffffffffff1663a9059cbb85856040518363ffffffff1660e01b81526004016115219291906127c0565b6020604051808303815f875af115801561153d573d5f5f3e3d5ffd5b505050506040513d601f19601f820116820180604052508101906115619190612572565b91508373ffffffffffffffffffffffffffffffffffffffff163073ffffffffffffffffffffffffffffffffffffffff167f42856d0378dde02337bb59ae41747abc77ded8ebdbbc5cbdd1e53693b7554938856040516115c09190612084565b60405180910390a3509392505050565b5f5f8290508073ffffffffffffffffffffffffffffffffffffffff1663095ea7b386866040518363ffffffff1660e01b81526004016116109291906127c0565b6020604051808303815f875af115801561162c573d5f5f3e3d5ffd5b505050506040513d601f19601f820116820180604052508101906116509190612572565b9150509392505050565b5f818373ffffffffffffffffffffffffffffffffffffffff1663dd62ed3e86306040518363ffffffff1660e01b81526004016116979291906127e7565b602060405180830381865afa1580156116b2573d5f5f3e3d5ffd5b505050506040513d601f19601f820116820180604052508101906116d69190612822565b1015839061171a576040517fa3adb6570000000000000000000000000000000000000000000000000000000081526004016117119190612184565b60405180910390fd5b508273ffffffffffffffffffffffffffffffffffffffff166323b872dd8530856040518463ffffffff1660e01b81526004016117589392919061284d565b6020604051808303815f875af1158015611774573d5f5f3e3d5ffd5b505050506040513d601f19601f820116820180604052508101906117989190612572565b90509392505050565b5f6117b98685876117b29190612458565b8585611813565b90508060035f8282546117cc9190612758565b9250508190555095945050505050565b60055f0181908060018154018082558091505060019003905f5260205f20015f90919091909150908161180f9190612a19565b5050565b5f5f611849606461183b868762e4e1c061182d9190612458565b6118dd90919063ffffffff16565b6118f990919063ffffffff16565b90505f61186e848361185b919061248b565b6305f5e1006118dd90919063ffffffff16565b90505f6118886301e13380886118dd90919063ffffffff16565b90506118d06118cb683635c9adc5dea0000060646118a6919061248b565b83858c6118b3919061248b565b6118bd919061248b565b6118dd90919063ffffffff16565b61190c565b9350505050949350505050565b5f6118f183670de0b6b3a76400008461192d565b905092915050565b5f6119048383611a3b565b905092915050565b5f670de0b6b3a76400008281611925576119246124cc565b5b049050919050565b5f5f5f5f198587098587029250828110838203039150505f81036119655783828161195b5761195a6124cc565b5b0492505050611a34565b8381106119ab5780846040517f773cc18c0000000000000000000000000000000000000000000000000000000081526004016119a2929190612ae8565b60405180910390fd5b5f8486880990508281118203915080830392505f60018619018616905080860495508084049350600181825f0304019050808302841793505f600287600302189050808702600203810290508087026002038102905080870260020381029050808702600203810290508087026002038102905080870260020381029050808502955050505050505b9392505050565b5f5f5f5f19848609848602925082811083820303915050670de0b6b3a76400008110611a9e57806040517fd31b3402000000000000000000000000000000000000000000000000000000008152600401611a959190612084565b60405180910390fd5b5f5f670de0b6b3a764000086880991506706f05b59d3b1ffff821190505f8303611ae85780670de0b6b3a76400008581611adb57611ada6124cc565b5b0401945050505050611b2d565b807faccb18165bd6fe31ae1cf318dc5b51eee0e1ba569b88cd74c1773b91fac10669600162040000805f03040186851186030262040000858803041702019450505050505b92915050565b6040518061010001604052805f151581526020015f81526020015f73ffffffffffffffffffffffffffffffffffffffff1681526020015f81526020015f81526020015f81526020015f81526020015f151581525090565b6040518060200160405280606081525090565b5f604051905090565b5f5ffd5b5f5ffd5b5f5ffd5b5f5ffd5b5f601f19601f8301169050919050565b7f4e487b71000000000000000000000000000000000000000000000000000000005f52604160045260245ffd5b611bfc82611bb6565b810181811067ffffffffffffffff82111715611c1b57611c1a611bc6565b5b80604052505050565b5f611c2d611b9d565b9050611c398282611bf3565b919050565b5f67ffffffffffffffff821115611c5857611c57611bc6565b5b611c6182611bb6565b9050602081019050919050565b828183375f83830152505050565b5f611c8e611c8984611c3e565b611c24565b905082815260208101848484011115611caa57611ca9611bb2565b5b611cb5848285611c6e565b509392505050565b5f82601f830112611cd157611cd0611bae565b5b8135611ce1848260208601611c7c565b91505092915050565b5f60208284031215611cff57611cfe611ba6565b5b5f82013567ffffffffffffffff811115611d1c57611d1b611baa565b5b611d2884828501611cbd565b91505092915050565b5f8115159050919050565b611d4581611d31565b82525050565b5f819050919050565b611d5d81611d4b565b82525050565b5f73ffffffffffffffffffffffffffffffffffffffff82169050919050565b5f611d8c82611d63565b9050919050565b611d9c81611d82565b82525050565b5f61010082019050611db65f83018b611d3c565b611dc3602083018a611d54565b611dd06040830189611d93565b611ddd6060830188611d54565b611dea6080830187611d54565b611df760a0830186611d54565b611e0460c0830185611d54565b611e1160e0830184611d3c565b9998505050505050505050565b5f602082019050611e315f830184611d3c565b92915050565b5f611e4182611d63565b9050919050565b611e5181611e37565b82525050565b5f602082019050611e6a5f830184611e48565b92915050565b5f81519050919050565b5f82825260208201905092915050565b8281835e5f83830152505050565b5f611ea282611e70565b611eac8185611e7a565b9350611ebc818560208601611e8a565b611ec581611bb6565b840191505092915050565b5f6020820190508181035f830152611ee88184611e98565b905092915050565b611ef981611d4b565b8114611f03575f5ffd5b50565b5f81359050611f1481611ef0565b92915050565b5f60ff82169050919050565b611f2f81611f1a565b8114611f39575f5ffd5b50565b5f81359050611f4a81611f26565b92915050565b611f5981611d82565b8114611f63575f5ffd5b50565b5f81359050611f7481611f50565b92915050565b611f8381611d31565b8114611f8d575f5ffd5b50565b5f81359050611f9e81611f7a565b92915050565b5f5f5f5f5f5f5f5f5f6101208a8c031215611fc257611fc1611ba6565b5b5f8a013567ffffffffffffffff811115611fdf57611fde611baa565b5b611feb8c828d01611cbd565b9950506020611ffc8c828d01611f06565b985050604061200d8c828d01611f06565b975050606061201e8c828d01611f3c565b965050608061202f8c828d01611f66565b95505060a06120408c828d01611f06565b94505060c06120518c828d01611f90565b93505060e06120628c828d01611f06565b9250506101006120748c828d01611f06565b9150509295985092959850929598565b5f6020820190506120975f830184611d54565b92915050565b6120a681611d31565b82525050565b6120b581611d4b565b82525050565b6120c481611d82565b82525050565b61010082015f8201516120df5f85018261209d565b5060208201516120f260208501826120ac565b50604082015161210560408501826120bb565b50606082015161211860608501826120ac565b50608082015161212b60808501826120ac565b5060a082015161213e60a08501826120ac565b5060c082015161215160c08501826120ac565b5060e082015161216460e085018261209d565b50505050565b5f6101008201905061217e5f8301846120ca565b92915050565b5f6020820190506121975f830184611d93565b92915050565b5f819050919050565b5f6121c06121bb6121b684611d63565b61219d565b611d63565b9050919050565b5f6121d1826121a6565b9050919050565b5f6121e2826121c7565b9050919050565b6121f2816121d8565b82525050565b5f60208201905061220b5f8301846121e9565b92915050565b5f81519050919050565b5f82825260208201905092915050565b5f819050602082019050919050565b5f82825260208201905092915050565b5f61225482611e70565b61225e818561223a565b935061226e818560208601611e8a565b61227781611bb6565b840191505092915050565b5f61228d838361224a565b905092915050565b5f602082019050919050565b5f6122ab82612211565b6122b5818561221b565b9350836020820285016122c78561222b565b805f5b8581101561230257848403895281516122e38582612282565b94506122ee83612295565b925060208a019950506001810190506122ca565b50829750879550505050505092915050565b5f602083015f8301518482035f86015261232e82826122a1565b9150508091505092915050565b5f6020820190508181035f8301526123538184612314565b905092915050565b5f5f5f5f6080858703121561237357612372611ba6565b5b5f85013567ffffffffffffffff8111156123905761238f611baa565b5b61239c87828801611cbd565b94505060206123ad87828801611f06565b93505060406123be87828801611f06565b92505060606123cf87828801611f06565b91505092959194509250565b5f81905092915050565b5f6123ef82611e70565b6123f981856123db565b9350612409818560208601611e8a565b80840191505092915050565b5f61242082846123e5565b915081905092915050565b7f4e487b71000000000000000000000000000000000000000000000000000000005f52601160045260245ffd5b5f61246282611d4b565b915061246d83611d4b565b92508282039050818111156124855761248461242b565b5b92915050565b5f61249582611d4b565b91506124a083611d4b565b92508282026124ae81611d4b565b915082820484148315176124c5576124c461242b565b5b5092915050565b7f4e487b71000000000000000000000000000000000000000000000000000000005f52601260045260245ffd5b5f61250382611d4b565b915061250e83611d4b565b92508261251e5761251d6124cc565b5b828204905092915050565b5f60608201905061253c5f830186611d93565b6125496020830185611d54565b6125566040830184611d93565b949350505050565b5f8151905061256c81611f7a565b92915050565b5f6020828403121561258757612586611ba6565b5b5f6125948482850161255e565b91505092915050565b5f81905092915050565b50565b5f6125b55f8361259d565b91506125c0826125a7565b5f82019050919050565b5f6125d4826125aa565b9150819050919050565b7f436f756c646e27742073656e642066756e6473000000000000000000000000005f82015250565b5f612612601383611e7a565b915061261d826125de565b602082019050919050565b5f6020820190508181035f83015261263f81612606565b9050919050565b5f6040820190506126595f830185611d54565b6126666020830184611d93565b9392505050565b7f4e487b71000000000000000000000000000000000000000000000000000000005f52602260045260245ffd5b5f60028204905060018216806126b157607f821691505b6020821081036126c4576126c361266d565b5b50919050565b7f496e76616c696420736176696e6720696e6372656d656e742076616c756520735f8201527f656e740000000000000000000000000000000000000000000000000000000000602082015250565b5f612724602383611e7a565b915061272f826126ca565b604082019050919050565b5f6020820190508181035f83015261275181612718565b9050919050565b5f61276282611d4b565b915061276d83611d4b565b92508282019050808211156127855761278461242b565b5b92915050565b5f60608201905061279e5f830186611d54565b6127ab6020830185611d54565b6127b86040830184611d93565b949350505050565b5f6040820190506127d35f830185611d93565b6127e06020830184611d54565b9392505050565b5f6040820190506127fa5f830185611d93565b6128076020830184611d93565b9392505050565b5f8151905061281c81611ef0565b92915050565b5f6020828403121561283757612836611ba6565b5b5f6128448482850161280e565b91505092915050565b5f6060820190506128605f830186611d93565b61286d6020830185611d93565b61287a6040830184611d54565b949350505050565b5f819050815f5260205f209050919050565b5f6020601f8301049050919050565b5f82821b905092915050565b5f600883026128de7fffffffffffffffffffffffffffffffffffffffffffffffffffffffffffffffff826128a3565b6128e886836128a3565b95508019841693508086168417925050509392505050565b5f61291a61291561291084611d4b565b61219d565b611d4b565b9050919050565b5f819050919050565b61293383612900565b61294761293f82612921565b8484546128af565b825550505050565b5f5f905090565b61295e61294f565b61296981848461292a565b505050565b5b8181101561298c576129815f82612956565b60018101905061296f565b5050565b601f8211156129d1576129a281612882565b6129ab84612894565b810160208510156129ba578190505b6129ce6129c685612894565b83018261296e565b50505b505050565b5f82821c905092915050565b5f6129f15f19846008026129d6565b1980831691505092915050565b5f612a0983836129e2565b9150826002028217905092915050565b612a2282611e70565b67ffffffffffffffff811115612a3b57612a3a611bc6565b5b612a45825461269a565b612a50828285612990565b5f60209050601f831160018114612a81575f8415612a6f578287015190505b612a7985826129fe565b865550612ae0565b601f198416612a8f86612882565b5f5b82811015612ab657848901518255600182019150602085019450602081019050612a91565b86831015612ad35784890151612acf601f8916826129e2565b8355505b6001600288020188555050505b505050505050565b5f604082019050612afb5f830185611d54565b612b086020830184611d54565b939250505056fea26469706673582212203c4b5a5c148a5a780bdda489208be74e117946065f4ef4c5b59b32d106d9295e64736f6c634300081b0033a2646970667358221220dc10d5675293ffd6bd41e440cb13cc2488ec903a809ddbdca7c9f4269b69574564736f6c634300081b0033","linkReferences":{}},"methodIdentifiers":{"ChildContractGasFee()":"bf66bfc7","ChildCutPerFee()":"09a5ff8c","JoinLimitFee()":"84762b0b","SavingFee()":"fed0b925","createSaving(string,uint256,uint8,bool,address,uint256)":"6405350a","csToken()":"e04605fd","currentTotalValueLocked()":"02500739","currentVaultState()":"4c3fa304","dripFountain(address)":"52f44e2e","editFees(uint256,uint256,uint256)":"a63748e5","editInternalData(uint256,uint256,address)":"7679489c","editStableCoin(address)":"9986e0e9","fountain()":"f24053b3","getUserChildContractAddress()":"ea413672","incrementSaving(string,address,uint256)":"1fdc181f","joinBitsave()":"16f94d5d","masterAddress()":"d365a08e","rewardPool()":"66666aa9","sendAsOriginalToken(address,uint256,address)":"de35c372","stableCoin()":"992642e5","userCount()":"07973ccf","withdrawSaving(string)":"372f9101"},"id":39}