{"abi":[{"type":"constructor","inputs":[{"name":"_stableCoin","type":"address","internalType":"address"},{"name":"_csToken","type":"address","internalType":"address"}],"stateMutability":"payable"},{"type":"receive","stateMutability":"payable"},{"type":"function","name":"ChildContractGasFee","inputs":[],"outputs":[{"name":"","type":"uint256","internalType":"uint256"}],"stateMutability":"view"},{"type":"function","name":"ChildCutPerFee","inputs":[],"outputs":[{"name":"","type":"uint256","internalType":"uint256"}],"stateMutability":"view"},{"type":"function","name":"JoinLimitFee","inputs":[],"outputs":[{"name":"","type":"uint256","internalType":"uint256"}],"stateMutability":"view"},{"type":"function","name":"SavingFee","inputs":[],"outputs":[{"name":"","type":"uint256","internalType":"uint256"}],"stateMutability":"view"},{"type":"function","name":"createSaving","inputs":[{"name":"nameOfSaving","type":"string","internalType":"string"},{"name":"maturityTime","type":"uint256","internalType":"uint256"},{"name":"penaltyPercentage","type":"uint8","internalType":"uint8"},{"name":"safeMode","type":"bool","internalType":"bool"},{"name":"tokenToSave","type":"address","internalType":"address"},{"name":"amount","type":"uint256","internalType":"uint256"}],"outputs":[],"stateMutability":"payable"},{"type":"function","name":"csToken","inputs":[],"outputs":[{"name":"","type":"address","internalType":"contract IERC20"}],"stateMutability":"view"},{"type":"function","name":"currentTotalValueLocked","inputs":[],"outputs":[{"name":"","type":"uint256","internalType":"uint256"}],"stateMutability":"view"},{"type":"function","name":"currentVaultState","inputs":[],"outputs":[{"name":"","type":"uint256","internalType":"uint256"}],"stateMutability":"view"},{"type":"function","name":"dripFountain","inputs":[{"name":"token","type":"address","internalType":"address"}],"outputs":[],"stateMutability":"nonpayable"},{"type":"function","name":"editFees","inputs":[{"name":"_joinFee","type":"uint256","internalType":"uint256"},{"name":"_savingFee","type":"uint256","internalType":"uint256"},{"name":"_childCutPerFee","type":"uint256","internalType":"uint256"}],"outputs":[],"stateMutability":"nonpayable"},{"type":"function","name":"editInternalData","inputs":[{"name":"_newCurrentVaultState","type":"uint256","internalType":"uint256"},{"name":"_newTotalValueLocked","type":"uint256","internalType":"uint256"},{"name":"_newCsToken","type":"address","internalType":"address"}],"outputs":[],"stateMutability":"nonpayable"},{"type":"function","name":"editStableCoin","inputs":[{"name":"_newStableCoin","type":"address","internalType":"address"}],"outputs":[],"stateMutability":"nonpayable"},{"type":"function","name":"fountain","inputs":[],"outputs":[{"name":"","type":"uint256","internalType":"uint256"}],"stateMutability":"view"},{"type":"function","name":"getUserChildContractAddress","inputs":[],"outputs":[{"name":"","type":"address","internalType":"address"}],"stateMutability":"view"},{"type":"function","name":"incrementSaving","inputs":[{"name":"nameOfSavings","type":"string","internalType":"string"},{"name":"tokenToRetrieve","type":"address","internalType":"address"},{"name":"amount","type":"uint256","internalType":"uint256"}],"outputs":[],"stateMutability":"payable"},{"type":"function","name":"joinBitsave","inputs":[],"outputs":[{"name":"","type":"address","internalType":"address"}],"stateMutability":"payable"},{"type":"function","name":"masterAddress","inputs":[],"outputs":[{"name":"","type":"address","internalType":"address payable"}],"stateMutability":"view"},{"type":"function","name":"rewardPool","inputs":[],"outputs":[{"name":"","type":"uint256","internalType":"uint256"}],"stateMutability":"view"},{"type":"function","name":"sendAsOriginalToken","inputs":[{"name":"originalToken","type":"address","internalType":"address"},{"name":"amount","type":"uint256","internalType":"uint256"},{"name":"ownerAddress","type":"address","internalType":"address"}],"outputs":[{"name":"","type":"bool","internalType":"bool"}],"stateMutability":"payable"},{"type":"function","name":"stableCoin","inputs":[],"outputs":[{"name":"","type":"address","internalType":"contract IERC20"}],"stateMutability":"view"},{"type":"function","name":"userCount","inputs":[],"outputs":[{"name":"","type":"uint256","internalType":"uint256"}],"stateMutability":"view"},{"type":"function","name":"withdrawSaving","inputs":[{"name":"nameOfSavings","type":"string","internalType":"string"}],"outputs":[{"name":"","type":"bool","internalType":"bool"}],"stateMutability":"nonpayable"},{"type":"event","name":"JoinedBitsave","inputs":[{"name":"userAddress","type":"address","indexed":true,"internalType":"address"}],"anonymous":false},{"type":"event","name":"SavingCreated","inputs":[{"name":"nameOfSaving","type":"string","indexed":true,"internalType":"string"},{"name":"amount","type":"uint256","indexed":false,"internalType":"uint256"},{"name":"token","type":"address","indexed":false,"internalType":"address"}],"anonymous":false},{"type":"event","name":"SavingIncremented","inputs":[{"name":"nameOfSaving","type":"string","indexed":true,"internalType":"string"},{"name":"amountAdded","type":"uint256","indexed":false,"internalType":"uint256"},{"name":"totalAmountNow","type":"uint256","indexed":false,"internalType":"uint256"},{"name":"token","type":"address","indexed":false,"internalType":"address"}],"anonymous":false},{"type":"event","name":"SavingWithdrawn","inputs":[{"name":"nameOfSaving","type":"string","indexed":true,"internalType":"string"}],"anonymous":false},{"type":"event","name":"SystemFaucetDrip","inputs":[{"name":"token","type":"address","indexed":true,"internalType":"address"},{"name":"value","type":"uint256","indexed":false,"internalType":"uint256"}],"anonymous":false},{"type":"event","name":"TokenWithdrawal","inputs":[{"name":"from","type":"address","indexed":true,"internalType":"address"},{"name":"to","type":"address","indexed":true,"internalType":"address"},{"name":"amount","type":"uint256","indexed":false,"internalType":"uint256"}],"anonymous":false},{"type":"error","name":"AddressEmptyCode","inputs":[{"name":"target","type":"address","internalType":"address"}]},{"type":"error","name":"AddressInsufficientBalance","inputs":[{"name":"account","type":"address","internalType":"address"}]},{"type":"error","name":"AmountNotEnough","inputs":[]},{"type":"error","name":"CallNotFromBitsave","inputs":[]},{"type":"error","name":"CanNotWithdrawToken","inputs":[{"name":"","type":"address","internalType":"address"}]},{"type":"error","name":"FailedInnerCall","inputs":[]},{"type":"error","name":"InvalidTime","inputs":[]},{"type":"error","name":"MasterCallRequired","inputs":[]},{"type":"error","name":"NotEnoughToPayGasFee","inputs":[]},{"type":"error","name":"NotSupported","inputs":[{"name":"","type":"string","internalType":"string"}]},{"type":"error","name":"ReentrancyGuardReentrantCall","inputs":[]},{"type":"error","name":"SafeERC20FailedOperation","inputs":[{"name":"token","type":"address","internalType":"address"}]},{"type":"error","name":"UserNotRegistered","inputs":[]}],"bytecode":{"object":"0x60806040525f600a55655af3107a4000600b556032600c55600c54600b546100279190610178565b600d556040516162d63803806162d6833981810160405281019061004b9190610206565b60015f819055508160015f6101000a81548173ffffffffffffffffffffffffffffffffffffffff021916908373ffffffffffffffffffffffffffffffffffffffff1602179055508060025f6101000a81548173ffffffffffffffffffffffffffffffffffffffff021916908373ffffffffffffffffffffffffffffffffffffffff1602179055503360035f6101000a81548173ffffffffffffffffffffffffffffffffffffffff021916908373ffffffffffffffffffffffffffffffffffffffff1602179055505f6004819055505f60078190555062d59f80600881905550620186a0600981905550346005819055505050610244565b5f819050919050565b7f4e487b71000000000000000000000000000000000000000000000000000000005f52601260045260245ffd5b5f61018282610142565b915061018d83610142565b92508261019d5761019c61014b565b5b828204905092915050565b5f5ffd5b5f73ffffffffffffffffffffffffffffffffffffffff82169050919050565b5f6101d5826101ac565b9050919050565b6101e5816101cb565b81146101ef575f5ffd5b50565b5f81519050610200816101dc565b92915050565b5f5f6040838503121561021c5761021b6101a8565b5b5f610229858286016101f2565b925050602061023a858286016101f2565b9150509250929050565b616085806102515f395ff3fe608060405260043610610138575f3560e01c806384762b0b116100aa578063d365a08e1161006e578063d365a08e146103c5578063de35c372146103ef578063e04605fd1461041f578063ea41367214610449578063f24053b314610473578063fed0b9251461049d5761013f565b806384762b0b146102f7578063992642e5146103215780639986e0e91461034b578063a63748e514610373578063bf66bfc71461039b5761013f565b8063372f9101116100fc578063372f9101146101fb5780634c3fa3041461023757806352f44e2e146102615780636405350a1461028957806366666aa9146102a55780637679489c146102cf5761013f565b8063025007391461014357806307973ccf1461016d57806309a5ff8c1461019757806316f94d5d146101c15780631fdc181f146101df5761013f565b3661013f57005b5f5ffd5b34801561014e575f5ffd5b506101576104c7565b604051610164919061211e565b60405180910390f35b348015610178575f5ffd5b506101816104cd565b60405161018e919061211e565b60405180910390f35b3480156101a2575f5ffd5b506101ab6104d3565b6040516101b8919061211e565b60405180910390f35b6101c96104d9565b6040516101d69190612176565b60405180910390f35b6101f960048036038101906101f49190612330565b6106ef565b005b348015610206575f5ffd5b50610221600480360381019061021c919061239c565b610b3f565b60405161022e91906123fd565b60405180910390f35b348015610242575f5ffd5b5061024b610d2c565b604051610258919061211e565b60405180910390f35b34801561026c575f5ffd5b5061028760048036038101906102829190612416565b610d32565b005b6102a3600480360381019061029e91906124a1565b610fc9565b005b3480156102b0575f5ffd5b506102b9611288565b6040516102c6919061211e565b60405180910390f35b3480156102da575f5ffd5b506102f560048036038101906102f09190612546565b61128e565b005b348015610302575f5ffd5b5061030b61139b565b604051610318919061211e565b60405180910390f35b34801561032c575f5ffd5b506103356113a1565b60405161034291906125f1565b60405180910390f35b348015610356575f5ffd5b50610371600480360381019061036c9190612416565b6113c6565b005b34801561037e575f5ffd5b506103996004803603810190610394919061260a565b6114c3565b005b3480156103a6575f5ffd5b506103af611583565b6040516103bc919061211e565b60405180910390f35b3480156103d0575f5ffd5b506103d9611589565b6040516103e6919061267a565b60405180910390f35b61040960048036038101906104049190612693565b6115ae565b60405161041691906123fd565b60405180910390f35b34801561042a575f5ffd5b506104336116f4565b60405161044091906125f1565b60405180910390f35b348015610454575f5ffd5b5061045d611719565b60405161046a9190612176565b60405180910390f35b34801561047e575f5ffd5b5061048761177c565b604051610494919061211e565b60405180910390f35b3480156104a8575f5ffd5b506104b1611782565b6040516104be919061211e565b60405180910390f35b60095481565b60075481565b600c5481565b5f5f3390505f60065f8373ffffffffffffffffffffffffffffffffffffffff1673ffffffffffffffffffffffffffffffffffffffff1681526020019081526020015f205f9054906101000a900473ffffffffffffffffffffffffffffffffffffffff1690505f73ffffffffffffffffffffffffffffffffffffffff168173ffffffffffffffffffffffffffffffffffffffff161461057b5780925050506106ec565b600a543410156105b7576040517fcb6e851c00000000000000000000000000000000000000000000000000000000815260040160405180910390fd5b5f3360015f9054906101000a900473ffffffffffffffffffffffffffffffffffffffff166040516105e7906120f9565b6105f29291906126e3565b604051809103905ff08015801561060b573d5f5f3e3d5ffd5b5090508060065f8573ffffffffffffffffffffffffffffffffffffffff1673ffffffffffffffffffffffffffffffffffffffff1681526020019081526020015f205f6101000a81548173ffffffffffffffffffffffffffffffffffffffff021916908373ffffffffffffffffffffffffffffffffffffffff160217905550600160075f82825461069b9190612737565b925050819055508273ffffffffffffffffffffffffffffffffffffffff167f0c5c0c4d53b63790e32770cf47fd115d706000fd7ab63fbdc8d176c5020d6b4660405160405180910390a28093505050505b90565b335f73ffffffffffffffffffffffffffffffffffffffff1660065f8373ffffffffffffffffffffffffffffffffffffffff1673ffffffffffffffffffffffffffffffffffffffff1681526020019081526020015f205f9054906101000a900473ffffffffffffffffffffffffffffffffffffffff1673ffffffffffffffffffffffffffffffffffffffff16036107b1576040517f2163950f00000000000000000000000000000000000000000000000000000000815260040160405180910390fd5b5f60065f3373ffffffffffffffffffffffffffffffffffffffff1673ffffffffffffffffffffffffffffffffffffffff1681526020019081526020015f205f9054906101000a900473ffffffffffffffffffffffffffffffffffffffff1690505f8190505f8173ffffffffffffffffffffffffffffffffffffffff1663e18f5f65886040518263ffffffff1660e01b815260040161084f91906127ca565b602060405180830381865afa15801561086a573d5f5f3e3d5ffd5b505050506040513d601f19601f8201168201806040525081019061088e91906127fe565b90505f5f73ffffffffffffffffffffffffffffffffffffffff168273ffffffffffffffffffffffffffffffffffffffff161490505f8690505f8473ffffffffffffffffffffffffffffffffffffffff16631bb862a58b6040518263ffffffff1660e01b815260040161090091906127ca565b602060405180830381865afa15801561091b573d5f5f3e3d5ffd5b505050506040513d601f19601f8201168201806040525081019061093f919061283d565b9050801561096c5760015f9054906101000a900473ffffffffffffffffffffffffffffffffffffffff1698505b826109c05761097c86838b611788565b6109bb576040517f08c379a00000000000000000000000000000000000000000000000000000000081526004016109b2906128b2565b60405180910390fd5b6109c4565b3491505b5f6109d18986895f6117c4565b90508573ffffffffffffffffffffffffffffffffffffffff1663dc2379b9856109fa575f6109fc565b825b8d846008546009546040518663ffffffff1660e01b8152600401610a2394939291906128d0565b60206040518083038185885af1158015610a3f573d5f5f3e3d5ffd5b50505050506040513d601f19601f82011682018060405250810190610a64919061292e565b505f8673ffffffffffffffffffffffffffffffffffffffff1663e0ea6d408d6040518263ffffffff1660e01b8152600401610a9f91906127ca565b602060405180830381865afa158015610aba573d5f5f3e3d5ffd5b505050506040513d601f19601f82011682018060405250810190610ade919061292e565b90508b604051610aee9190612993565b60405180910390207ff6b98d8e0d83f8b1d1ff03a2fa36aba2c77ccf20e4ff035c0cf4aa92762e9eec8b838e604051610b29939291906129a9565b60405180910390a2505050505050505050505050565b5f335f73ffffffffffffffffffffffffffffffffffffffff1660065f8373ffffffffffffffffffffffffffffffffffffffff1673ffffffffffffffffffffffffffffffffffffffff1681526020019081526020015f205f9054906101000a900473ffffffffffffffffffffffffffffffffffffffff1673ffffffffffffffffffffffffffffffffffffffff1603610c02576040517f2163950f00000000000000000000000000000000000000000000000000000000815260040160405180910390fd5b5f60065f3373ffffffffffffffffffffffffffffffffffffffff1673ffffffffffffffffffffffffffffffffffffffff1681526020019081526020015f205f9054906101000a900473ffffffffffffffffffffffffffffffffffffffff1690508073ffffffffffffffffffffffffffffffffffffffff1663372f9101856040518263ffffffff1660e01b8152600401610c9b91906127ca565b5f604051808303815f875af1158015610cb6573d5f5f3e3d5ffd5b505050506040513d5f823e3d601f19601f82011682018060405250810190610cde9190612a4c565b5083604051610ced9190612993565b60405180910390207f5b059b7fe1fea38d4de595079621498a365a8f1fa13e49af9f1e4b7197ab049a60405160405180910390a2600192505050919050565b60085481565b60035f9054906101000a900473ffffffffffffffffffffffffffffffffffffffff1673ffffffffffffffffffffffffffffffffffffffff163373ffffffffffffffffffffffffffffffffffffffff1614610db8576040517f33662b3400000000000000000000000000000000000000000000000000000000815260040160405180910390fd5b610dc0611917565b5f73ffffffffffffffffffffffffffffffffffffffff168173ffffffffffffffffffffffffffffffffffffffff1603610f35575f4790505f5f9050600554821115610ee05760055482610e139190612a93565b90505f60035f9054906101000a900473ffffffffffffffffffffffffffffffffffffffff1673ffffffffffffffffffffffffffffffffffffffff1682604051610e5b90612af3565b5f6040518083038185875af1925050503d805f8114610e95576040519150601f19603f3d011682016040523d82523d5f602084013e610e9a565b606091505b5050905080610ede576040517f08c379a0000000000000000000000000000000000000000000000000000000008152600401610ed590612b51565b60405180910390fd5b505b8273ffffffffffffffffffffffffffffffffffffffff167fd8f920438b608c18ec52a9849fb52ba6f6bb47bf274f468d46f748340caefdb282604051610f26919061211e565b60405180910390a25050610fbe565b5f610f3f8261195b565b9050610f6d8260035f9054906101000a900473ffffffffffffffffffffffffffffffffffffffff16836119e0565b508173ffffffffffffffffffffffffffffffffffffffff167fd8f920438b608c18ec52a9849fb52ba6f6bb47bf274f468d46f748340caefdb282604051610fb4919061211e565b60405180910390a2505b610fc6611a81565b50565b335f73ffffffffffffffffffffffffffffffffffffffff1660065f8373ffffffffffffffffffffffffffffffffffffffff1673ffffffffffffffffffffffffffffffffffffffff1681526020019081526020015f205f9054906101000a900473ffffffffffffffffffffffffffffffffffffffff1673ffffffffffffffffffffffffffffffffffffffff160361108b576040517f2163950f00000000000000000000000000000000000000000000000000000000815260040160405180910390fd5b600b543410156110c7576040517fd0c279a200000000000000000000000000000000000000000000000000000000815260040160405180910390fd5b85421115611101576040517f6f7eac2600000000000000000000000000000000000000000000000000000000815260040160405180910390fd5b8315611142576040517f329e2f1500000000000000000000000000000000000000000000000000000000815260040161113990612bb9565b60405180910390fd5b5f61114c33611a8a565b90505f61115d848684600b546117c4565b90505f8290508073ffffffffffffffffffffffffffffffffffffffff1663436d4a6d5f73ffffffffffffffffffffffffffffffffffffffff168873ffffffffffffffffffffffffffffffffffffffff16146111b8575f6111ba565b835b8c8c428d8c898f6008546009546040518b63ffffffff1660e01b81526004016111eb99989796959493929190612be6565b60206040518083038185885af1158015611207573d5f5f3e3d5ffd5b50505050506040513d601f19601f8201168201806040525081019061122c919061292e565b508960405161123b9190612993565b60405180910390207f4ad85a69286191006ea05981ae1848070dbf232e5e00ffdda4b857c16097f0d78388604051611274929190612c78565b60405180910390a250505050505050505050565b60045481565b60035f9054906101000a900473ffffffffffffffffffffffffffffffffffffffff1673ffffffffffffffffffffffffffffffffffffffff163373ffffffffffffffffffffffffffffffffffffffff1614611314576040517f33662b3400000000000000000000000000000000000000000000000000000000815260040160405180910390fd5b82600881905550816009819055505f73ffffffffffffffffffffffffffffffffffffffff168173ffffffffffffffffffffffffffffffffffffffff1614611396578060025f6101000a81548173ffffffffffffffffffffffffffffffffffffffff021916908373ffffffffffffffffffffffffffffffffffffffff1602179055505b505050565b600a5481565b60015f9054906101000a900473ffffffffffffffffffffffffffffffffffffffff1681565b60035f9054906101000a900473ffffffffffffffffffffffffffffffffffffffff1673ffffffffffffffffffffffffffffffffffffffff163373ffffffffffffffffffffffffffffffffffffffff161461144c576040517f33662b3400000000000000000000000000000000000000000000000000000000815260040160405180910390fd5b5f73ffffffffffffffffffffffffffffffffffffffff168173ffffffffffffffffffffffffffffffffffffffff16146114c0578060015f6101000a81548173ffffffffffffffffffffffffffffffffffffffff021916908373ffffffffffffffffffffffffffffffffffffffff1602179055505b50565b60035f9054906101000a900473ffffffffffffffffffffffffffffffffffffffff1673ffffffffffffffffffffffffffffffffffffffff163373ffffffffffffffffffffffffffffffffffffffff1614611549576040517f33662b3400000000000000000000000000000000000000000000000000000000815260040160405180910390fd5b82600a8190555081600b8190555080600c819055505f81146115765780826115719190612ccc565b611578565b5f5b600d81905550505050565b600d5481565b60035f9054906101000a900473ffffffffffffffffffffffffffffffffffffffff1681565b5f815f60065f8373ffffffffffffffffffffffffffffffffffffffff1673ffffffffffffffffffffffffffffffffffffffff1681526020019081526020015f205f9054906101000a900473ffffffffffffffffffffffffffffffffffffffff1690505f73ffffffffffffffffffffffffffffffffffffffff168173ffffffffffffffffffffffffffffffffffffffff16148061167657503373ffffffffffffffffffffffffffffffffffffffff168173ffffffffffffffffffffffffffffffffffffffff1614155b156116ad576040517f229e1dbd00000000000000000000000000000000000000000000000000000000815260040160405180910390fd5b6116b5611917565b6116e13360015f9054906101000a900473ffffffffffffffffffffffffffffffffffffffff1687611aef565b92506116eb611a81565b50509392505050565b60025f9054906101000a900473ffffffffffffffffffffffffffffffffffffffff1681565b5f60065f3373ffffffffffffffffffffffffffffffffffffffff1673ffffffffffffffffffffffffffffffffffffffff1681526020019081526020015f205f9054906101000a900473ffffffffffffffffffffffffffffffffffffffff16905090565b60055481565b600b5481565b5f5f8290506117b885858373ffffffffffffffffffffffffffffffffffffffff16611be89092919063ffffffff16565b60019150509392505050565b5f5f73ffffffffffffffffffffffffffffffffffffffff168473ffffffffffffffffffffffffffffffffffffffff16146118fd575f611804338688611aef565b90508061184857846040517fa3adb65700000000000000000000000000000000000000000000000000000000815260040161183f9190612176565b60405180910390fd5b3073ffffffffffffffffffffffffffffffffffffffff163373ffffffffffffffffffffffffffffffffffffffff167f42856d0378dde02337bb59ae41747abc77ded8ebdbbc5cbdd1e53693b7554938886040516118a5919061211e565b60405180910390a36118b8848787611788565b6118f7576040517f08c379a00000000000000000000000000000000000000000000000000000000081526004016118ee906128b2565b60405180910390fd5b5061190c565b81346119099190612a93565b94505b849050949350505050565b60025f5403611952576040517f3ee5aeb500000000000000000000000000000000000000000000000000000000815260040160405180910390fd5b60025f81905550565b5f5f8290508073ffffffffffffffffffffffffffffffffffffffff166370a08231306040518263ffffffff1660e01b81526004016119999190612176565b602060405180830381865afa1580156119b4573d5f5f3e3d5ffd5b505050506040513d601f19601f820116820180604052508101906119d8919061292e565b915050919050565b5f5f849050611a1084848373ffffffffffffffffffffffffffffffffffffffff16611cf59092919063ffffffff16565b600191508373ffffffffffffffffffffffffffffffffffffffff163073ffffffffffffffffffffffffffffffffffffffff167f42856d0378dde02337bb59ae41747abc77ded8ebdbbc5cbdd1e53693b755493885604051611a71919061211e565b60405180910390a3509392505050565b60015f81905550565b5f60065f8373ffffffffffffffffffffffffffffffffffffffff1673ffffffffffffffffffffffffffffffffffffffff1681526020019081526020015f205f9054906101000a900473ffffffffffffffffffffffffffffffffffffffff169050919050565b5f818373ffffffffffffffffffffffffffffffffffffffff1663dd62ed3e86306040518363ffffffff1660e01b8152600401611b2c9291906126e3565b602060405180830381865afa158015611b47573d5f5f3e3d5ffd5b505050506040513d601f19601f82011682018060405250810190611b6b919061292e565b10158390611baf576040517fa3adb657000000000000000000000000000000000000000000000000000000008152600401611ba69190612176565b60405180910390fd5b50611bdd8430848673ffffffffffffffffffffffffffffffffffffffff16611d74909392919063ffffffff16565b600190509392505050565b5f8373ffffffffffffffffffffffffffffffffffffffff1663095ea7b38484604051602401611c18929190612cfc565b604051602081830303815290604052915060e01b6020820180517bffffffffffffffffffffffffffffffffffffffffffffffffffffffff83818316178352505050509050611c668482611df6565b611cef57611ce4848573ffffffffffffffffffffffffffffffffffffffff1663095ea7b3865f604051602401611c9d929190612d5c565b604051602081830303815290604052915060e01b6020820180517bffffffffffffffffffffffffffffffffffffffffffffffffffffffff8381831617835250505050611eb5565b611cee8482611eb5565b5b50505050565b611d6f838473ffffffffffffffffffffffffffffffffffffffff1663a9059cbb8585604051602401611d28929190612cfc565b604051602081830303815290604052915060e01b6020820180517bffffffffffffffffffffffffffffffffffffffffffffffffffffffff8381831617835250505050611eb5565b505050565b611df0848573ffffffffffffffffffffffffffffffffffffffff166323b872dd868686604051602401611da993929190612d83565b604051602081830303815290604052915060e01b6020820180517bffffffffffffffffffffffffffffffffffffffffffffffffffffffff8381831617835250505050611eb5565b50505050565b5f5f5f8473ffffffffffffffffffffffffffffffffffffffff1684604051611e1e9190612df2565b5f604051808303815f865af19150503d805f8114611e57576040519150601f19603f3d011682016040523d82523d5f602084013e611e5c565b606091505b5091509150818015611e8957505f81511480611e88575080806020019051810190611e87919061283d565b5b5b8015611eab57505f8573ffffffffffffffffffffffffffffffffffffffff163b115b9250505092915050565b5f611edf828473ffffffffffffffffffffffffffffffffffffffff16611f4a90919063ffffffff16565b90505f815114158015611f03575080806020019051810190611f01919061283d565b155b15611f4557826040517f5274afe7000000000000000000000000000000000000000000000000000000008152600401611f3c9190612176565b60405180910390fd5b505050565b6060611f5783835f611f5f565b905092915050565b606081471015611fa657306040517fcd786059000000000000000000000000000000000000000000000000000000008152600401611f9d9190612176565b60405180910390fd5b5f5f8573ffffffffffffffffffffffffffffffffffffffff168486604051611fce9190612df2565b5f6040518083038185875af1925050503d805f8114612008576040519150601f19603f3d011682016040523d82523d5f602084013e61200d565b606091505b509150915061201d868383612028565b925050509392505050565b60608261203d57612038826120b5565b6120ad565b5f825114801561206357505f8473ffffffffffffffffffffffffffffffffffffffff163b145b156120a557836040517f9996b31500000000000000000000000000000000000000000000000000000000815260040161209c9190612176565b60405180910390fd5b8190506120ae565b5b9392505050565b5f815111156120c75780518082602001fd5b6040517f1425ea4200000000000000000000000000000000000000000000000000000000815260040160405180910390fd5b61324780612e0983390190565b5f819050919050565b61211881612106565b82525050565b5f6020820190506121315f83018461210f565b92915050565b5f73ffffffffffffffffffffffffffffffffffffffff82169050919050565b5f61216082612137565b9050919050565b61217081612156565b82525050565b5f6020820190506121895f830184612167565b92915050565b5f604051905090565b5f5ffd5b5f5ffd5b5f5ffd5b5f5ffd5b5f601f19601f8301169050919050565b7f4e487b71000000000000000000000000000000000000000000000000000000005f52604160045260245ffd5b6121ee826121a8565b810181811067ffffffffffffffff8211171561220d5761220c6121b8565b5b80604052505050565b5f61221f61218f565b905061222b82826121e5565b919050565b5f67ffffffffffffffff82111561224a576122496121b8565b5b612253826121a8565b9050602081019050919050565b828183375f83830152505050565b5f61228061227b84612230565b612216565b90508281526020810184848401111561229c5761229b6121a4565b5b6122a7848285612260565b509392505050565b5f82601f8301126122c3576122c26121a0565b5b81356122d384826020860161226e565b91505092915050565b6122e581612156565b81146122ef575f5ffd5b50565b5f81359050612300816122dc565b92915050565b61230f81612106565b8114612319575f5ffd5b50565b5f8135905061232a81612306565b92915050565b5f5f5f6060848603121561234757612346612198565b5b5f84013567ffffffffffffffff8111156123645761236361219c565b5b612370868287016122af565b9350506020612381868287016122f2565b92505060406123928682870161231c565b9150509250925092565b5f602082840312156123b1576123b0612198565b5b5f82013567ffffffffffffffff8111156123ce576123cd61219c565b5b6123da848285016122af565b91505092915050565b5f8115159050919050565b6123f7816123e3565b82525050565b5f6020820190506124105f8301846123ee565b92915050565b5f6020828403121561242b5761242a612198565b5b5f612438848285016122f2565b91505092915050565b5f60ff82169050919050565b61245681612441565b8114612460575f5ffd5b50565b5f813590506124718161244d565b92915050565b612480816123e3565b811461248a575f5ffd5b50565b5f8135905061249b81612477565b92915050565b5f5f5f5f5f5f60c087890312156124bb576124ba612198565b5b5f87013567ffffffffffffffff8111156124d8576124d761219c565b5b6124e489828a016122af565b96505060206124f589828a0161231c565b955050604061250689828a01612463565b945050606061251789828a0161248d565b935050608061252889828a016122f2565b92505060a061253989828a0161231c565b9150509295509295509295565b5f5f5f6060848603121561255d5761255c612198565b5b5f61256a8682870161231c565b935050602061257b8682870161231c565b925050604061258c868287016122f2565b9150509250925092565b5f819050919050565b5f6125b96125b46125af84612137565b612596565b612137565b9050919050565b5f6125ca8261259f565b9050919050565b5f6125db826125c0565b9050919050565b6125eb816125d1565b82525050565b5f6020820190506126045f8301846125e2565b92915050565b5f5f5f6060848603121561262157612620612198565b5b5f61262e8682870161231c565b935050602061263f8682870161231c565b92505060406126508682870161231c565b9150509250925092565b5f61266482612137565b9050919050565b6126748161265a565b82525050565b5f60208201905061268d5f83018461266b565b92915050565b5f5f5f606084860312156126aa576126a9612198565b5b5f6126b7868287016122f2565b93505060206126c88682870161231c565b92505060406126d9868287016122f2565b9150509250925092565b5f6040820190506126f65f830185612167565b6127036020830184612167565b9392505050565b7f4e487b71000000000000000000000000000000000000000000000000000000005f52601160045260245ffd5b5f61274182612106565b915061274c83612106565b92508282019050808211156127645761276361270a565b5b92915050565b5f81519050919050565b5f82825260208201905092915050565b8281835e5f83830152505050565b5f61279c8261276a565b6127a68185612774565b93506127b6818560208601612784565b6127bf816121a8565b840191505092915050565b5f6020820190508181035f8301526127e28184612792565b905092915050565b5f815190506127f8816122dc565b92915050565b5f6020828403121561281357612812612198565b5b5f612820848285016127ea565b91505092915050565b5f8151905061283781612477565b92915050565b5f6020828403121561285257612851612198565b5b5f61285f84828501612829565b91505092915050565b7f536176696e677320696e76616c696400000000000000000000000000000000005f82015250565b5f61289c600f83612774565b91506128a782612868565b602082019050919050565b5f6020820190508181035f8301526128c981612890565b9050919050565b5f6080820190508181035f8301526128e88187612792565b90506128f7602083018661210f565b612904604083018561210f565b612911606083018461210f565b95945050505050565b5f8151905061292881612306565b92915050565b5f6020828403121561294357612942612198565b5b5f6129508482850161291a565b91505092915050565b5f81905092915050565b5f61296d8261276a565b6129778185612959565b9350612987818560208601612784565b80840191505092915050565b5f61299e8284612963565b915081905092915050565b5f6060820190506129bc5f83018661210f565b6129c9602083018561210f565b6129d66040830184612167565b949350505050565b5f6129f06129eb84612230565b612216565b905082815260208101848484011115612a0c57612a0b6121a4565b5b612a17848285612784565b509392505050565b5f82601f830112612a3357612a326121a0565b5b8151612a438482602086016129de565b91505092915050565b5f60208284031215612a6157612a60612198565b5b5f82015167ffffffffffffffff811115612a7e57612a7d61219c565b5b612a8a84828501612a1f565b91505092915050565b5f612a9d82612106565b9150612aa883612106565b9250828203905081811115612ac057612abf61270a565b5b92915050565b5f81905092915050565b50565b5f612ade5f83612ac6565b9150612ae982612ad0565b5f82019050919050565b5f612afd82612ad3565b9150819050919050565b7f7472616e73666572206661696c656400000000000000000000000000000000005f82015250565b5f612b3b600f83612774565b9150612b4682612b07565b602082019050919050565b5f6020820190508181035f830152612b6881612b2f565b9050919050565b7f4e6f2073616665206d6f646520796574210000000000000000000000000000005f82015250565b5f612ba3601183612774565b9150612bae82612b6f565b602082019050919050565b5f6020820190508181035f830152612bd081612b97565b9050919050565b612be081612441565b82525050565b5f610120820190508181035f830152612bff818c612792565b9050612c0e602083018b61210f565b612c1b604083018a61210f565b612c286060830189612bd7565b612c356080830188612167565b612c4260a083018761210f565b612c4f60c08301866123ee565b612c5c60e083018561210f565b612c6a61010083018461210f565b9a9950505050505050505050565b5f604082019050612c8b5f83018561210f565b612c986020830184612167565b9392505050565b7f4e487b71000000000000000000000000000000000000000000000000000000005f52601260045260245ffd5b5f612cd682612106565b9150612ce183612106565b925082612cf157612cf0612c9f565b5b828204905092915050565b5f604082019050612d0f5f830185612167565b612d1c602083018461210f565b9392505050565b5f819050919050565b5f612d46612d41612d3c84612d23565b612596565b612106565b9050919050565b612d5681612d2c565b82525050565b5f604082019050612d6f5f830185612167565b612d7c6020830184612d4d565b9392505050565b5f606082019050612d965f830186612167565b612da36020830185612167565b612db0604083018461210f565b949350505050565b5f81519050919050565b5f612dcc82612db8565b612dd68185612ac6565b9350612de6818560208601612784565b80840191505092915050565b5f612dfd8284612dc2565b91508190509291505056fe608060405260405161324738038061324783398181016040528101906100259190610158565b60015f819055503360015f6101000a81548173ffffffffffffffffffffffffffffffffffffffff021916908373ffffffffffffffffffffffffffffffffffffffff1602179055508160035f6101000a81548173ffffffffffffffffffffffffffffffffffffffff021916908373ffffffffffffffffffffffffffffffffffffffff1602179055508060025f6101000a81548173ffffffffffffffffffffffffffffffffffffffff021916908373ffffffffffffffffffffffffffffffffffffffff1602179055505f6004819055505050610196565b5f5ffd5b5f73ffffffffffffffffffffffffffffffffffffffff82169050919050565b5f610127826100fe565b9050919050565b6101378161011d565b8114610141575f5ffd5b50565b5f815190506101528161012e565b92915050565b5f5f6040838503121561016e5761016d6100fa565b5b5f61017b85828601610144565b925050602061018c85828601610144565b9150509250929050565b6130a4806101a35f395ff3fe6080604052600436106100dc575f3560e01c806384febb691161007e578063d1ece79011610058578063d1ece790146102df578063dc2379b914610309578063e0ea6d4014610339578063e18f5f6514610375576100dc565b806384febb691461024f5780638f84aa091461028b578063992642e5146102b5576100dc565b8063372f9101116100ba578063372f910114610189578063436d4a6d146101b9578063567142be146101e9578063585dbffe14610213576100dc565b806313203929146100e05780631bb862a5146101235780632ae3c90f1461015f575b5f5ffd5b3480156100eb575f5ffd5b5061010660048036038101906101019190612199565b6103b1565b60405161011a989796959493929190612251565b60405180910390f35b34801561012e575f5ffd5b5061014960048036038101906101449190612199565b610444565b60405161015691906122cd565b60405180910390f35b34801561016a575f5ffd5b5061017361047a565b6040516101809190612306565b60405180910390f35b6101a3600480360381019061019e9190612199565b61049f565b6040516101b0919061237f565b60405180910390f35b6101d360048036038101906101ce9190612453565b6109fa565b6040516101e09190612533565b60405180910390f35b3480156101f4575f5ffd5b506101fd610dd8565b60405161020a9190612533565b60405180910390f35b34801561021e575f5ffd5b5061023960048036038101906102349190612199565b610dde565b6040516102469190612619565b60405180910390f35b34801561025a575f5ffd5b5061027560048036038101906102709190612199565b610ed1565b6040516102829190612533565b60405180910390f35b348015610296575f5ffd5b5061029f610efb565b6040516102ac9190612633565b60405180910390f35b3480156102c0575f5ffd5b506102c9610f20565b6040516102d691906126a7565b60405180910390f35b3480156102ea575f5ffd5b506102f3610f45565b60405161030091906127ea565b60405180910390f35b610323600480360381019061031e919061280a565b611032565b6040516103309190612533565b60405180910390f35b348015610344575f5ffd5b5061035f600480360381019061035a9190612199565b6114a9565b60405161036c9190612533565b60405180910390f35b348015610380575f5ffd5b5061039b60048036038101906103969190612199565b6114d3565b6040516103a89190612633565b60405180910390f35b6005818051602081018201805184825260208301602085012081835280955050505050505f91509050805f015f9054906101000a900460ff1690806001015490806002015f9054906101000a900473ffffffffffffffffffffffffffffffffffffffff1690806003015490806004015490806005015490806006015490806007015f9054906101000a900460ff16905088565b5f60058260405161045591906128c4565b90815260200160405180910390206007015f9054906101000a900460ff169050919050565b60015f9054906101000a900473ffffffffffffffffffffffffffffffffffffffff1681565b606060015f9054906101000a900473ffffffffffffffffffffffffffffffffffffffff1673ffffffffffffffffffffffffffffffffffffffff163373ffffffffffffffffffffffffffffffffffffffff1614610527576040517f229e1dbd00000000000000000000000000000000000000000000000000000000815260040160405180910390fd5b61052f61151c565b5f60058360405161054091906128c4565b90815260200160405180910390209050805f015f9054906101000a900460ff16610596576040517fd63d1e4800000000000000000000000000000000000000000000000000000000815260040160405180910390fd5b5f816001015490505f60015f9054906101000a900473ffffffffffffffffffffffffffffffffffffffff1690508260060154421015610661576064836005015460646105e29190612907565b84600101546105f1919061293a565b6105fb91906129a8565b915061065b836002015f9054906101000a900473ffffffffffffffffffffffffffffffffffffffff1660015f9054906101000a900473ffffffffffffffffffffffffffffffffffffffff168486600101546106569190612907565b611560565b50610662565b5b5f60058660405161067391906128c4565b90815260200160405180910390205f015f6101000a81548160ff0219169083151502179055505f836002015f9054906101000a900473ffffffffffffffffffffffffffffffffffffffff1690505f5f9050846007015f9054906101000a900460ff16156107cd5761072760015f9054906101000a900473ffffffffffffffffffffffffffffffffffffffff168560025f9054906101000a900473ffffffffffffffffffffffffffffffffffffffff16611601565b508273ffffffffffffffffffffffffffffffffffffffff1663de35c372838660035f9054906101000a900473ffffffffffffffffffffffffffffffffffffffff166040518463ffffffff1660e01b8152600401610786939291906129d8565b6020604051808303815f875af11580156107a2573d5f5f3e3d5ffd5b505050506040513d601f19601f820116820180604052508101906107c69190612a21565b9050610928565b5f73ffffffffffffffffffffffffffffffffffffffff168273ffffffffffffffffffffffffffffffffffffffff16036108d5575f5f60035f9054906101000a900473ffffffffffffffffffffffffffffffffffffffff1673ffffffffffffffffffffffffffffffffffffffff168660405161084790612a79565b5f6040518083038185875af1925050503d805f8114610881576040519150601f19603f3d011682016040523d82523d5f602084013e610886565b606091505b5091509150816108cb576040517f08c379a00000000000000000000000000000000000000000000000000000000081526004016108c290612ad7565b60405180910390fd5b8192505050610927565b610924856002015f9054906101000a900473ffffffffffffffffffffffffffffffffffffffff1660035f9054906101000a900473ffffffffffffffffffffffffffffffffffffffff1686611560565b90505b5b80156109e9575f60058860405161093f91906128c4565b90815260200160405180910390205f015f6101000a81548160ff0219169083151502179055508660405161097391906128c4565b60405180910390207f5b059b7fe1fea38d4de595079621498a365a8f1fa13e49af9f1e4b7197ab049a60405160405180910390a26040518060400160405280601e81526020017f736176696e67732077697468647261776e207375636365737366756c6c790000815250955050505050506109ed565b5f5ffd5b6109f561163d565b919050565b5f60015f9054906101000a900473ffffffffffffffffffffffffffffffffffffffff1673ffffffffffffffffffffffffffffffffffffffff163373ffffffffffffffffffffffffffffffffffffffff1614610a81576040517f229e1dbd00000000000000000000000000000000000000000000000000000000815260040160405180910390fd5b610a8961151c565b60058a604051610a9991906128c4565b90815260200160405180910390205f015f9054906101000a900460ff1615610aed576040517fd63d1e4800000000000000000000000000000000000000000000000000000000815260040160405180910390fd5b87891015610b27576040517f6f7eac2600000000000000000000000000000000000000000000000000000000815260040160405180910390fd5b42891015610b61576040517f6f7eac2600000000000000000000000000000000000000000000000000000000815260040160405180910390fd5b5f8590508415610bbe57610bb860015f9054906101000a900473ffffffffffffffffffffffffffffffffffffffff1660025f9054906101000a900473ffffffffffffffffffffffffffffffffffffffff1688611646565b50610c28565b5f73ffffffffffffffffffffffffffffffffffffffff168773ffffffffffffffffffffffffffffffffffffffff1614610c2357610c1d60015f9054906101000a900473ffffffffffffffffffffffffffffffffffffffff168888611646565b50610c27565b3490505b5b5f610c36828c8c888861173f565b90506040518061010001604052806001151581526020018381526020018973ffffffffffffffffffffffffffffffffffffffff1681526020018281526020018b81526020018a60ff1681526020018c815260200187151581525060058d604051610ca091906128c4565b90815260200160405180910390205f820151815f015f6101000a81548160ff021916908315150217905550602082015181600101556040820151816002015f6101000a81548173ffffffffffffffffffffffffffffffffffffffff021916908373ffffffffffffffffffffffffffffffffffffffff160217905550606082015181600301556080820151816004015560a0820151816005015560c0820151816006015560e0820151816007015f6101000a81548160ff021916908315150217905550905050610d6e8c61177a565b8b604051610d7c91906128c4565b60405180910390207f4ad85a69286191006ea05981ae1848070dbf232e5e00ffdda4b857c16097f0d7888a604051610db5929190612af5565b60405180910390a2600192505050610dcb61163d565b9998505050505050505050565b60045481565b610de6611fe2565b600582604051610df691906128c4565b9081526020016040518091039020604051806101000160405290815f82015f9054906101000a900460ff1615151515815260200160018201548152602001600282015f9054906101000a900473ffffffffffffffffffffffffffffffffffffffff1673ffffffffffffffffffffffffffffffffffffffff1673ffffffffffffffffffffffffffffffffffffffff16815260200160038201548152602001600482015481526020016005820154815260200160068201548152602001600782015f9054906101000a900460ff1615151515815250509050919050565b5f600582604051610ee291906128c4565b9081526020016040518091039020600301549050919050565b60035f9054906101000a900473ffffffffffffffffffffffffffffffffffffffff1681565b60025f9054906101000a900473ffffffffffffffffffffffffffffffffffffffff1681565b610f4d612039565b60066040518060200160405290815f8201805480602002602001604051908101604052809291908181526020015f905b82821015611025578382905f5260205f20018054610f9a90612b49565b80601f0160208091040260200160405190810160405280929190818152602001828054610fc690612b49565b80156110115780601f10610fe857610100808354040283529160200191611011565b820191905f5260205f20905b815481529060010190602001808311610ff457829003601f168201915b505050505081526020019060010190610f7d565b5050505081525050905090565b5f60015f9054906101000a900473ffffffffffffffffffffffffffffffffffffffff1673ffffffffffffffffffffffffffffffffffffffff163373ffffffffffffffffffffffffffffffffffffffff16146110b9576040517f229e1dbd00000000000000000000000000000000000000000000000000000000815260040160405180910390fd5b6110c161151c565b5f6005866040516110d291906128c4565b90815260200160405180910390209050805f015f9054906101000a900460ff16611128576040517fd63d1e4800000000000000000000000000000000000000000000000000000000815260040160405180910390fd5b8060060154421115611166576040517f6f7eac2600000000000000000000000000000000000000000000000000000000815260040160405180910390fd5b5f5f73ffffffffffffffffffffffffffffffffffffffff16826002015f9054906101000a900473ffffffffffffffffffffffffffffffffffffffff1673ffffffffffffffffffffffffffffffffffffffff16149050816007015f9054906101000a900460ff16156112245761121e60015f9054906101000a900473ffffffffffffffffffffffffffffffffffffffff1660025f9054906101000a900473ffffffffffffffffffffffffffffffffffffffff1688611646565b506112c6565b8061127e5761127860015f9054906101000a900473ffffffffffffffffffffffffffffffffffffffff16836002015f9054906101000a900473ffffffffffffffffffffffffffffffffffffffff1688611646565b506112c5565b853410156112c1576040517f08c379a00000000000000000000000000000000000000000000000000000000081526004016112b890612be9565b60405180910390fd5b3495505b5b5f6112d887846006015442898961173f565b90508083600301546112ea9190612c07565b83600301819055508683600101546113029190612c07565b83600101819055508260058960405161131b91906128c4565b90815260200160405180910390205f82015f9054906101000a900460ff16815f015f6101000a81548160ff02191690831515021790555060018201548160010155600282015f9054906101000a900473ffffffffffffffffffffffffffffffffffffffff16816002015f6101000a81548173ffffffffffffffffffffffffffffffffffffffff021916908373ffffffffffffffffffffffffffffffffffffffff16021790555060038201548160030155600482015481600401556005820154816005015560068201548160060155600782015f9054906101000a900460ff16816007015f6101000a81548160ff0219169083151502179055509050508760405161142591906128c4565b60405180910390207ff6b98d8e0d83f8b1d1ff03a2fa36aba2c77ccf20e4ff035c0cf4aa92762e9eec888560010154866002015f9054906101000a900473ffffffffffffffffffffffffffffffffffffffff1660405161148793929190612c3a565b60405180910390a2826003015493505050506114a161163d565b949350505050565b5f6005826040516114ba91906128c4565b9081526020016040518091039020600101549050919050565b5f6005826040516114e491906128c4565b90815260200160405180910390206002015f9054906101000a900473ffffffffffffffffffffffffffffffffffffffff169050919050565b60025f5403611557576040517f3ee5aeb500000000000000000000000000000000000000000000000000000000815260040160405180910390fd5b60025f81905550565b5f5f84905061159084848373ffffffffffffffffffffffffffffffffffffffff166117b19092919063ffffffff16565b600191508373ffffffffffffffffffffffffffffffffffffffff163073ffffffffffffffffffffffffffffffffffffffff167f42856d0378dde02337bb59ae41747abc77ded8ebdbbc5cbdd1e53693b7554938856040516115f19190612533565b60405180910390a3509392505050565b5f5f82905061163185858373ffffffffffffffffffffffffffffffffffffffff166118309092919063ffffffff16565b60019150509392505050565b60015f81905550565b5f818373ffffffffffffffffffffffffffffffffffffffff1663dd62ed3e86306040518363ffffffff1660e01b8152600401611683929190612c6f565b602060405180830381865afa15801561169e573d5f5f3e3d5ffd5b505050506040513d601f19601f820116820180604052508101906116c29190612caa565b10158390611706576040517fa3adb6570000000000000000000000000000000000000000000000000000000081526004016116fd9190612633565b60405180910390fd5b506117348430848673ffffffffffffffffffffffffffffffffffffffff1661193d909392919063ffffffff16565b600190509392505050565b5f6117578685876117509190612907565b85856119bf565b90508060045f82825461176a9190612c07565b9250508190555095945050505050565b60065f0181908060018154018082558091505060019003905f5260205f20015f9091909190915090816117ad9190612e6c565b5050565b61182b838473ffffffffffffffffffffffffffffffffffffffff1663a9059cbb85856040516024016117e4929190612f3b565b604051602081830303815290604052915060e01b6020820180517bffffffffffffffffffffffffffffffffffffffffffffffffffffffff8381831617835250505050611a89565b505050565b5f8373ffffffffffffffffffffffffffffffffffffffff1663095ea7b38484604051602401611860929190612f3b565b604051602081830303815290604052915060e01b6020820180517bffffffffffffffffffffffffffffffffffffffffffffffffffffffff838183161783525050505090506118ae8482611b1e565b6119375761192c848573ffffffffffffffffffffffffffffffffffffffff1663095ea7b3865f6040516024016118e5929190612f9b565b604051602081830303815290604052915060e01b6020820180517bffffffffffffffffffffffffffffffffffffffffffffffffffffffff8381831617835250505050611a89565b6119368482611a89565b5b50505050565b6119b9848573ffffffffffffffffffffffffffffffffffffffff166323b872dd86868660405160240161197293929190612fc2565b604051602081830303815290604052915060e01b6020820180517bffffffffffffffffffffffffffffffffffffffffffffffffffffffff8381831617835250505050611a89565b50505050565b5f5f6119f560646119e7868762e4e1c06119d99190612907565b611bdd90919063ffffffff16565b611bf990919063ffffffff16565b90505f611a1a8483611a07919061293a565b6305f5e100611bdd90919063ffffffff16565b90505f611a346301e1338088611bdd90919063ffffffff16565b9050611a7c611a77683635c9adc5dea000006064611a52919061293a565b83858c611a5f919061293a565b611a69919061293a565b611bdd90919063ffffffff16565b611c0c565b9350505050949350505050565b5f611ab3828473ffffffffffffffffffffffffffffffffffffffff16611c2d90919063ffffffff16565b90505f815114158015611ad7575080806020019051810190611ad59190612a21565b155b15611b1957826040517f5274afe7000000000000000000000000000000000000000000000000000000008152600401611b109190612633565b60405180910390fd5b505050565b5f5f5f8473ffffffffffffffffffffffffffffffffffffffff1684604051611b469190613031565b5f604051808303815f865af19150503d805f8114611b7f576040519150601f19603f3d011682016040523d82523d5f602084013e611b84565b606091505b5091509150818015611bb157505f81511480611bb0575080806020019051810190611baf9190612a21565b5b5b8015611bd357505f8573ffffffffffffffffffffffffffffffffffffffff163b115b9250505092915050565b5f611bf183670de0b6b3a764000084611c42565b905092915050565b5f611c048383611d50565b905092915050565b5f670de0b6b3a76400008281611c2557611c2461297b565b5b049050919050565b6060611c3a83835f611e48565b905092915050565b5f5f5f5f198587098587029250828110838203039150505f8103611c7a57838281611c7057611c6f61297b565b5b0492505050611d49565b838110611cc05780846040517f773cc18c000000000000000000000000000000000000000000000000000000008152600401611cb7929190613047565b60405180910390fd5b5f8486880990508281118203915080830392505f60018619018616905080860495508084049350600181825f0304019050808302841793505f600287600302189050808702600203810290508087026002038102905080870260020381029050808702600203810290508087026002038102905080870260020381029050808502955050505050505b9392505050565b5f5f5f5f19848609848602925082811083820303915050670de0b6b3a76400008110611db357806040517fd31b3402000000000000000000000000000000000000000000000000000000008152600401611daa9190612533565b60405180910390fd5b5f5f670de0b6b3a764000086880991506706f05b59d3b1ffff821190505f8303611dfd5780670de0b6b3a76400008581611df057611def61297b565b5b0401945050505050611e42565b807faccb18165bd6fe31ae1cf318dc5b51eee0e1ba569b88cd74c1773b91fac10669600162040000805f03040186851186030262040000858803041702019450505050505b92915050565b606081471015611e8f57306040517fcd786059000000000000000000000000000000000000000000000000000000008152600401611e869190612633565b60405180910390fd5b5f5f8573ffffffffffffffffffffffffffffffffffffffff168486604051611eb79190613031565b5f6040518083038185875af1925050503d805f8114611ef1576040519150601f19603f3d011682016040523d82523d5f602084013e611ef6565b606091505b5091509150611f06868383611f11565b925050509392505050565b606082611f2657611f2182611f9e565b611f96565b5f8251148015611f4c57505f8473ffffffffffffffffffffffffffffffffffffffff163b145b15611f8e57836040517f9996b315000000000000000000000000000000000000000000000000000000008152600401611f859190612633565b60405180910390fd5b819050611f97565b5b9392505050565b5f81511115611fb05780518082602001fd5b6040517f1425ea4200000000000000000000000000000000000000000000000000000000815260040160405180910390fd5b6040518061010001604052805f151581526020015f81526020015f73ffffffffffffffffffffffffffffffffffffffff1681526020015f81526020015f81526020015f81526020015f81526020015f151581525090565b6040518060200160405280606081525090565b5f604051905090565b5f5ffd5b5f5ffd5b5f5ffd5b5f5ffd5b5f601f19601f8301169050919050565b7f4e487b71000000000000000000000000000000000000000000000000000000005f52604160045260245ffd5b6120ab82612065565b810181811067ffffffffffffffff821117156120ca576120c9612075565b5b80604052505050565b5f6120dc61204c565b90506120e882826120a2565b919050565b5f67ffffffffffffffff82111561210757612106612075565b5b61211082612065565b9050602081019050919050565b828183375f83830152505050565b5f61213d612138846120ed565b6120d3565b90508281526020810184848401111561215957612158612061565b5b61216484828561211d565b509392505050565b5f82601f8301126121805761217f61205d565b5b813561219084826020860161212b565b91505092915050565b5f602082840312156121ae576121ad612055565b5b5f82013567ffffffffffffffff8111156121cb576121ca612059565b5b6121d78482850161216c565b91505092915050565b5f8115159050919050565b6121f4816121e0565b82525050565b5f819050919050565b61220c816121fa565b82525050565b5f73ffffffffffffffffffffffffffffffffffffffff82169050919050565b5f61223b82612212565b9050919050565b61224b81612231565b82525050565b5f610100820190506122655f83018b6121eb565b612272602083018a612203565b61227f6040830189612242565b61228c6060830188612203565b6122996080830187612203565b6122a660a0830186612203565b6122b360c0830185612203565b6122c060e08301846121eb565b9998505050505050505050565b5f6020820190506122e05f8301846121eb565b92915050565b5f6122f082612212565b9050919050565b612300816122e6565b82525050565b5f6020820190506123195f8301846122f7565b92915050565b5f81519050919050565b5f82825260208201905092915050565b8281835e5f83830152505050565b5f6123518261231f565b61235b8185612329565b935061236b818560208601612339565b61237481612065565b840191505092915050565b5f6020820190508181035f8301526123978184612347565b905092915050565b6123a8816121fa565b81146123b2575f5ffd5b50565b5f813590506123c38161239f565b92915050565b5f60ff82169050919050565b6123de816123c9565b81146123e8575f5ffd5b50565b5f813590506123f9816123d5565b92915050565b61240881612231565b8114612412575f5ffd5b50565b5f81359050612423816123ff565b92915050565b612432816121e0565b811461243c575f5ffd5b50565b5f8135905061244d81612429565b92915050565b5f5f5f5f5f5f5f5f5f6101208a8c03121561247157612470612055565b5b5f8a013567ffffffffffffffff81111561248e5761248d612059565b5b61249a8c828d0161216c565b99505060206124ab8c828d016123b5565b98505060406124bc8c828d016123b5565b97505060606124cd8c828d016123eb565b96505060806124de8c828d01612415565b95505060a06124ef8c828d016123b5565b94505060c06125008c828d0161243f565b93505060e06125118c828d016123b5565b9250506101006125238c828d016123b5565b9150509295985092959850929598565b5f6020820190506125465f830184612203565b92915050565b612555816121e0565b82525050565b612564816121fa565b82525050565b61257381612231565b82525050565b61010082015f82015161258e5f85018261254c565b5060208201516125a1602085018261255b565b5060408201516125b4604085018261256a565b5060608201516125c7606085018261255b565b5060808201516125da608085018261255b565b5060a08201516125ed60a085018261255b565b5060c082015161260060c085018261255b565b5060e082015161261360e085018261254c565b50505050565b5f6101008201905061262d5f830184612579565b92915050565b5f6020820190506126465f830184612242565b92915050565b5f819050919050565b5f61266f61266a61266584612212565b61264c565b612212565b9050919050565b5f61268082612655565b9050919050565b5f61269182612676565b9050919050565b6126a181612687565b82525050565b5f6020820190506126ba5f830184612698565b92915050565b5f81519050919050565b5f82825260208201905092915050565b5f819050602082019050919050565b5f82825260208201905092915050565b5f6127038261231f565b61270d81856126e9565b935061271d818560208601612339565b61272681612065565b840191505092915050565b5f61273c83836126f9565b905092915050565b5f602082019050919050565b5f61275a826126c0565b61276481856126ca565b935083602082028501612776856126da565b805f5b858110156127b157848403895281516127928582612731565b945061279d83612744565b925060208a01995050600181019050612779565b50829750879550505050505092915050565b5f602083015f8301518482035f8601526127dd8282612750565b9150508091505092915050565b5f6020820190508181035f83015261280281846127c3565b905092915050565b5f5f5f5f6080858703121561282257612821612055565b5b5f85013567ffffffffffffffff81111561283f5761283e612059565b5b61284b8782880161216c565b945050602061285c878288016123b5565b935050604061286d878288016123b5565b925050606061287e878288016123b5565b91505092959194509250565b5f81905092915050565b5f61289e8261231f565b6128a8818561288a565b93506128b8818560208601612339565b80840191505092915050565b5f6128cf8284612894565b915081905092915050565b7f4e487b71000000000000000000000000000000000000000000000000000000005f52601160045260245ffd5b5f612911826121fa565b915061291c836121fa565b9250828203905081811115612934576129336128da565b5b92915050565b5f612944826121fa565b915061294f836121fa565b925082820261295d816121fa565b91508282048414831517612974576129736128da565b5b5092915050565b7f4e487b71000000000000000000000000000000000000000000000000000000005f52601260045260245ffd5b5f6129b2826121fa565b91506129bd836121fa565b9250826129cd576129cc61297b565b5b828204905092915050565b5f6060820190506129eb5f830186612242565b6129f86020830185612203565b612a056040830184612242565b949350505050565b5f81519050612a1b81612429565b92915050565b5f60208284031215612a3657612a35612055565b5b5f612a4384828501612a0d565b91505092915050565b5f81905092915050565b50565b5f612a645f83612a4c565b9150612a6f82612a56565b5f82019050919050565b5f612a8382612a59565b9150819050919050565b7f436f756c646e27742073656e642066756e6473000000000000000000000000005f82015250565b5f612ac1601383612329565b9150612acc82612a8d565b602082019050919050565b5f6020820190508181035f830152612aee81612ab5565b9050919050565b5f604082019050612b085f830185612203565b612b156020830184612242565b9392505050565b7f4e487b71000000000000000000000000000000000000000000000000000000005f52602260045260245ffd5b5f6002820490506001821680612b6057607f821691505b602082108103612b7357612b72612b1c565b5b50919050565b7f496e76616c696420736176696e6720696e6372656d656e742076616c756520735f8201527f656e740000000000000000000000000000000000000000000000000000000000602082015250565b5f612bd3602383612329565b9150612bde82612b79565b604082019050919050565b5f6020820190508181035f830152612c0081612bc7565b9050919050565b5f612c11826121fa565b9150612c1c836121fa565b9250828201905080821115612c3457612c336128da565b5b92915050565b5f606082019050612c4d5f830186612203565b612c5a6020830185612203565b612c676040830184612242565b949350505050565b5f604082019050612c825f830185612242565b612c8f6020830184612242565b9392505050565b5f81519050612ca48161239f565b92915050565b5f60208284031215612cbf57612cbe612055565b5b5f612ccc84828501612c96565b91505092915050565b5f819050815f5260205f209050919050565b5f6020601f8301049050919050565b5f82821b905092915050565b5f60088302612d317fffffffffffffffffffffffffffffffffffffffffffffffffffffffffffffffff82612cf6565b612d3b8683612cf6565b95508019841693508086168417925050509392505050565b5f612d6d612d68612d63846121fa565b61264c565b6121fa565b9050919050565b5f819050919050565b612d8683612d53565b612d9a612d9282612d74565b848454612d02565b825550505050565b5f5f905090565b612db1612da2565b612dbc818484612d7d565b505050565b5b81811015612ddf57612dd45f82612da9565b600181019050612dc2565b5050565b601f821115612e2457612df581612cd5565b612dfe84612ce7565b81016020851015612e0d578190505b612e21612e1985612ce7565b830182612dc1565b50505b505050565b5f82821c905092915050565b5f612e445f1984600802612e29565b1980831691505092915050565b5f612e5c8383612e35565b9150826002028217905092915050565b612e758261231f565b67ffffffffffffffff811115612e8e57612e8d612075565b5b612e988254612b49565b612ea3828285612de3565b5f60209050601f831160018114612ed4575f8415612ec2578287015190505b612ecc8582612e51565b865550612f33565b601f198416612ee286612cd5565b5f5b82811015612f0957848901518255600182019150602085019450602081019050612ee4565b86831015612f265784890151612f22601f891682612e35565b8355505b6001600288020188555050505b505050505050565b5f604082019050612f4e5f830185612242565b612f5b6020830184612203565b9392505050565b5f819050919050565b5f612f85612f80612f7b84612f62565b61264c565b6121fa565b9050919050565b612f9581612f6b565b82525050565b5f604082019050612fae5f830185612242565b612fbb6020830184612f8c565b9392505050565b5f606082019050612fd55f830186612242565b612fe26020830185612242565b612fef6040830184612203565b949350505050565b5f81519050919050565b5f61300b82612ff7565b6130158185612a4c565b9350613025818560208601612339565b80840191505092915050565b5f61303c8284613001565b915081905092915050565b5f60408201905061305a5f830185612203565b6130676020830184612203565b939250505056fea2646970667358221220498abdd448fb50491f899b2facfb514f409003d7b82c8917164f39e74cfac1c264736f6c634300081b0033a2646970667358221220c5c72c2805610d450d13722306b8c6aa9d8b35e442c79e9a979dfa6cc784ef5f64736f6c634300081b0033","linkReferences":{}},"methodIdentifiers":{"ChildContractGasFee()":"bf66bfc7","ChildCutPerFee()":"09a5ff8c","JoinLimitFee()":"84762b0b","SavingFee()":"fed0b925","createSaving(string,uint256,uint8,bool,address,uint256)":"6405350a","csToken()":"e04605fd","currentTotalValueLocked()":"02500739","currentVaultState()":"4c3fa304","dripFountain(address)":"52f44e2e","editFees(uint256,uint256,uint256)":"a63748e5","editInternalData(uint256,uint256,address)":"7679489c","editStableCoin(address)":"9986e0e9","fountain()":"f24053b3","getUserChildContractAddress()":"ea413672","incrementSaving(string,address,uint256)":"1fdc181f","joinBitsave()":"16f94d5d","masterAddress()":"d365a08e","rewardPool()":"66666aa9","sendAsOriginalToken(address,uint256,address)":"de35c372","stableCoin()":"992642e5","userCount()":"07973ccf","withdrawSaving(string)":"372f9101"},"id":43}